{
  "contractName": "ChaiHandler",
  "abi": [
    {
      "constant": false,
      "inputs": [],
      "name": "renounceOwnership",
      "outputs": [],
      "payable": false,
      "stateMutability": "nonpayable",
      "type": "function"
    },
    {
      "constant": true,
      "inputs": [],
      "name": "owner",
      "outputs": [
        {
          "name": "",
          "type": "address"
        }
      ],
      "payable": false,
      "stateMutability": "view",
      "type": "function"
    },
    {
      "constant": false,
      "inputs": [
        {
          "name": "_token",
          "type": "address"
        },
        {
          "name": "_amount",
          "type": "uint256"
        }
      ],
      "name": "withdrawToken",
      "outputs": [
        {
          "name": "",
          "type": "bool"
        }
      ],
      "payable": false,
      "stateMutability": "nonpayable",
      "type": "function"
    },
    {
      "constant": false,
      "inputs": [
        {
          "name": "_amount",
          "type": "uint256"
        }
      ],
      "name": "withdrawETH",
      "outputs": [],
      "payable": false,
      "stateMutability": "nonpayable",
      "type": "function"
    },
    {
      "constant": false,
      "inputs": [
        {
          "name": "_newOwner",
          "type": "address"
        }
      ],
      "name": "transferOwnership",
      "outputs": [],
      "payable": false,
      "stateMutability": "nonpayable",
      "type": "function"
    },
    {
      "anonymous": false,
      "inputs": [
        {
          "indexed": true,
          "name": "previousOwner",
          "type": "address"
        }
      ],
      "name": "OwnershipRenounced",
      "type": "event"
    },
    {
      "anonymous": false,
      "inputs": [
        {
          "indexed": true,
          "name": "previousOwner",
          "type": "address"
        },
        {
          "indexed": true,
          "name": "newOwner",
          "type": "address"
        }
      ],
      "name": "OwnershipTransferred",
      "type": "event"
    },
    {
      "constant": false,
      "inputs": [
        {
          "name": "genericPayload",
          "type": "bytes"
        },
        {
          "name": "availableToSpend",
          "type": "uint256"
        },
        {
          "name": "targetAmount",
          "type": "uint256"
        },
        {
          "name": "targetAmountIsSource",
          "type": "bool"
        }
      ],
      "name": "performOrder",
      "outputs": [
        {
          "name": "amountSpentOnOrder",
          "type": "uint256"
        },
        {
          "name": "amountReceivedFromOrder",
          "type": "uint256"
        }
      ],
      "payable": true,
      "stateMutability": "payable",
      "type": "function"
    },
    {
      "constant": false,
      "inputs": [
        {
          "name": "wad",
          "type": "uint256"
        }
      ],
      "name": "getReturnByJoin",
      "outputs": [
        {
          "name": "",
          "type": "uint256"
        }
      ],
      "payable": false,
      "stateMutability": "nonpayable",
      "type": "function"
    },
    {
      "constant": false,
      "inputs": [
        {
          "name": "wad",
          "type": "uint256"
        }
      ],
      "name": "getReturnByExit",
      "outputs": [
        {
          "name": "",
          "type": "uint256"
        }
      ],
      "payable": false,
      "stateMutability": "nonpayable",
      "type": "function"
    }
  ],
  "bytecode": "0x6080604052336000806101000a81548173ffffffffffffffffffffffffffffffffffffffff021916908373ffffffffffffffffffffffffffffffffffffffff160217905550611a8d806100536000396000f3fe60806040526004361061007b5760003560e01c80639e281a981161004e5780639e281a9814610130578063b9c10c441461016d578063f14210a6146101aa578063f2fde38b146101d35761007b565b80630345c2a6146100805780630af030bf146100b1578063715018a6146100ee5780638da5cb5b14610105575b600080fd5b61009a6004803603610095919081019061154e565b6101fc565b6040516100a892919061187e565b60405180910390f35b3480156100bd57600080fd5b506100d860048036036100d391908101906115f2565b6103cf565b6040516100e59190611863565b60405180910390f35b3480156100fa57600080fd5b506101036105ae565b005b34801561011157600080fd5b5061011a6106ae565b6040516101279190611772565b60405180910390f35b34801561013c57600080fd5b50610157600480360361015291908101906114e9565b6106d3565b6040516101649190611808565b60405180910390f35b34801561017957600080fd5b50610194600480360361018f91908101906115f2565b610762565b6040516101a19190611863565b60405180910390f35b3480156101b657600080fd5b506101d160048036036101cc91908101906115f2565b610941565b005b3480156101df57600080fd5b506101fa60048036036101f591908101906114c0565b610a05565b005b60008061020761138c565b8680602001905161021b91908101906115c9565b9050600061022f8587898560200151610a6a565b90508160000151156102515761024481610a96565b8094508195505050610263565b61025a81610c95565b80945081955050505b868110156103c45781600001511561031e57736b175474e89094c44da98b954eedeac495271d0f73ffffffffffffffffffffffffffffffffffffffff1663a9059cbb33838a036040518363ffffffff1660e01b81526004016102c692919061178d565b602060405180830381600087803b1580156102e057600080fd5b505af11580156102f4573d6000803e3d6000fd5b505050506040513d601f19601f820116820180604052506103189190810190611525565b506103c3565b7306af07097c9eeb7fd685c692751d5c66db49c21573ffffffffffffffffffffffffffffffffffffffff1663a9059cbb33838a036040518363ffffffff1660e01b815260040161036f92919061178d565b602060405180830381600087803b15801561038957600080fd5b505af115801561039d573d6000803e3d6000fd5b505050506040513d601f19601f820116820180604052506103c19190810190611525565b505b5b505094509492505050565b60008073197e90f9fad81970ba7976f33cbd77088e5d7cf773ffffffffffffffffffffffffffffffffffffffff166320aba08b6040518163ffffffff1660e01b8152600401602060405180830381600087803b15801561042e57600080fd5b505af1158015610442573d6000803e3d6000fd5b505050506040513d601f19601f82011682018060405250610466919081019061161b565b42116105055773197e90f9fad81970ba7976f33cbd77088e5d7cf773ffffffffffffffffffffffffffffffffffffffff1663c92aecc46040518163ffffffff1660e01b8152600401602060405180830381600087803b1580156104c857600080fd5b505af11580156104dc573d6000803e3d6000fd5b505050506040513d601f19601f82011682018060405250610500919081019061161b565b61059a565b73197e90f9fad81970ba7976f33cbd77088e5d7cf773ffffffffffffffffffffffffffffffffffffffff16639f678cca6040518163ffffffff1660e01b8152600401602060405180830381600087803b15801561056157600080fd5b505af1158015610575573d6000803e3d6000fd5b505050506040513d601f19601f82011682018060405250610599919081019061161b565b5b90506105a68184610e62565b915050919050565b6000809054906101000a900473ffffffffffffffffffffffffffffffffffffffff1673ffffffffffffffffffffffffffffffffffffffff163373ffffffffffffffffffffffffffffffffffffffff161461060757600080fd5b6000809054906101000a900473ffffffffffffffffffffffffffffffffffffffff1673ffffffffffffffffffffffffffffffffffffffff167ff8df31144d9c2f0f6b59d69b8b98abd5459d07f2742c4df920b25aae33c6482060405160405180910390a260008060006101000a81548173ffffffffffffffffffffffffffffffffffffffff021916908373ffffffffffffffffffffffffffffffffffffffff160217905550565b6000809054906101000a900473ffffffffffffffffffffffffffffffffffffffff1681565b60008060009054906101000a900473ffffffffffffffffffffffffffffffffffffffff1673ffffffffffffffffffffffffffffffffffffffff163373ffffffffffffffffffffffffffffffffffffffff161461072e57600080fd5b61075a836000809054906101000a900473ffffffffffffffffffffffffffffffffffffffff1684610e8b565b905092915050565b60008073197e90f9fad81970ba7976f33cbd77088e5d7cf773ffffffffffffffffffffffffffffffffffffffff166320aba08b6040518163ffffffff1660e01b8152600401602060405180830381600087803b1580156107c157600080fd5b505af11580156107d5573d6000803e3d6000fd5b505050506040513d601f19601f820116820180604052506107f9919081019061161b565b42116108985773197e90f9fad81970ba7976f33cbd77088e5d7cf773ffffffffffffffffffffffffffffffffffffffff1663c92aecc46040518163ffffffff1660e01b8152600401602060405180830381600087803b15801561085b57600080fd5b505af115801561086f573d6000803e3d6000fd5b505050506040513d601f19601f82011682018060405250610893919081019061161b565b61092d565b73197e90f9fad81970ba7976f33cbd77088e5d7cf773ffffffffffffffffffffffffffffffffffffffff16639f678cca6040518163ffffffff1660e01b8152600401602060405180830381600087803b1580156108f457600080fd5b505af1158015610908573d6000803e3d6000fd5b505050506040513d601f19601f8201168201806040525061092c919081019061161b565b5b90506109398382610fda565b915050919050565b6000809054906101000a900473ffffffffffffffffffffffffffffffffffffffff1673ffffffffffffffffffffffffffffffffffffffff163373ffffffffffffffffffffffffffffffffffffffff161461099a57600080fd5b6000809054906101000a900473ffffffffffffffffffffffffffffffffffffffff1673ffffffffffffffffffffffffffffffffffffffff166108fc829081150290604051600060405180830381858888f19350505050158015610a01573d6000803e3d6000fd5b5050565b6000809054906101000a900473ffffffffffffffffffffffffffffffffffffffff1673ffffffffffffffffffffffffffffffffffffffff163373ffffffffffffffffffffffffffffffffffffffff1614610a5e57600080fd5b610a6781611003565b50565b60008290508415610a8b57610a88610a8282866110fb565b836110fb565b90505b809050949350505050565b600080610acb7306af07097c9eeb7fd685c692751d5c66db49c215736b175474e89094c44da98b954eedeac495271d0f611114565b7306af07097c9eeb7fd685c692751d5c66db49c21573ffffffffffffffffffffffffffffffffffffffff16633b4da69f30856040518363ffffffff1660e01b8152600401610b1a9291906117df565b600060405180830381600087803b158015610b3457600080fd5b505af1158015610b48573d6000803e3d6000fd5b505050508291507306af07097c9eeb7fd685c692751d5c66db49c21573ffffffffffffffffffffffffffffffffffffffff166370a08231306040518263ffffffff1660e01b8152600401610b9c9190611757565b60206040518083038186803b158015610bb457600080fd5b505afa158015610bc8573d6000803e3d6000fd5b505050506040513d601f19601f82011682018060405250610bec919081019061161b565b90507306af07097c9eeb7fd685c692751d5c66db49c21573ffffffffffffffffffffffffffffffffffffffff1663a9059cbb33836040518363ffffffff1660e01b8152600401610c3d92919061178d565b602060405180830381600087803b158015610c5757600080fd5b505af1158015610c6b573d6000803e3d6000fd5b505050506040513d601f19601f82011682018060405250610c8f9190810190611525565b50915091565b6000807306af07097c9eeb7fd685c692751d5c66db49c21573ffffffffffffffffffffffffffffffffffffffff1663ef693bed30856040518363ffffffff1660e01b8152600401610ce79291906117df565b600060405180830381600087803b158015610d0157600080fd5b505af1158015610d15573d6000803e3d6000fd5b50505050829150736b175474e89094c44da98b954eedeac495271d0f73ffffffffffffffffffffffffffffffffffffffff166370a08231306040518263ffffffff1660e01b8152600401610d699190611757565b60206040518083038186803b158015610d8157600080fd5b505afa158015610d95573d6000803e3d6000fd5b505050506040513d601f19601f82011682018060405250610db9919081019061161b565b9050736b175474e89094c44da98b954eedeac495271d0f73ffffffffffffffffffffffffffffffffffffffff1663a9059cbb33836040518363ffffffff1660e01b8152600401610e0a92919061178d565b602060405180830381600087803b158015610e2457600080fd5b505af1158015610e38573d6000803e3d6000fd5b505050506040513d601f19601f82011682018060405250610e5c9190810190611525565b50915091565b60006b033b2e3c9fd0803ce8000000610e7b84846111e0565b81610e8257fe5b04905092915050565b60008373ffffffffffffffffffffffffffffffffffffffff168383604051602401610eb79291906117df565b6040516020818303038152906040527fa9059cbb000000000000000000000000000000000000000000000000000000007bffffffffffffffffffffffffffffffffffffffffffffffffffffffff19166020820180517bffffffffffffffffffffffffffffffffffffffffffffffffffffffff8381831617835250505050604051610f419190611740565b6000604051808303816000865af19150503d8060008114610f7e576040519150601f19603f3d011682016040523d82523d6000602084013e610f83565b606091505b50508091505080610fc9576040517f08c379a0000000000000000000000000000000000000000000000000000000008152600401610fc090611823565b60405180910390fd5b610fd161120c565b90509392505050565b600081610ff3846b033b2e3c9fd0803ce80000006111e0565b81610ffa57fe5b04905092915050565b600073ffffffffffffffffffffffffffffffffffffffff168173ffffffffffffffffffffffffffffffffffffffff16141561103d57600080fd5b8073ffffffffffffffffffffffffffffffffffffffff166000809054906101000a900473ffffffffffffffffffffffffffffffffffffffff1673ffffffffffffffffffffffffffffffffffffffff167f8be0079c531659141344cd1fd0a4f28419497f9722a3daafe3b4186f6b6457e060405160405180910390a3806000806101000a81548173ffffffffffffffffffffffffffffffffffffffff021916908373ffffffffffffffffffffffffffffffffffffffff16021790555050565b600081831061110a578161110c565b825b905092915050565b60008173ffffffffffffffffffffffffffffffffffffffff1663dd62ed3e30856040518363ffffffff1660e01b81526004016111519291906117b6565b60206040518083038186803b15801561116957600080fd5b505afa15801561117d573d6000803e3d6000fd5b505050506040513d601f19601f820116820180604052506111a1919081019061161b565b14156111dc576111d281837fffffffffffffffffffffffffffffffffffffffffffffffffffffffffffffffff61123d565b6111db57600080fd5b5b5050565b6000808214806111fd57508282838502925082816111fa57fe5b04145b61120657600080fd5b92915050565b60003d60008114611224576020811461122d57600080fd5b60019150611239565b60206000803e60005191505b5090565b60008373ffffffffffffffffffffffffffffffffffffffff1683836040516024016112699291906117df565b6040516020818303038152906040527f095ea7b3000000000000000000000000000000000000000000000000000000007bffffffffffffffffffffffffffffffffffffffffffffffffffffffff19166020820180517bffffffffffffffffffffffffffffffffffffffffffffffffffffffff83818316178352505050506040516112f39190611740565b6000604051808303816000865af19150503d8060008114611330576040519150601f19603f3d011682016040523d82523d6000602084013e611335565b606091505b5050809150508061137b576040517f08c379a000000000000000000000000000000000000000000000000000000000815260040161137290611843565b60405180910390fd5b61138361120c565b90509392505050565b6040518060400160405280600015158152602001600081525090565b60006113b48235611981565b905092915050565b60006113c88235611993565b905092915050565b60006113dc82356119a5565b905092915050565b60006113f082516119a5565b905092915050565b600082601f83011261140957600080fd5b813561141c611417826118d4565b6118a7565b9150808252602083016020830185838301111561143857600080fd5b611443838284611a11565b50505092915050565b60006040828403121561145e57600080fd5b61146860406118a7565b90506000611478848285016113e4565b600083015250602061148c848285016114ac565b60208301525092915050565b60006114a482356119d1565b905092915050565b60006114b882516119d1565b905092915050565b6000602082840312156114d257600080fd5b60006114e0848285016113bc565b91505092915050565b600080604083850312156114fc57600080fd5b600061150a858286016113a8565b925050602061151b85828601611498565b9150509250929050565b60006020828403121561153757600080fd5b6000611545848285016113e4565b91505092915050565b6000806000806080858703121561156457600080fd5b600085013567ffffffffffffffff81111561157e57600080fd5b61158a878288016113f8565b945050602061159b87828801611498565b93505060406115ac87828801611498565b92505060606115bd878288016113d0565b91505092959194509250565b6000604082840312156115db57600080fd5b60006115e98482850161144c565b91505092915050565b60006020828403121561160457600080fd5b600061161284828501611498565b91505092915050565b60006020828403121561162d57600080fd5b600061163b848285016114ac565b91505092915050565b61164d816119db565b82525050565b61165c81611939565b82525050565b61166b81611927565b82525050565b61167a8161194b565b82525050565b600061168b82611900565b611695818561190b565b93506116a5818560208601611a20565b80840191505092915050565b60006116be600f83611916565b91507f5472616e73666572206661696c656400000000000000000000000000000000006000830152602082019050919050565b60006116fe600e83611916565b91507f417070726f7665206661696c65640000000000000000000000000000000000006000830152602082019050919050565b61173a81611977565b82525050565b600061174c8284611680565b915081905092915050565b600060208201905061176c6000830184611662565b92915050565b60006020820190506117876000830184611653565b92915050565b60006040820190506117a26000830185611644565b6117af6020830184611731565b9392505050565b60006040820190506117cb6000830185611662565b6117d86020830184611662565b9392505050565b60006040820190506117f46000830185611662565b6118016020830184611731565b9392505050565b600060208201905061181d6000830184611671565b92915050565b6000602082019050818103600083015261183c816116b1565b9050919050565b6000602082019050818103600083015261185c816116f1565b9050919050565b60006020820190506118786000830184611731565b92915050565b60006040820190506118936000830185611731565b6118a06020830184611731565b9392505050565b6000604051905081810181811067ffffffffffffffff821117156118ca57600080fd5b8060405250919050565b600067ffffffffffffffff8211156118eb57600080fd5b601f19601f8301169050602081019050919050565b600081519050919050565b600081905092915050565b600082825260208201905092915050565b600061193282611957565b9050919050565b600061194482611957565b9050919050565b60008115159050919050565b600073ffffffffffffffffffffffffffffffffffffffff82169050919050565b6000819050919050565b600061198c826119b1565b9050919050565b600061199e826119b1565b9050919050565b60008115159050919050565b600073ffffffffffffffffffffffffffffffffffffffff82169050919050565b6000819050919050565b60006119e6826119ed565b9050919050565b60006119f8826119ff565b9050919050565b6000611a0a82611957565b9050919050565b82818337600083830152505050565b60005b83811015611a3e578082015181840152602081019050611a23565b83811115611a4d576000848401525b5050505056fea265627a7a72305820a93df360eccf3c654859cc5e7574281d5aa53aa0a9f4b87ca36c102a8172b1326c6578706572696d656e74616cf50037",
  "source": "pragma solidity 0.5.7;\r\npragma experimental ABIEncoderV2;\r\n\r\nimport \"../lib/ERC20.sol\";\r\nimport \"../lib/SafeMath.sol\";\r\nimport \"../lib/Math.sol\";\r\nimport \"../lib/Utils.sol\";\r\nimport \"../lib/AllowanceSetter.sol\";\r\nimport \"./ExchangeHandler.sol\";\r\n\r\ncontract PotLike {\r\n    function chi() external returns (uint256);\r\n    function rho() external returns (uint256);\r\n    function drip() external returns (uint256);\r\n}\r\n\r\ncontract Chai is ERC20 {\r\n    function exit(address src, uint256 chaiAmount) external;\r\n    function join(address dst, uint256 daiAmount) external;\r\n}\r\n\r\n/// @title Handler for Chai\r\ncontract ChaiHandler is ExchangeHandler, AllowanceSetter {\r\n    /*\r\n    *   Types\r\n    */\r\n    Chai constant CHAI = Chai(0x06AF07097C9Eeb7fD685c692751D5C66dB49c215);\r\n    ERC20 constant DAI = ERC20(0x6B175474E89094C44Da98b954EedeAC495271d0F);\r\n    PotLike constant POT = PotLike(0x197E90f9FAD81970bA7976f33CbD77088E5D7cf7);\r\n\r\n    struct OrderData {\r\n        bool isDeposit;\r\n        uint256 maxSpend;\r\n    }\r\n\r\n    /*\r\n    *   Internal functions\r\n    */\r\n\r\n    function performOrder(\r\n        bytes memory genericPayload,\r\n        uint256 availableToSpend,\r\n        uint256 targetAmount,\r\n        bool targetAmountIsSource\r\n    )\r\n        public\r\n        payable\r\n        returns (uint256 amountSpentOnOrder, uint256 amountReceivedFromOrder)\r\n    {\r\n        OrderData memory data = abi.decode(genericPayload, (OrderData));\r\n        uint256 maxToSpend = getMaxToSpend(\r\n            targetAmountIsSource,\r\n            targetAmount,\r\n            availableToSpend,\r\n            data.maxSpend\r\n        );\r\n        if (data.isDeposit) {\r\n            (amountSpentOnOrder, amountReceivedFromOrder) = performJoinAction(\r\n                maxToSpend\r\n            );\r\n        } else {\r\n            (amountSpentOnOrder, amountReceivedFromOrder) = performExitAction(\r\n                maxToSpend\r\n            );\r\n        }\r\n        if (maxToSpend < availableToSpend) {\r\n            if (data.isDeposit) {\r\n                DAI.transfer(msg.sender, availableToSpend - maxToSpend);\r\n            } else {\r\n                CHAI.transfer(msg.sender, availableToSpend - maxToSpend);\r\n            }\r\n        }\r\n    }\r\n\r\n    function performJoinAction(uint256 maxToSpend)\r\n        internal\r\n        returns (uint256 amountSpentOnOrder, uint256 amountReceivedFromOrder)\r\n    {\r\n        approveAddress(address(CHAI), address(DAI));\r\n        CHAI.join(address(this), maxToSpend);\r\n        amountSpentOnOrder = maxToSpend;\r\n        amountReceivedFromOrder = CHAI.balanceOf(address(this));\r\n        CHAI.transfer(msg.sender, amountReceivedFromOrder);\r\n    }\r\n\r\n    function performExitAction(uint256 maxToSpend)\r\n        internal\r\n        returns (uint256 amountSpentOnOrder, uint256 amountReceivedFromOrder)\r\n    {\r\n        CHAI.exit(address(this), maxToSpend);\r\n        amountSpentOnOrder = maxToSpend;\r\n        amountReceivedFromOrder = DAI.balanceOf(address(this));\r\n        DAI.transfer(msg.sender, amountReceivedFromOrder);\r\n    }\r\n\r\n    function getMaxToSpend(\r\n        bool targetAmountIsSource,\r\n        uint256 targetAmount,\r\n        uint256 availableToSpend,\r\n        uint256 maxOrderSpend\r\n    ) internal returns (uint256 max) {\r\n        max = availableToSpend;\r\n        if (targetAmountIsSource) {\r\n            max = Math.min(Math.min(max, targetAmount), maxOrderSpend);\r\n        }\r\n        return max;\r\n    }\r\n\r\n    function getReturnByJoin(uint256 wad) external returns (uint256) {\r\n        uint256 chi = (now > POT.rho()) ? POT.drip() : POT.chi();\r\n        return rdiv(wad, chi);\r\n    }\r\n\r\n    function getReturnByExit(uint256 wad) external returns (uint256) {\r\n        uint256 chi = (now > POT.rho()) ? POT.drip() : POT.chi();\r\n        return rmul(chi, wad);\r\n    }\r\n\r\n    uint256 constant RAY = 10**27;\r\n\r\n    function mul(uint256 x, uint256 y) internal pure returns (uint256 z) {\r\n        require(y == 0 || (z = x * y) / y == x);\r\n    }\r\n\r\n    function rmul(uint256 x, uint256 y) internal pure returns (uint256 z) {\r\n        // always rounds down\r\n        z = mul(x, y) / RAY;\r\n    }\r\n\r\n    function rdiv(uint256 x, uint256 y) internal pure returns (uint256 z) {\r\n        // always rounds down\r\n        z = mul(x, RAY) / y;\r\n    }\r\n}\r\n",
  "sourcePath": "C:/Users/jay.sanchez/taisho_dex/contracts/exchange_handlers/ChaiHandler.sol",
  "compiler": {
    "name": "solc",
    "version": "0.5.7+commit.6da8b019.Emscripten.clang"
  },
  "schemaVersion": "3.3.2",
  "updatedAt": "2021-01-06T05:12:37.576Z",
  "devdoc": {
    "methods": {
      "renounceOwnership()": {
        "details": "Allows the current owner to relinquish control of the contract.\r"
      },
      "transferOwnership(address)": {
        "details": "Allows the current owner to transfer control of the contract to a newOwner.\r",
        "params": {
          "_newOwner": "The address to transfer ownership to.\r"
        }
      },
      "withdrawETH(uint256)": {
        "params": {
          "_amount": "The amount of ether that the caller wants to withdraw"
        }
      },
      "withdrawToken(address,uint256)": {
        "return": "bool value indicating whether the transfer was successful"
      }
    },
    "title": "Handler for Chai"
  },
  "userdoc": {
    "methods": {
      "renounceOwnership()": {
        "notice": "Renouncing to ownership will leave the contract without an owner.\r It will not be possible to call the functions with the `onlyOwner`\r modifier anymore.\r"
      }
    }
  }
}