{
  "contractName": "IEarnFinanceHandler",
  "abi": [
    {
      "constant": false,
      "inputs": [],
      "name": "renounceOwnership",
      "outputs": [],
      "payable": false,
      "stateMutability": "nonpayable",
      "type": "function"
    },
    {
      "constant": true,
      "inputs": [],
      "name": "owner",
      "outputs": [
        {
          "name": "",
          "type": "address"
        }
      ],
      "payable": false,
      "stateMutability": "view",
      "type": "function"
    },
    {
      "constant": false,
      "inputs": [
        {
          "name": "_token",
          "type": "address"
        },
        {
          "name": "_amount",
          "type": "uint256"
        }
      ],
      "name": "withdrawToken",
      "outputs": [
        {
          "name": "",
          "type": "bool"
        }
      ],
      "payable": false,
      "stateMutability": "nonpayable",
      "type": "function"
    },
    {
      "constant": false,
      "inputs": [
        {
          "name": "_amount",
          "type": "uint256"
        }
      ],
      "name": "withdrawETH",
      "outputs": [],
      "payable": false,
      "stateMutability": "nonpayable",
      "type": "function"
    },
    {
      "constant": false,
      "inputs": [
        {
          "name": "_newOwner",
          "type": "address"
        }
      ],
      "name": "transferOwnership",
      "outputs": [],
      "payable": false,
      "stateMutability": "nonpayable",
      "type": "function"
    },
    {
      "payable": true,
      "stateMutability": "payable",
      "type": "fallback"
    },
    {
      "anonymous": false,
      "inputs": [
        {
          "indexed": true,
          "name": "previousOwner",
          "type": "address"
        }
      ],
      "name": "OwnershipRenounced",
      "type": "event"
    },
    {
      "anonymous": false,
      "inputs": [
        {
          "indexed": true,
          "name": "previousOwner",
          "type": "address"
        },
        {
          "indexed": true,
          "name": "newOwner",
          "type": "address"
        }
      ],
      "name": "OwnershipTransferred",
      "type": "event"
    },
    {
      "constant": false,
      "inputs": [
        {
          "name": "genericPayload",
          "type": "bytes"
        },
        {
          "name": "availableToSpend",
          "type": "uint256"
        },
        {
          "name": "targetAmount",
          "type": "uint256"
        },
        {
          "name": "targetAmountIsSource",
          "type": "bool"
        }
      ],
      "name": "performOrder",
      "outputs": [
        {
          "name": "amountSpentOnOrder",
          "type": "uint256"
        },
        {
          "name": "amountReceivedFromOrder",
          "type": "uint256"
        }
      ],
      "payable": true,
      "stateMutability": "payable",
      "type": "function"
    }
  ],
  "bytecode": "0x6080604052336000806101000a81548173ffffffffffffffffffffffffffffffffffffffff021916908373ffffffffffffffffffffffffffffffffffffffff160217905550611425806100536000396000f3fe6080604052600436106100555760003560e01c80630345c2a614610070578063715018a6146100a15780638da5cb5b146100b85780639e281a98146100e3578063f14210a614610120578063f2fde38b14610149575b600080339050803b91506000821161006c57600080fd5b5050005b61008a60048036036100859190810190610ee6565b610172565b604051610098929190611216565b60405180910390f35b3480156100ad57600080fd5b506100b661051e565b005b3480156100c457600080fd5b506100cd61061e565b6040516100da919061110a565b60405180910390f35b3480156100ef57600080fd5b5061010a60048036036101059190810190610e81565b610643565b60405161011791906111a0565b60405180910390f35b34801561012c57600080fd5b5061014760048036036101429190810190610f8a565b6106d2565b005b34801561015557600080fd5b50610170600480360361016b9190810190610e58565b610796565b005b60008061017d610cc9565b868060200190516101919190810190610f61565b905060006101a08587896107fb565b90506000826020015190506000836000015190508360400151156102c8578295508173ffffffffffffffffffffffffffffffffffffffff16632e1a7d4d846040518263ffffffff1660e01b81526004016101fa91906111fb565b600060405180830381600087803b15801561021457600080fd5b505af1158015610228573d6000803e3d6000fd5b505050508073ffffffffffffffffffffffffffffffffffffffff166370a08231306040518263ffffffff1660e01b815260040161026591906110ef565b60206040518083038186803b15801561027d57600080fd5b505afa158015610291573d6000803e3d6000fd5b505050506040513d601f19601f820116820180604052506102b59190810190610fb3565b94506102c281338761081d565b5061045a565b6102d2828261096c565b8295508173ffffffffffffffffffffffffffffffffffffffff1663b6b55f25846040518263ffffffff1660e01b815260040161030e91906111fb565b600060405180830381600087803b15801561032857600080fd5b505af115801561033c573d6000803e3d6000fd5b505050508173ffffffffffffffffffffffffffffffffffffffff166370a08231306040518263ffffffff1660e01b815260040161037991906110ef565b60206040518083038186803b15801561039157600080fd5b505afa1580156103a5573d6000803e3d6000fd5b505050506040513d601f19601f820116820180604052506103c99190810190610fb3565b94508173ffffffffffffffffffffffffffffffffffffffff1663a9059cbb33876040518363ffffffff1660e01b8152600401610406929190611125565b602060405180830381600087803b15801561042057600080fd5b505af1158015610434573d6000803e3d6000fd5b505050506040513d601f19601f820116820180604052506104589190810190610ebd565b505b8883101561051157836040015115610501578173ffffffffffffffffffffffffffffffffffffffff1663a9059cbb33858c036040518363ffffffff1660e01b81526004016104a9929190611125565b602060405180830381600087803b1580156104c357600080fd5b505af11580156104d7573d6000803e3d6000fd5b505050506040513d601f19601f820116820180604052506104fb9190810190610ebd565b50610510565b61050e8133858c0361081d565b505b5b5050505094509492505050565b6000809054906101000a900473ffffffffffffffffffffffffffffffffffffffff1673ffffffffffffffffffffffffffffffffffffffff163373ffffffffffffffffffffffffffffffffffffffff161461057757600080fd5b6000809054906101000a900473ffffffffffffffffffffffffffffffffffffffff1673ffffffffffffffffffffffffffffffffffffffff167ff8df31144d9c2f0f6b59d69b8b98abd5459d07f2742c4df920b25aae33c6482060405160405180910390a260008060006101000a81548173ffffffffffffffffffffffffffffffffffffffff021916908373ffffffffffffffffffffffffffffffffffffffff160217905550565b6000809054906101000a900473ffffffffffffffffffffffffffffffffffffffff1681565b60008060009054906101000a900473ffffffffffffffffffffffffffffffffffffffff1673ffffffffffffffffffffffffffffffffffffffff163373ffffffffffffffffffffffffffffffffffffffff161461069e57600080fd5b6106ca836000809054906101000a900473ffffffffffffffffffffffffffffffffffffffff168461081d565b905092915050565b6000809054906101000a900473ffffffffffffffffffffffffffffffffffffffff1673ffffffffffffffffffffffffffffffffffffffff163373ffffffffffffffffffffffffffffffffffffffff161461072b57600080fd5b6000809054906101000a900473ffffffffffffffffffffffffffffffffffffffff1673ffffffffffffffffffffffffffffffffffffffff166108fc829081150290604051600060405180830381858888f19350505050158015610792573d6000803e3d6000fd5b5050565b6000809054906101000a900473ffffffffffffffffffffffffffffffffffffffff1673ffffffffffffffffffffffffffffffffffffffff163373ffffffffffffffffffffffffffffffffffffffff16146107ef57600080fd5b6107f881610a38565b50565b60008190508315610813576108108184610b30565b90505b8090509392505050565b60008373ffffffffffffffffffffffffffffffffffffffff168383604051602401610849929190611177565b6040516020818303038152906040527fa9059cbb000000000000000000000000000000000000000000000000000000007bffffffffffffffffffffffffffffffffffffffffffffffffffffffff19166020820180517bffffffffffffffffffffffffffffffffffffffffffffffffffffffff83818316178352505050506040516108d391906110d8565b6000604051808303816000865af19150503d8060008114610910576040519150601f19603f3d011682016040523d82523d6000602084013e610915565b606091505b5050809150508061095b576040517f08c379a0000000000000000000000000000000000000000000000000000000008152600401610952906111bb565b60405180910390fd5b610963610b49565b90509392505050565b60008173ffffffffffffffffffffffffffffffffffffffff1663dd62ed3e30856040518363ffffffff1660e01b81526004016109a992919061114e565b60206040518083038186803b1580156109c157600080fd5b505afa1580156109d5573d6000803e3d6000fd5b505050506040513d601f19601f820116820180604052506109f99190810190610fb3565b1415610a3457610a2a81837fffffffffffffffffffffffffffffffffffffffffffffffffffffffffffffffff610b7a565b610a3357600080fd5b5b5050565b600073ffffffffffffffffffffffffffffffffffffffff168173ffffffffffffffffffffffffffffffffffffffff161415610a7257600080fd5b8073ffffffffffffffffffffffffffffffffffffffff166000809054906101000a900473ffffffffffffffffffffffffffffffffffffffff1673ffffffffffffffffffffffffffffffffffffffff167f8be0079c531659141344cd1fd0a4f28419497f9722a3daafe3b4186f6b6457e060405160405180910390a3806000806101000a81548173ffffffffffffffffffffffffffffffffffffffff021916908373ffffffffffffffffffffffffffffffffffffffff16021790555050565b6000818310610b3f5781610b41565b825b905092915050565b60003d60008114610b615760208114610b6a57600080fd5b60019150610b76565b60206000803e60005191505b5090565b60008373ffffffffffffffffffffffffffffffffffffffff168383604051602401610ba6929190611177565b6040516020818303038152906040527f095ea7b3000000000000000000000000000000000000000000000000000000007bffffffffffffffffffffffffffffffffffffffffffffffffffffffff19166020820180517bffffffffffffffffffffffffffffffffffffffffffffffffffffffff8381831617835250505050604051610c3091906110d8565b6000604051808303816000865af19150503d8060008114610c6d576040519150601f19603f3d011682016040523d82523d6000602084013e610c72565b606091505b50508091505080610cb8576040517f08c379a0000000000000000000000000000000000000000000000000000000008152600401610caf906111db565b60405180910390fd5b610cc0610b49565b90509392505050565b6040518060600160405280600073ffffffffffffffffffffffffffffffffffffffff168152602001600073ffffffffffffffffffffffffffffffffffffffff1681526020016000151581525090565b6000610d248235611319565b905092915050565b6000610d388251611319565b905092915050565b6000610d4c823561132b565b905092915050565b6000610d60823561133d565b905092915050565b6000610d74825161133d565b905092915050565b600082601f830112610d8d57600080fd5b8135610da0610d9b8261126c565b61123f565b91508082526020830160208301858383011115610dbc57600080fd5b610dc78382846113a9565b50505092915050565b600060608284031215610de257600080fd5b610dec606061123f565b90506000610dfc84828501610d2c565b6000830152506020610e1084828501610d2c565b6020830152506040610e2484828501610d68565b60408301525092915050565b6000610e3c8235611369565b905092915050565b6000610e508251611369565b905092915050565b600060208284031215610e6a57600080fd5b6000610e7884828501610d40565b91505092915050565b60008060408385031215610e9457600080fd5b6000610ea285828601610d18565b9250506020610eb385828601610e30565b9150509250929050565b600060208284031215610ecf57600080fd5b6000610edd84828501610d68565b91505092915050565b60008060008060808587031215610efc57600080fd5b600085013567ffffffffffffffff811115610f1657600080fd5b610f2287828801610d7c565b9450506020610f3387828801610e30565b9350506040610f4487828801610e30565b9250506060610f5587828801610d54565b91505092959194509250565b600060608284031215610f7357600080fd5b6000610f8184828501610dd0565b91505092915050565b600060208284031215610f9c57600080fd5b6000610faa84828501610e30565b91505092915050565b600060208284031215610fc557600080fd5b6000610fd384828501610e44565b91505092915050565b610fe581611373565b82525050565b610ff4816112d1565b82525050565b611003816112bf565b82525050565b611012816112e3565b82525050565b600061102382611298565b61102d81856112a3565b935061103d8185602086016113b8565b80840191505092915050565b6000611056600f836112ae565b91507f5472616e73666572206661696c656400000000000000000000000000000000006000830152602082019050919050565b6000611096600e836112ae565b91507f417070726f7665206661696c65640000000000000000000000000000000000006000830152602082019050919050565b6110d28161130f565b82525050565b60006110e48284611018565b915081905092915050565b60006020820190506111046000830184610fdc565b92915050565b600060208201905061111f6000830184610feb565b92915050565b600060408201905061113a6000830185610fdc565b61114760208301846110c9565b9392505050565b60006040820190506111636000830185610ffa565b6111706020830184610ffa565b9392505050565b600060408201905061118c6000830185610ffa565b61119960208301846110c9565b9392505050565b60006020820190506111b56000830184611009565b92915050565b600060208201905081810360008301526111d481611049565b9050919050565b600060208201905081810360008301526111f481611089565b9050919050565b600060208201905061121060008301846110c9565b92915050565b600060408201905061122b60008301856110c9565b61123860208301846110c9565b9392505050565b6000604051905081810181811067ffffffffffffffff8211171561126257600080fd5b8060405250919050565b600067ffffffffffffffff82111561128357600080fd5b601f19601f8301169050602081019050919050565b600081519050919050565b600081905092915050565b600082825260208201905092915050565b60006112ca826112ef565b9050919050565b60006112dc826112ef565b9050919050565b60008115159050919050565b600073ffffffffffffffffffffffffffffffffffffffff82169050919050565b6000819050919050565b600061132482611349565b9050919050565b600061133682611349565b9050919050565b60008115159050919050565b600073ffffffffffffffffffffffffffffffffffffffff82169050919050565b6000819050919050565b600061137e82611385565b9050919050565b600061139082611397565b9050919050565b60006113a2826112ef565b9050919050565b82818337600083830152505050565b60005b838110156113d65780820151818401526020810190506113bb565b838111156113e5576000848401525b5050505056fea265627a7a7230582098723f34d0d0b891c825f6b3ba2c0860db6a6414e05f6be0650dd8f799bde7fe6c6578706572696d656e74616cf50037",
  "source": "pragma solidity 0.5.7;\r\npragma experimental ABIEncoderV2;\r\n\r\nimport \"../lib/ERC20.sol\";\r\nimport \"../lib/SafeMath.sol\";\r\nimport \"../lib/Math.sol\";\r\nimport \"../lib/Utils.sol\";\r\nimport \"../lib/AllowanceSetter.sol\";\r\nimport \"./ExchangeHandler.sol\";\r\n\r\n\r\ninterface IIEarnToken {\r\n    function deposit(uint256 _amount) external;\r\n\r\n    function withdraw(uint256 _shares) external;\r\n}\r\n\r\n\r\n/// @title Handler for IEarnFinance exchange\r\ncontract IEarnFinanceHandler is ExchangeHandler, AllowanceSetter {\r\n    /*\r\n     *   Types\r\n     */\r\n\r\n    struct OrderData {\r\n        address underlyingToken;\r\n        address iEarnToken;\r\n        bool isRedeem; //True if iEarnToken is source (burn), false if iEarnToken is destination (mint)\r\n    }\r\n\r\n    /*\r\n     *   Internal functions\r\n     */\r\n\r\n    function performOrder(\r\n        bytes memory genericPayload,\r\n        uint256 availableToSpend,\r\n        uint256 targetAmount,\r\n        bool targetAmountIsSource\r\n    )\r\n        public\r\n        payable\r\n        returns (uint256 amountSpentOnOrder, uint256 amountReceivedFromOrder)\r\n    {\r\n        OrderData memory data = abi.decode(genericPayload, (OrderData));\r\n        uint256 maxToSpend = getMaxToSpend(\r\n            targetAmountIsSource,\r\n            targetAmount,\r\n            availableToSpend\r\n        );\r\n        IIEarnToken iEarnToken = IIEarnToken(data.iEarnToken);\r\n        ERC20 token = ERC20(data.underlyingToken);\r\n        if (data.isRedeem) {\r\n            amountSpentOnOrder = maxToSpend;\r\n            iEarnToken.withdraw(maxToSpend);\r\n            amountReceivedFromOrder = token.balanceOf(address(this));\r\n            ERC20SafeTransfer.safeTransfer(\r\n                address(token),\r\n                msg.sender,\r\n                amountReceivedFromOrder\r\n            );\r\n        } else {\r\n            approveAddress(address(iEarnToken), address(token));\r\n            amountSpentOnOrder = maxToSpend;\r\n            iEarnToken.deposit(maxToSpend);\r\n            amountReceivedFromOrder = ERC20(address(iEarnToken)).balanceOf(\r\n                address(this)\r\n            );\r\n            ERC20(address(iEarnToken)).transfer(\r\n                msg.sender,\r\n                amountReceivedFromOrder\r\n            );\r\n        }\r\n\r\n        if (maxToSpend < availableToSpend) {\r\n            if (data.isRedeem) {\r\n                ERC20(address(iEarnToken)).transfer(\r\n                    msg.sender,\r\n                    availableToSpend - maxToSpend\r\n                );\r\n            } else {\r\n                ERC20SafeTransfer.safeTransfer(\r\n                    address(token),\r\n                    msg.sender,\r\n                    availableToSpend - maxToSpend\r\n                );\r\n            }\r\n        }\r\n    }\r\n\r\n    function getMaxToSpend(\r\n        bool targetAmountIsSource,\r\n        uint256 targetAmount,\r\n        uint256 availableToSpend\r\n    ) internal returns (uint256 max) {\r\n        max = availableToSpend;\r\n        if (targetAmountIsSource) {\r\n            max = Math.min(max, targetAmount);\r\n        }\r\n        return max;\r\n    }\r\n\r\n    /// @notice payable fallback to block EOA sending eth\r\n    /// @dev this should fail if an EOA (or contract with 0 bytecode size) tries to send ETH to this contract\r\n    function() external payable {\r\n        // Check in here that the sender is a contract! (to stop accidents)\r\n        uint256 size;\r\n        address sender = msg.sender;\r\n        assembly {\r\n            size := extcodesize(sender)\r\n        }\r\n        require(size > 0);\r\n    }\r\n}\r\n",
  "sourcePath": "C:/Users/jay.sanchez/taisho_dex/contracts/exchange_handlers/IEarnFinanceHandler.sol",
  "compiler": {
    "name": "solc",
    "version": "0.5.7+commit.6da8b019.Emscripten.clang"
  },
  "schemaVersion": "3.3.2",
  "updatedAt": "2021-01-06T03:08:51.261Z",
  "devdoc": {
    "methods": {
      "renounceOwnership()": {
        "details": "Allows the current owner to relinquish control of the contract.\r"
      },
      "transferOwnership(address)": {
        "details": "Allows the current owner to transfer control of the contract to a newOwner.\r",
        "params": {
          "_newOwner": "The address to transfer ownership to.\r"
        }
      },
      "withdrawETH(uint256)": {
        "params": {
          "_amount": "The amount of ether that the caller wants to withdraw"
        }
      },
      "withdrawToken(address,uint256)": {
        "return": "bool value indicating whether the transfer was successful"
      }
    },
    "title": "Handler for IEarnFinance exchange"
  },
  "userdoc": {
    "methods": {
      "renounceOwnership()": {
        "notice": "Renouncing to ownership will leave the contract without an owner.\r It will not be possible to call the functions with the `onlyOwner`\r modifier anymore.\r"
      }
    }
  }
}