{
  "contractName": "KyberHandler",
  "abi": [
    {
      "constant": false,
      "inputs": [],
      "name": "renounceOwnership",
      "outputs": [],
      "payable": false,
      "stateMutability": "nonpayable",
      "type": "function"
    },
    {
      "constant": true,
      "inputs": [],
      "name": "owner",
      "outputs": [
        {
          "name": "",
          "type": "address"
        }
      ],
      "payable": false,
      "stateMutability": "view",
      "type": "function"
    },
    {
      "constant": false,
      "inputs": [
        {
          "name": "_token",
          "type": "address"
        },
        {
          "name": "_amount",
          "type": "uint256"
        }
      ],
      "name": "withdrawToken",
      "outputs": [
        {
          "name": "",
          "type": "bool"
        }
      ],
      "payable": false,
      "stateMutability": "nonpayable",
      "type": "function"
    },
    {
      "constant": true,
      "inputs": [],
      "name": "exchange",
      "outputs": [
        {
          "name": "",
          "type": "address"
        }
      ],
      "payable": false,
      "stateMutability": "view",
      "type": "function"
    },
    {
      "constant": false,
      "inputs": [
        {
          "name": "_amount",
          "type": "uint256"
        }
      ],
      "name": "withdrawETH",
      "outputs": [],
      "payable": false,
      "stateMutability": "nonpayable",
      "type": "function"
    },
    {
      "constant": false,
      "inputs": [
        {
          "name": "_newOwner",
          "type": "address"
        }
      ],
      "name": "transferOwnership",
      "outputs": [],
      "payable": false,
      "stateMutability": "nonpayable",
      "type": "function"
    },
    {
      "inputs": [],
      "payable": false,
      "stateMutability": "nonpayable",
      "type": "constructor"
    },
    {
      "payable": true,
      "stateMutability": "payable",
      "type": "fallback"
    },
    {
      "anonymous": false,
      "inputs": [
        {
          "indexed": true,
          "name": "previousOwner",
          "type": "address"
        }
      ],
      "name": "OwnershipRenounced",
      "type": "event"
    },
    {
      "anonymous": false,
      "inputs": [
        {
          "indexed": true,
          "name": "previousOwner",
          "type": "address"
        },
        {
          "indexed": true,
          "name": "newOwner",
          "type": "address"
        }
      ],
      "name": "OwnershipTransferred",
      "type": "event"
    },
    {
      "constant": true,
      "inputs": [
        {
          "components": [
            {
              "name": "tokenFrom",
              "type": "address"
            },
            {
              "name": "tokenTo",
              "type": "address"
            },
            {
              "name": "maxSpend",
              "type": "uint256"
            },
            {
              "name": "hint",
              "type": "bytes"
            }
          ],
          "name": "data",
          "type": "tuple"
        }
      ],
      "name": "staticExchangeChecks",
      "outputs": [
        {
          "name": "checksPassed",
          "type": "bool"
        }
      ],
      "payable": false,
      "stateMutability": "view",
      "type": "function"
    },
    {
      "constant": false,
      "inputs": [
        {
          "name": "genericPayload",
          "type": "bytes"
        },
        {
          "name": "availableToSpend",
          "type": "uint256"
        },
        {
          "name": "targetAmount",
          "type": "uint256"
        },
        {
          "name": "targetAmountIsSource",
          "type": "bool"
        }
      ],
      "name": "performOrder",
      "outputs": [
        {
          "name": "amountSpentOnOrder",
          "type": "uint256"
        },
        {
          "name": "amountReceivedFromOrder",
          "type": "uint256"
        }
      ],
      "payable": true,
      "stateMutability": "payable",
      "type": "function"
    }
  ],
  "bytecode": "0x608060405273eeeeeeeeeeeeeeeeeeeeeeeeeeeeeeeeeeeeeeee600160006101000a81548173ffffffffffffffffffffffffffffffffffffffff021916908373ffffffffffffffffffffffffffffffffffffffff16021790555034801561006557600080fd5b50336000806101000a81548173ffffffffffffffffffffffffffffffffffffffff021916908373ffffffffffffffffffffffffffffffffffffffff1602179055506119fa806100b56000396000f3fe60806040526004361061007b5760003560e01c80639e281a981161004e5780639e281a981461012d578063d2f7265a1461016a578063f14210a614610195578063f2fde38b146101be5761007b565b80630345c2a61461007d57806342fd2e09146100ae578063715018a6146100eb5780638da5cb5b14610102575b005b610097600480360361009291908101906112ed565b6101e7565b6040516100a5929190611738565b60405180910390f35b3480156100ba57600080fd5b506100d560048036036100d091908101906113a9565b6105de565b6040516100e2919061163d565b60405180910390f35b3480156100f757600080fd5b50610100610681565b005b34801561010e57600080fd5b50610117610781565b60405161012491906115d0565b60405180910390f35b34801561013957600080fd5b50610154600480360361014f91908101906112b1565b6107a6565b604051610161919061163d565b60405180910390f35b34801561017657600080fd5b5061017f610835565b60405161018c91906116dd565b60405180910390f35b3480156101a157600080fd5b506101bc60048036036101b791908101906113ea565b61084d565b005b3480156101ca57600080fd5b506101e560048036036101e09190810190611288565b610911565b005b6000806101f2610fa8565b868060200190516102069190810190611368565b905060006102178260000151610976565b9050610222826105de565b6102c35761022e610a63565b73ffffffffffffffffffffffffffffffffffffffff16826000015173ffffffffffffffffffffffffffffffffffffffff1614156102b1573373ffffffffffffffffffffffffffffffffffffffff166108fc349081150290604051600060405180830381858888f193505050501580156102ab573d6000803e3d6000fd5b506102c2565b6102c082600001513389610a6b565b505b5b6102e5739aab3f75489902f3a48495025729a0af77d4b11e8360000151610bba565b600061030a61030089886102f9578a6102fb565b895b610c03565b8460400151610c03565b9050739aab3f75489902f3a48495025729a0af77d4b11e73ffffffffffffffffffffffffffffffffffffffff166329589f61610344610a63565b73ffffffffffffffffffffffffffffffffffffffff16856000015173ffffffffffffffffffffffffffffffffffffffff1614610381576000610383565b825b61038b610a63565b73ffffffffffffffffffffffffffffffffffffffff16866000015173ffffffffffffffffffffffffffffffffffffffff16146103cb5785600001516103ef565b600160009054906101000a900473ffffffffffffffffffffffffffffffffffffffff165b846103f8610a63565b73ffffffffffffffffffffffffffffffffffffffff16886020015173ffffffffffffffffffffffffffffffffffffffff161461043857876020015161045c565b600160009054906101000a900473ffffffffffffffffffffffffffffffffffffffff165b338c610468578d610471565b610470610c1c565b5b600173583d03451406d179182efc742a1d811a9e34c36b8c606001516040518a63ffffffff1660e01b81526004016104b0989796959493929190611658565b6020604051808303818588803b1580156104c957600080fd5b505af11580156104dd573d6000803e3d6000fd5b50505050506040513d601f19601f820116820180604052506105029190810190611413565b935060006105138460000151610976565b90508083039550888610156105d15761052a610a63565b73ffffffffffffffffffffffffffffffffffffffff16846000015173ffffffffffffffffffffffffffffffffffffffff1614156105b6573373ffffffffffffffffffffffffffffffffffffffff166108fc6105858b89610c44565b9081150290604051600060405180830381858888f193505050501580156105b0573d6000803e3d6000fd5b506105d0565b6105ce8460000151336105c98c8a610c44565b610a6b565b505b5b5050505094509492505050565b600080739aab3f75489902f3a48495025729a0af77d4b11e73ffffffffffffffffffffffffffffffffffffffff16633de39c116040518163ffffffff1660e01b815260040160206040518083038186803b15801561063b57600080fd5b505afa15801561064f573d6000803e3d6000fd5b505050506040513d601f19601f820116820180604052506106739190810190611413565b90503a811015915050919050565b6000809054906101000a900473ffffffffffffffffffffffffffffffffffffffff1673ffffffffffffffffffffffffffffffffffffffff163373ffffffffffffffffffffffffffffffffffffffff16146106da57600080fd5b6000809054906101000a900473ffffffffffffffffffffffffffffffffffffffff1673ffffffffffffffffffffffffffffffffffffffff167ff8df31144d9c2f0f6b59d69b8b98abd5459d07f2742c4df920b25aae33c6482060405160405180910390a260008060006101000a81548173ffffffffffffffffffffffffffffffffffffffff021916908373ffffffffffffffffffffffffffffffffffffffff160217905550565b6000809054906101000a900473ffffffffffffffffffffffffffffffffffffffff1681565b60008060009054906101000a900473ffffffffffffffffffffffffffffffffffffffff1673ffffffffffffffffffffffffffffffffffffffff163373ffffffffffffffffffffffffffffffffffffffff161461080157600080fd5b61082d836000809054906101000a900473ffffffffffffffffffffffffffffffffffffffff1684610a6b565b905092915050565b739aab3f75489902f3a48495025729a0af77d4b11e81565b6000809054906101000a900473ffffffffffffffffffffffffffffffffffffffff1673ffffffffffffffffffffffffffffffffffffffff163373ffffffffffffffffffffffffffffffffffffffff16146108a657600080fd5b6000809054906101000a900473ffffffffffffffffffffffffffffffffffffffff1673ffffffffffffffffffffffffffffffffffffffff166108fc829081150290604051600060405180830381858888f1935050505015801561090d573d6000803e3d6000fd5b5050565b6000809054906101000a900473ffffffffffffffffffffffffffffffffffffffff1673ffffffffffffffffffffffffffffffffffffffff163373ffffffffffffffffffffffffffffffffffffffff161461096a57600080fd5b61097381610c64565b50565b6000610980610a63565b73ffffffffffffffffffffffffffffffffffffffff168273ffffffffffffffffffffffffffffffffffffffff1614156109d2573073ffffffffffffffffffffffffffffffffffffffff16319050610a5e565b8173ffffffffffffffffffffffffffffffffffffffff166370a08231306040518263ffffffff1660e01b8152600401610a0b91906115b5565b60206040518083038186803b158015610a2357600080fd5b505afa158015610a37573d6000803e3d6000fd5b505050506040513d601f19601f82011682018060405250610a5b9190810190611413565b90505b919050565b600080905090565b60008373ffffffffffffffffffffffffffffffffffffffff168383604051602401610a97929190611614565b6040516020818303038152906040527fa9059cbb000000000000000000000000000000000000000000000000000000007bffffffffffffffffffffffffffffffffffffffffffffffffffffffff19166020820180517bffffffffffffffffffffffffffffffffffffffffffffffffffffffff8381831617835250505050604051610b21919061159e565b6000604051808303816000865af19150503d8060008114610b5e576040519150601f19603f3d011682016040523d82523d6000602084013e610b63565b606091505b50508091505080610ba9576040517f08c379a0000000000000000000000000000000000000000000000000000000008152600401610ba0906116f8565b60405180910390fd5b610bb1610d5c565b90509392505050565b610bc2610a63565b73ffffffffffffffffffffffffffffffffffffffff168173ffffffffffffffffffffffffffffffffffffffff1614610bff57610bfe8282610d8d565b5b5050565b6000818310610c125781610c14565b825b905092915050565b60007fffffffffffffffffffffffffffffffffffffffffffffffffffffffffffffffff905090565b600082821115610c5357600080fd5b600082840390508091505092915050565b600073ffffffffffffffffffffffffffffffffffffffff168173ffffffffffffffffffffffffffffffffffffffff161415610c9e57600080fd5b8073ffffffffffffffffffffffffffffffffffffffff166000809054906101000a900473ffffffffffffffffffffffffffffffffffffffff1673ffffffffffffffffffffffffffffffffffffffff167f8be0079c531659141344cd1fd0a4f28419497f9722a3daafe3b4186f6b6457e060405160405180910390a3806000806101000a81548173ffffffffffffffffffffffffffffffffffffffff021916908373ffffffffffffffffffffffffffffffffffffffff16021790555050565b60003d60008114610d745760208114610d7d57600080fd5b60019150610d89565b60206000803e60005191505b5090565b60008173ffffffffffffffffffffffffffffffffffffffff1663dd62ed3e30856040518363ffffffff1660e01b8152600401610dca9291906115eb565b60206040518083038186803b158015610de257600080fd5b505afa158015610df6573d6000803e3d6000fd5b505050506040513d601f19601f82011682018060405250610e1a9190810190611413565b1415610e5557610e4b81837fffffffffffffffffffffffffffffffffffffffffffffffffffffffffffffffff610e59565b610e5457600080fd5b5b5050565b60008373ffffffffffffffffffffffffffffffffffffffff168383604051602401610e85929190611614565b6040516020818303038152906040527f095ea7b3000000000000000000000000000000000000000000000000000000007bffffffffffffffffffffffffffffffffffffffffffffffffffffffff19166020820180517bffffffffffffffffffffffffffffffffffffffffffffffffffffffff8381831617835250505050604051610f0f919061159e565b6000604051808303816000865af19150503d8060008114610f4c576040519150601f19603f3d011682016040523d82523d6000602084013e610f51565b606091505b50508091505080610f97576040517f08c379a0000000000000000000000000000000000000000000000000000000008152600401610f8e90611718565b60405180910390fd5b610f9f610d5c565b90509392505050565b6040518060800160405280600073ffffffffffffffffffffffffffffffffffffffff168152602001600073ffffffffffffffffffffffffffffffffffffffff16815260200160008152602001606081525090565b60006110088235611883565b905092915050565b600061101c8251611883565b905092915050565b60006110308235611895565b905092915050565b600061104482356118a7565b905092915050565b600082601f83011261105d57600080fd5b813561107061106b8261178e565b611761565b9150808252602083016020830185838301111561108c57600080fd5b61109783828461196d565b50505092915050565b600082601f8301126110b157600080fd5b81516110c46110bf8261178e565b611761565b915080825260208301602083018583830111156110e057600080fd5b6110eb83828461197c565b50505092915050565b600082601f83011261110557600080fd5b8135611118611113826117ba565b611761565b9150808252602083016020830185838301111561113457600080fd5b61113f83828461196d565b50505092915050565b60006080828403121561115a57600080fd5b6111646080611761565b9050600061117484828501611010565b600083015250602061118884828501611010565b602083015250604061119c84828501611274565b604083015250606082015167ffffffffffffffff8111156111bc57600080fd5b6111c8848285016110a0565b60608301525092915050565b6000608082840312156111e657600080fd5b6111f06080611761565b9050600061120084828501610ffc565b600083015250602061121484828501610ffc565b602083015250604061122884828501611260565b604083015250606082013567ffffffffffffffff81111561124857600080fd5b6112548482850161104c565b60608301525092915050565b600061126c82356118d3565b905092915050565b600061128082516118d3565b905092915050565b60006020828403121561129a57600080fd5b60006112a884828501611024565b91505092915050565b600080604083850312156112c457600080fd5b60006112d285828601610ffc565b92505060206112e385828601611260565b9150509250929050565b6000806000806080858703121561130357600080fd5b600085013567ffffffffffffffff81111561131d57600080fd5b611329878288016110f4565b945050602061133a87828801611260565b935050604061134b87828801611260565b925050606061135c87828801611038565b91505092959194509250565b60006020828403121561137a57600080fd5b600082015167ffffffffffffffff81111561139457600080fd5b6113a084828501611148565b91505092915050565b6000602082840312156113bb57600080fd5b600082013567ffffffffffffffff8111156113d557600080fd5b6113e1848285016111d4565b91505092915050565b6000602082840312156113fc57600080fd5b600061140a84828501611260565b91505092915050565b60006020828403121561142557600080fd5b600061143384828501611274565b91505092915050565b611445816118dd565b82525050565b6114548161183b565b82525050565b61146381611829565b82525050565b6114728161184d565b82525050565b6000611483826117f1565b61148d818561180d565b935061149d81856020860161197c565b80840191505092915050565b60006114b4826117e6565b6114be81856117fc565b93506114ce81856020860161197c565b6114d7816119af565b840191505092915050565b6114eb816118ef565b82525050565b6114fa81611913565b82525050565b61150981611937565b82525050565b600061151c600f83611818565b91507f5472616e73666572206661696c656400000000000000000000000000000000006000830152602082019050919050565b600061155c600e83611818565b91507f417070726f7665206661696c65640000000000000000000000000000000000006000830152602082019050919050565b61159881611879565b82525050565b60006115aa8284611478565b915081905092915050565b60006020820190506115ca600083018461143c565b92915050565b60006020820190506115e5600083018461144b565b92915050565b6000604082019050611600600083018561145a565b61160d602083018461145a565b9392505050565b6000604082019050611629600083018561145a565b611636602083018461158f565b9392505050565b60006020820190506116526000830184611469565b92915050565b60006101008201905061166e600083018b6114e2565b61167b602083018a61158f565b61168860408301896114e2565b611695606083018861143c565b6116a2608083018761158f565b6116af60a0830186611500565b6116bc60c083018561143c565b81810360e08301526116ce81846114a9565b90509998505050505050505050565b60006020820190506116f260008301846114f1565b92915050565b600060208201905081810360008301526117118161150f565b9050919050565b600060208201905081810360008301526117318161154f565b9050919050565b600060408201905061174d600083018561158f565b61175a602083018461158f565b9392505050565b6000604051905081810181811067ffffffffffffffff8211171561178457600080fd5b8060405250919050565b600067ffffffffffffffff8211156117a557600080fd5b601f19601f8301169050602081019050919050565b600067ffffffffffffffff8211156117d157600080fd5b601f19601f8301169050602081019050919050565b600081519050919050565b600081519050919050565b600082825260208201905092915050565b600081905092915050565b600082825260208201905092915050565b600061183482611859565b9050919050565b600061184682611859565b9050919050565b60008115159050919050565b600073ffffffffffffffffffffffffffffffffffffffff82169050919050565b6000819050919050565b600061188e826118b3565b9050919050565b60006118a0826118b3565b9050919050565b60008115159050919050565b600073ffffffffffffffffffffffffffffffffffffffff82169050919050565b6000819050919050565b60006118e882611949565b9050919050565b60006118fa82611901565b9050919050565b600061190c82611859565b9050919050565b600061191e82611925565b9050919050565b600061193082611859565b9050919050565b600061194282611879565b9050919050565b60006119548261195b565b9050919050565b600061196682611859565b9050919050565b82818337600083830152505050565b60005b8381101561199a57808201518184015260208101905061197f565b838111156119a9576000848401525b50505050565b6000601f19601f830116905091905056fea265627a7a72305820267f2539676f27fcc4049514696b05f53287377321e9de3a31a7b98bb457ae766c6578706572696d656e74616cf50037",
  "source": "pragma solidity 0.5.7;\r\npragma experimental ABIEncoderV2;\r\n\r\nimport \"../lib/ERC20.sol\";\r\nimport \"../lib/SafeMath.sol\";\r\nimport \"../lib/Math.sol\";\r\nimport \"../lib/Utils.sol\";\r\nimport \"../lib/AllowanceSetter.sol\";\r\nimport \"./ExchangeHandler.sol\";\r\n\r\ninterface Kyber {\r\n    function tradeWithHint(\r\n        ERC20 src,\r\n        uint256 srcAmount,\r\n        ERC20 dest,\r\n        address destAddress,\r\n        uint256 maxDestAmount,\r\n        uint256 minConversionRate,\r\n        address walletId,\r\n        bytes calldata hint\r\n    ) external payable returns (uint256);\r\n    function maxGasPrice() external view returns(uint);\r\n\r\n    function trade(\r\n        ERC20 src,\r\n        uint256 srcAmount,\r\n        ERC20 dest,\r\n        address destAddress,\r\n        uint256 maxDestAmount,\r\n        uint256 minConversionRate,\r\n        address walletId\r\n    ) external payable returns (uint256);\r\n}\r\n\r\n/// @title Interface for all exchange handler contracts\r\ncontract KyberHandler is ExchangeHandler, AllowanceSetter {\r\n    /*\r\n     *   State Variables\r\n     */\r\n    Kyber public constant exchange = Kyber(\r\n        0x9AAb3f75489902f3a48495025729a0AF77d4b11e\r\n        //address from Ganache Truffle migrated \r\n        \r\n    );\r\n    address ETH_TOKEN_ADDRESS = 0xEeeeeEeeeEeEeeEeEeEeeEEEeeeeEeeeeeeeEEeE;\r\n    /*\r\n     *   Types\r\n     */\r\n\r\n    struct OrderData {\r\n        address tokenFrom;\r\n        address tokenTo;\r\n        uint256 maxSpend;\r\n        bytes hint;\r\n    }\r\n\r\n    /// @notice Constructor\r\n    constructor() public {}\r\n\r\n    /*\r\n     *   Internal functions\r\n     */\r\n\r\n    /// @notice Perform exchange-specific checks on the given order\r\n    /// @dev This should be called to check for payload errors\r\n    /// @param data OrderData struct containing order values\r\n    /// @return checksPassed value representing pass or fail\r\n    function staticExchangeChecks(OrderData memory data)\r\n        public\r\n        view\r\n        returns (bool checksPassed)\r\n    {\r\n        uint256 maxGasPrice = exchange.maxGasPrice();\r\n\r\n        return (maxGasPrice >= tx.gasprice);\r\n    }\r\n\r\n    function performOrder(\r\n        bytes memory genericPayload,\r\n        uint256 availableToSpend,\r\n        uint256 targetAmount,\r\n        bool targetAmountIsSource\r\n    )\r\n        public\r\n        payable\r\n        returns (uint256 amountSpentOnOrder, uint256 amountReceivedFromOrder)\r\n    {\r\n        OrderData memory data = abi.decode(genericPayload, (OrderData));\r\n        uint256 originalBalance = getBalance(data.tokenFrom);\r\n        if (!staticExchangeChecks(data)) {\r\n            if (data.tokenFrom == Utils.eth_address()) {\r\n                msg.sender.transfer(msg.value);\r\n            } else {\r\n                ERC20SafeTransfer.safeTransfer(\r\n                    data.tokenFrom,\r\n                    msg.sender,\r\n                    availableToSpend\r\n                );\r\n            }\r\n        }\r\n        approve(address(exchange), data.tokenFrom);\r\n        uint256 amountToSpend = Math.min(\r\n            Math.min(\r\n                availableToSpend,\r\n                targetAmountIsSource ? targetAmount : availableToSpend\r\n            ),\r\n            data.maxSpend\r\n        );\r\n        amountReceivedFromOrder = exchange.tradeWithHint.value(\r\n            data.tokenFrom == Utils.eth_address() ? amountToSpend : 0\r\n        )(\r\n            ERC20(\r\n                data.tokenFrom == Utils.eth_address()\r\n                    ? ETH_TOKEN_ADDRESS\r\n                    : data.tokenFrom\r\n            ),\r\n            amountToSpend,\r\n            ERC20(\r\n                data.tokenTo == Utils.eth_address()\r\n                    ? ETH_TOKEN_ADDRESS\r\n                    : data.tokenTo\r\n            ),\r\n            msg.sender,\r\n            targetAmountIsSource ? Utils.max_uint() : targetAmount,\r\n            1,\r\n            address(0x583d03451406d179182efc742A1d811a9e34C36b),\r\n            data.hint\r\n        );\r\n        uint256 newInputBalance = getBalance(data.tokenFrom);\r\n        amountSpentOnOrder = originalBalance - newInputBalance;\r\n        if (amountSpentOnOrder < availableToSpend) {\r\n            if (data.tokenFrom == Utils.eth_address()) {\r\n                msg.sender.transfer(\r\n                    SafeMath.sub(availableToSpend, amountSpentOnOrder)\r\n                );\r\n            } else {\r\n                ERC20SafeTransfer.safeTransfer(\r\n                    data.tokenFrom,\r\n                    msg.sender,\r\n                    SafeMath.sub(availableToSpend, amountSpentOnOrder)\r\n                );\r\n            }\r\n        }\r\n    }\r\n\r\n    function approve(address spender, address token) internal {\r\n        if (token != Utils.eth_address()) {\r\n            approveAddress(spender, token);\r\n        }\r\n    }\r\n\r\n    function getBalance(address token) internal returns (uint256 balance) {\r\n        if (token == Utils.eth_address()) {\r\n            return address(this).balance;\r\n        } else {\r\n            return ERC20(token).balanceOf(address(this));\r\n        }\r\n    }\r\n\r\n    function transfer(address token, uint256 amount) internal {\r\n        if (token == Utils.eth_address()) {\r\n            msg.sender.transfer(amount);\r\n        } else {\r\n            ERC20SafeTransfer.safeTransfer(token, msg.sender, amount);\r\n        }\r\n    }\r\n\r\n    /// @notice payable fallback to block EOA sending eth\r\n    /// @dev this should fail if an EOA (or contract with 0 bytecode size) tries to send ETH to this contract\r\n    function() external payable {\r\n    }\r\n}\r\n",
  "sourcePath": "C:/Users/jay.sanchez/taisho_dex/contracts/exchange_handlers/KyberHandler.sol",
  "compiler": {
    "name": "solc",
    "version": "0.5.7+commit.6da8b019.Emscripten.clang"
  },
  "schemaVersion": "3.3.2",
  "updatedAt": "2021-01-06T18:39:58.753Z",
  "devdoc": {
    "methods": {
      "renounceOwnership()": {
        "details": "Allows the current owner to relinquish control of the contract.\r"
      },
      "staticExchangeChecks((address,address,uint256,bytes))": {
        "return": "checksPassed value representing pass or fail"
      },
      "transferOwnership(address)": {
        "details": "Allows the current owner to transfer control of the contract to a newOwner.\r",
        "params": {
          "_newOwner": "The address to transfer ownership to.\r"
        }
      },
      "withdrawETH(uint256)": {
        "params": {
          "_amount": "The amount of ether that the caller wants to withdraw"
        }
      },
      "withdrawToken(address,uint256)": {
        "return": "bool value indicating whether the transfer was successful"
      }
    },
    "title": "Interface for all exchange handler contracts"
  },
  "userdoc": {
    "methods": {
      "constructor": "Constructor",
      "renounceOwnership()": {
        "notice": "Renouncing to ownership will leave the contract without an owner.\r It will not be possible to call the functions with the `onlyOwner`\r modifier anymore.\r"
      }
    }
  }
}