{
  "contractName": "LibOrder",
  "abi": [
    {
      "constant": true,
      "inputs": [],
      "name": "EIP712_DOMAIN_HASH",
      "outputs": [
        {
          "name": "",
          "type": "bytes32"
        }
      ],
      "payable": false,
      "stateMutability": "view",
      "type": "function"
    }
  ],
  "bytecode": "0x608060405260405160200180807f454950373132446f6d61696e2800000000000000000000000000000000000000815250600d01807f737472696e67206e616d652c0000000000000000000000000000000000000000815250600c01807f737472696e672076657273696f6e2c0000000000000000000000000000000000815250600f01807f6164647265737320766572696679696e67436f6e747261637400000000000000815250601901807f29000000000000000000000000000000000000000000000000000000000000008152506001019050604051602081830303815290604052805190602001206040518060400160405280600b81526020017f30782050726f746f636f6c000000000000000000000000000000000000000000815250805190602001206040518060400160405280600181526020017f32000000000000000000000000000000000000000000000000000000000000008152508051906020012030604051602001808273ffffffffffffffffffffffffffffffffffffffff1673ffffffffffffffffffffffffffffffffffffffff1660601b81526014019150506040516020818303038152906040526040516020018085815260200184815260200183815260200182805190602001908083835b602083106101fc57805182526020820191506020810190506020830392506101d9565b6001836020036101000a03801982511681845116808217855250505050505090500194505050505060405160208183030381529060405280519060200120600081905550607b8061024e6000396000f3fe6080604052348015600f57600080fd5b506004361060285760003560e01c8063e306f77914602d575b600080fd5b60336049565b6040518082815260200191505060405180910390f35b6000548156fea165627a7a72305820098c0f329d0594adc0af1518030601bf5ef1c818fab710fb41bf3505d82b94dd0029",
  "source": "/*\r\n\r\n  Copyright 2018 ZeroEx Intl.\r\n\r\n  Licensed under the Apache License, Version 2.0 (the \"License\");\r\n  you may not use this file except in compliance with the License.\r\n  You may obtain a copy of the License at\r\n\r\n    http://www.apache.org/licenses/LICENSE-2.0\r\n\r\n  Unless required by applicable law or agreed to in writing, software\r\n  distributed under the License is distributed on an \"AS IS\" BASIS,\r\n  WITHOUT WARRANTIES OR CONDITIONS OF ANY KIND, either express or implied.\r\n  See the License for the specific language governing permissions and\r\n  limitations under the License.\r\n\r\n*/\r\n\r\npragma solidity 0.5.7;\r\nimport \"./LibEIP712.sol\";\r\n\r\n\r\ncontract LibOrder is\r\n    LibEIP712\r\n{\r\n    // Hash for the EIP712 Order Schema\r\n    bytes32 constant internal EIP712_ORDER_SCHEMA_HASH = keccak256(abi.encodePacked(\r\n        \"Order(\",\r\n        \"address makerAddress,\",\r\n        \"address takerAddress,\",\r\n        \"address feeRecipientAddress,\",\r\n        \"address senderAddress,\",\r\n        \"uint256 makerAssetAmount,\",\r\n        \"uint256 takerAssetAmount,\",\r\n        \"uint256 makerFee,\",\r\n        \"uint256 takerFee,\",\r\n        \"uint256 expirationTimeSeconds,\",\r\n        \"uint256 salt,\",\r\n        \"bytes makerAssetData,\",\r\n        \"bytes takerAssetData\",\r\n        \"bytes makerFeeAssetData\",\r\n        \"bytes takerFeeAssetData\",\r\n        \")\"\r\n    ));\r\n\r\n    // A valid order remains fillable until it is expired, fully filled, or cancelled.\r\n    // An order's state is unaffected by external factors, like account balances.\r\n    enum OrderStatus {\r\n        INVALID,                     // Default value\r\n        INVALID_MAKER_ASSET_AMOUNT,  // Order does not have a valid maker asset amount\r\n        INVALID_TAKER_ASSET_AMOUNT,  // Order does not have a valid taker asset amount\r\n        FILLABLE,                    // Order is fillable\r\n        EXPIRED,                     // Order has already expired\r\n        FULLY_FILLED,                // Order is fully filled\r\n        CANCELLED                    // Order has been cancelled\r\n    }\r\n\r\n    // solhint-disable max-line-length\r\n    struct Order {\r\n        address makerAddress;           // Address that created the order.\r\n        address takerAddress;           // Address that is allowed to fill the order. If set to 0, any address is allowed to fill the order.\r\n        address feeRecipientAddress;    // Address that will recieve fees when order is filled.\r\n        address senderAddress;          // Address that is allowed to call Exchange contract methods that affect this order. If set to 0, any address is allowed to call these methods.\r\n        uint256 makerAssetAmount;       // Amount of makerAsset being offered by maker. Must be greater than 0.\r\n        uint256 takerAssetAmount;       // Amount of takerAsset being bid on by maker. Must be greater than 0.\r\n        uint256 makerFee;               // Amount of ZRX paid to feeRecipient by maker when order is filled. If set to 0, no transfer of ZRX from maker to feeRecipient will be attempted.\r\n        uint256 takerFee;               // Amount of ZRX paid to feeRecipient by taker when order is filled. If set to 0, no transfer of ZRX from taker to feeRecipient will be attempted.\r\n        uint256 expirationTimeSeconds;  // Timestamp in seconds at which order expires.\r\n        uint256 salt;                   // Arbitrary number to facilitate uniqueness of the order's hash.\r\n        bytes makerAssetData;           // Encoded data that can be decoded by a specified proxy contract when transferring makerAsset. The last byte references the id of this proxy.\r\n        bytes takerAssetData;           // Encoded data that can be decoded by a specified proxy contract when transferring takerAsset. The last byte references the id of this proxy.\r\n        bytes makerFeeAssetData;        // Encoded data that represents data for the maker fee asset\r\n        bytes takerFeeAssetData;        // Encoded data that represents data for the taker fee asset\r\n    }\r\n    // solhint-enable max-line-length\r\n\r\n    struct OrderInfo {\r\n        uint8 orderStatus;                    // Status that describes order's validity and fillability.\r\n        bytes32 orderHash;                    // EIP712 hash of the order (see LibOrder.getOrderHash).\r\n        uint256 orderTakerAssetFilledAmount;  // Amount of order that has already been filled.\r\n    }\r\n\r\n    /// @dev Calculates Keccak-256 hash of the order.\r\n    /// @param order The order structure.\r\n    /// @return Keccak-256 EIP712 hash of the order.\r\n    function getOrderHash(Order memory order)\r\n        internal\r\n        view\r\n        returns (bytes32 orderHash)\r\n    {\r\n        orderHash = hashEIP712Message(hashOrder(order));\r\n        return orderHash;\r\n    }\r\n\r\n    /// @dev Calculates EIP712 hash of the order.\r\n    /// @param order The order structure.\r\n    /// @return EIP712 hash of the order.\r\n    function hashOrder(Order memory order)\r\n        internal\r\n        pure\r\n        returns (bytes32 result)\r\n    {\r\n        bytes32 schemaHash = EIP712_ORDER_SCHEMA_HASH;\r\n        bytes32 makerAssetDataHash = keccak256(order.makerAssetData);\r\n        bytes32 takerAssetDataHash = keccak256(order.takerAssetData);\r\n\r\n        // Assembly for more efficiently computing:\r\n        // keccak256(abi.encodePacked(\r\n        //     EIP712_ORDER_SCHEMA_HASH,\r\n        //     bytes32(order.makerAddress),\r\n        //     bytes32(order.takerAddress),\r\n        //     bytes32(order.feeRecipientAddress),\r\n        //     bytes32(order.senderAddress),\r\n        //     order.makerAssetAmount,\r\n        //     order.takerAssetAmount,\r\n        //     order.makerFee,\r\n        //     order.takerFee,\r\n        //     order.expirationTimeSeconds,\r\n        //     order.salt,\r\n        //     keccak256(order.makerAssetData),\r\n        //     keccak256(order.takerAssetData)\r\n        // ));\r\n\r\n        assembly {\r\n            // Calculate memory addresses that will be swapped out before hashing\r\n            let pos1 := sub(order, 32)\r\n            let pos2 := add(order, 320)\r\n            let pos3 := add(order, 352)\r\n\r\n            // Backup\r\n            let temp1 := mload(pos1)\r\n            let temp2 := mload(pos2)\r\n            let temp3 := mload(pos3)\r\n\r\n            // Hash in place\r\n            mstore(pos1, schemaHash)\r\n            mstore(pos2, makerAssetDataHash)\r\n            mstore(pos3, takerAssetDataHash)\r\n            result := keccak256(pos1, 416)\r\n\r\n            // Restore\r\n            mstore(pos1, temp1)\r\n            mstore(pos2, temp2)\r\n            mstore(pos3, temp3)\r\n        }\r\n        return result;\r\n    }\r\n}\r\n",
  "sourcePath": "C:\\Users\\jay.sanchez\\taisho_dex\\contracts\\exchange_handlers\\interfaces\\zeroex\\LibOrderV3.sol",
  "compiler": {
    "name": "solc",
    "version": "0.5.7+commit.6da8b019.Emscripten.clang"
  },
  "schemaVersion": "3.3.2",
  "updatedAt": "2021-01-06T03:22:15.578Z",
  "devdoc": {
    "methods": {}
  },
  "userdoc": {
    "methods": {}
  }
}