{
  "contractName": "Logger",
  "abi": [
    {
      "constant": true,
      "inputs": [
        {
          "name": "message",
          "type": "string"
        },
        {
          "name": "arg2",
          "type": "uint256"
        },
        {
          "name": "arg3",
          "type": "uint256"
        },
        {
          "name": "arg4",
          "type": "uint256"
        },
        {
          "name": "arg5",
          "type": "uint256"
        }
      ],
      "name": "log",
      "outputs": [],
      "payable": false,
      "stateMutability": "pure",
      "type": "function"
    },
    {
      "constant": true,
      "inputs": [
        {
          "name": "message",
          "type": "string"
        },
        {
          "name": "arg2",
          "type": "uint256"
        },
        {
          "name": "arg3",
          "type": "uint256"
        },
        {
          "name": "arg4",
          "type": "uint256"
        },
        {
          "name": "arg5",
          "type": "uint256"
        },
        {
          "name": "arg6",
          "type": "address"
        }
      ],
      "name": "log",
      "outputs": [],
      "payable": false,
      "stateMutability": "pure",
      "type": "function"
    },
    {
      "constant": true,
      "inputs": [
        {
          "name": "message",
          "type": "string"
        }
      ],
      "name": "log",
      "outputs": [],
      "payable": false,
      "stateMutability": "pure",
      "type": "function"
    },
    {
      "constant": true,
      "inputs": [
        {
          "name": "message",
          "type": "string"
        },
        {
          "name": "arg2",
          "type": "uint256"
        },
        {
          "name": "arg3",
          "type": "uint256"
        },
        {
          "name": "arg4",
          "type": "uint256"
        },
        {
          "name": "arg5",
          "type": "uint256"
        },
        {
          "name": "arg6",
          "type": "address"
        },
        {
          "name": "arg7",
          "type": "address"
        },
        {
          "name": "arg8",
          "type": "address"
        },
        {
          "name": "arg9",
          "type": "address"
        }
      ],
      "name": "log",
      "outputs": [],
      "payable": false,
      "stateMutability": "pure",
      "type": "function"
    },
    {
      "constant": true,
      "inputs": [
        {
          "name": "message",
          "type": "string"
        },
        {
          "name": "arg2",
          "type": "uint256"
        },
        {
          "name": "arg3",
          "type": "uint256"
        },
        {
          "name": "arg4",
          "type": "uint256"
        }
      ],
      "name": "log",
      "outputs": [],
      "payable": false,
      "stateMutability": "pure",
      "type": "function"
    },
    {
      "constant": true,
      "inputs": [
        {
          "name": "message",
          "type": "string"
        },
        {
          "name": "arg2",
          "type": "uint256"
        },
        {
          "name": "arg3",
          "type": "uint256"
        },
        {
          "name": "arg4",
          "type": "uint256"
        },
        {
          "name": "arg5",
          "type": "uint256"
        },
        {
          "name": "arg6",
          "type": "address"
        },
        {
          "name": "arg7",
          "type": "address"
        }
      ],
      "name": "log",
      "outputs": [],
      "payable": false,
      "stateMutability": "pure",
      "type": "function"
    },
    {
      "constant": true,
      "inputs": [
        {
          "name": "message",
          "type": "string"
        },
        {
          "name": "arg2",
          "type": "uint256"
        }
      ],
      "name": "log",
      "outputs": [],
      "payable": false,
      "stateMutability": "pure",
      "type": "function"
    },
    {
      "constant": true,
      "inputs": [
        {
          "name": "message",
          "type": "string"
        },
        {
          "name": "arg2",
          "type": "uint256"
        },
        {
          "name": "arg3",
          "type": "uint256"
        }
      ],
      "name": "log",
      "outputs": [],
      "payable": false,
      "stateMutability": "pure",
      "type": "function"
    },
    {
      "constant": true,
      "inputs": [
        {
          "name": "message",
          "type": "string"
        },
        {
          "name": "arg2",
          "type": "uint256"
        },
        {
          "name": "arg3",
          "type": "uint256"
        },
        {
          "name": "arg4",
          "type": "uint256"
        },
        {
          "name": "arg5",
          "type": "uint256"
        },
        {
          "name": "arg6",
          "type": "address"
        },
        {
          "name": "arg7",
          "type": "address"
        },
        {
          "name": "arg8",
          "type": "address"
        }
      ],
      "name": "log",
      "outputs": [],
      "payable": false,
      "stateMutability": "pure",
      "type": "function"
    }
  ],
  "bytecode": "0x608060405234801561001057600080fd5b506109dc806100206000396000f3fe608060405234801561001057600080fd5b50600436106100935760003560e01c8063a7a8785311610066578063a7a878531461049d578063ae8ac40014610576578063b60e72cc14610699578063ca47c4eb1461075e578063f633148f1461082d57610093565b80631cbc6e751461009857806340a570201461017b57806341304fac1461027e5780639eff978d14610339575b600080fd5b610179600480360360a08110156100ae57600080fd5b81019080803590602001906401000000008111156100cb57600080fd5b8201836020820111156100dd57600080fd5b803590602001918460018302840111640100000000831117156100ff57600080fd5b91908080601f016020809104026020016040519081016040528093929190818152602001838380828437600081840152601f19601f82011690508083019250505050505050919291929080359060200190929190803590602001909291908035906020019092919080359060200190929190505050610971565b005b61027c600480360360c081101561019157600080fd5b81019080803590602001906401000000008111156101ae57600080fd5b8201836020820111156101c057600080fd5b803590602001918460018302840111640100000000831117156101e257600080fd5b91908080601f016020809104026020016040519081016040528093929190818152602001838380828437600081840152601f19601f82011690508083019250505050505050919291929080359060200190929190803590602001909291908035906020019092919080359060200190929190803573ffffffffffffffffffffffffffffffffffffffff169060200190929190505050610978565b005b6103376004803603602081101561029457600080fd5b81019080803590602001906401000000008111156102b157600080fd5b8201836020820111156102c357600080fd5b803590602001918460018302840111640100000000831117156102e557600080fd5b91908080601f016020809104026020016040519081016040528093929190818152602001838380828437600081840152601f19601f820116905080830192505050505050509192919290505050610980565b005b61049b600480360361012081101561035057600080fd5b810190808035906020019064010000000081111561036d57600080fd5b82018360208201111561037f57600080fd5b803590602001918460018302840111640100000000831117156103a157600080fd5b91908080601f016020809104026020016040519081016040528093929190818152602001838380828437600081840152601f19601f82011690508083019250505050505050919291929080359060200190929190803590602001909291908035906020019092919080359060200190929190803573ffffffffffffffffffffffffffffffffffffffff169060200190929190803573ffffffffffffffffffffffffffffffffffffffff169060200190929190803573ffffffffffffffffffffffffffffffffffffffff169060200190929190803573ffffffffffffffffffffffffffffffffffffffff169060200190929190505050610983565b005b610574600480360360808110156104b357600080fd5b81019080803590602001906401000000008111156104d057600080fd5b8201836020820111156104e257600080fd5b8035906020019184600183028401116401000000008311171561050457600080fd5b91908080601f016020809104026020016040519081016040528093929190818152602001838380828437600081840152601f19601f82011690508083019250505050505050919291929080359060200190929190803590602001909291908035906020019092919050505061098e565b005b610697600480360360e081101561058c57600080fd5b81019080803590602001906401000000008111156105a957600080fd5b8201836020820111156105bb57600080fd5b803590602001918460018302840111640100000000831117156105dd57600080fd5b91908080601f016020809104026020016040519081016040528093929190818152602001838380828437600081840152601f19601f82011690508083019250505050505050919291929080359060200190929190803590602001909291908035906020019092919080359060200190929190803573ffffffffffffffffffffffffffffffffffffffff169060200190929190803573ffffffffffffffffffffffffffffffffffffffff169060200190929190505050610994565b005b61075c600480360360408110156106af57600080fd5b81019080803590602001906401000000008111156106cc57600080fd5b8201836020820111156106de57600080fd5b8035906020019184600183028401116401000000008311171561070057600080fd5b91908080601f016020809104026020016040519081016040528093929190818152602001838380828437600081840152601f19601f8201169050808301925050505050505091929192908035906020019092919050505061099d565b005b61082b6004803603606081101561077457600080fd5b810190808035906020019064010000000081111561079157600080fd5b8201836020820111156107a357600080fd5b803590602001918460018302840111640100000000831117156107c557600080fd5b91908080601f016020809104026020016040519081016040528093929190818152602001838380828437600081840152601f19601f82011690508083019250505050505050919291929080359060200190929190803590602001909291905050506109a1565b005b61096f600480360361010081101561084457600080fd5b810190808035906020019064010000000081111561086157600080fd5b82018360208201111561087357600080fd5b8035906020019184600183028401116401000000008311171561089557600080fd5b91908080601f016020809104026020016040519081016040528093929190818152602001838380828437600081840152601f19601f82011690508083019250505050505050919291929080359060200190929190803590602001909291908035906020019092919080359060200190929190803573ffffffffffffffffffffffffffffffffffffffff169060200190929190803573ffffffffffffffffffffffffffffffffffffffff169060200190929190803573ffffffffffffffffffffffffffffffffffffffff1690602001909291905050506109a6565b005b5050505050565b505050505050565b50565b505050505050505050565b50505050565b50505050505050565b5050565b505050565b505050505050505056fea165627a7a723058205b0ac701e1cead47f80122c28feca335b09b5013c317556db9d557399e48e47f0029",
  "source": "pragma solidity 0.5.7;\r\n\r\ncontract Logger {\r\n  function log(\r\n    string memory message\r\n  ) public pure {}\r\n\r\n  function log(\r\n    string memory message,\r\n    uint256 arg2\r\n  ) public pure {}\r\n\r\n  function log(\r\n    string memory message,\r\n    uint256 arg2,\r\n    uint256 arg3\r\n  ) public pure {}\r\n\r\n  function log(\r\n    string memory message,\r\n    uint256 arg2,\r\n    uint256 arg3,\r\n    uint256 arg4\r\n  ) public pure {}\r\n\r\n  function log(\r\n    string memory message,\r\n    uint256 arg2,\r\n    uint256 arg3,\r\n    uint256 arg4,\r\n    uint256 arg5\r\n  ) public pure {}\r\n\r\n  function log(\r\n    string memory message,\r\n    uint256 arg2,\r\n    uint256 arg3,\r\n    uint256 arg4,\r\n    uint256 arg5,\r\n    address arg6\r\n  ) public pure {}\r\n\r\n\r\n  function log(\r\n    string memory message,\r\n    uint256 arg2,\r\n    uint256 arg3,\r\n    uint256 arg4,\r\n    uint256 arg5,\r\n    address arg6,\r\n    address arg7\r\n  ) public pure {}\r\n\r\n\r\n  function log(\r\n    string memory message,\r\n    uint256 arg2,\r\n    uint256 arg3,\r\n    uint256 arg4,\r\n    uint256 arg5,\r\n    address arg6,\r\n    address arg7,\r\n    address arg8\r\n  ) public pure {}\r\n\r\n  function log(\r\n    string memory message,\r\n    uint256 arg2,\r\n    uint256 arg3,\r\n    uint256 arg4,\r\n    uint256 arg5,\r\n    address arg6,\r\n    address arg7,\r\n    address arg8,\r\n    address arg9\r\n  ) public pure {}\r\n}\r\n",
  "sourcePath": "C:/Users/jay.sanchez/taisho_dex/contracts/lib/Logger.sol",
  "compiler": {
    "name": "solc",
    "version": "0.5.7+commit.6da8b019.Emscripten.clang"
  },
  "schemaVersion": "3.3.2",
  "updatedAt": "2021-01-03T00:04:30.497Z",
  "devdoc": {
    "methods": {}
  },
  "userdoc": {
    "methods": {}
  }
}