{
  "contractName": "OasisHandler",
  "abi": [
    {
      "constant": true,
      "inputs": [],
      "name": "weth",
      "outputs": [
        {
          "name": "",
          "type": "address"
        }
      ],
      "payable": false,
      "stateMutability": "view",
      "type": "function"
    },
    {
      "constant": false,
      "inputs": [],
      "name": "renounceOwnership",
      "outputs": [],
      "payable": false,
      "stateMutability": "nonpayable",
      "type": "function"
    },
    {
      "constant": true,
      "inputs": [],
      "name": "owner",
      "outputs": [
        {
          "name": "",
          "type": "address"
        }
      ],
      "payable": false,
      "stateMutability": "view",
      "type": "function"
    },
    {
      "constant": false,
      "inputs": [
        {
          "name": "_token",
          "type": "address"
        },
        {
          "name": "_amount",
          "type": "uint256"
        }
      ],
      "name": "withdrawToken",
      "outputs": [
        {
          "name": "",
          "type": "bool"
        }
      ],
      "payable": false,
      "stateMutability": "nonpayable",
      "type": "function"
    },
    {
      "constant": true,
      "inputs": [],
      "name": "oasis",
      "outputs": [
        {
          "name": "",
          "type": "address"
        }
      ],
      "payable": false,
      "stateMutability": "view",
      "type": "function"
    },
    {
      "constant": false,
      "inputs": [
        {
          "name": "_amount",
          "type": "uint256"
        }
      ],
      "name": "withdrawETH",
      "outputs": [],
      "payable": false,
      "stateMutability": "nonpayable",
      "type": "function"
    },
    {
      "constant": false,
      "inputs": [
        {
          "name": "_newOwner",
          "type": "address"
        }
      ],
      "name": "transferOwnership",
      "outputs": [],
      "payable": false,
      "stateMutability": "nonpayable",
      "type": "function"
    },
    {
      "inputs": [
        {
          "name": "oasisAddress",
          "type": "address"
        },
        {
          "name": "wethAddress",
          "type": "address"
        }
      ],
      "payable": false,
      "stateMutability": "nonpayable",
      "type": "constructor"
    },
    {
      "payable": true,
      "stateMutability": "payable",
      "type": "fallback"
    },
    {
      "anonymous": false,
      "inputs": [
        {
          "indexed": true,
          "name": "previousOwner",
          "type": "address"
        }
      ],
      "name": "OwnershipRenounced",
      "type": "event"
    },
    {
      "anonymous": false,
      "inputs": [
        {
          "indexed": true,
          "name": "previousOwner",
          "type": "address"
        },
        {
          "indexed": true,
          "name": "newOwner",
          "type": "address"
        }
      ],
      "name": "OwnershipTransferred",
      "type": "event"
    },
    {
      "constant": false,
      "inputs": [
        {
          "name": "genericPayload",
          "type": "bytes"
        },
        {
          "name": "availableToSpend",
          "type": "uint256"
        },
        {
          "name": "targetAmount",
          "type": "uint256"
        },
        {
          "name": "targetAmountIsSource",
          "type": "bool"
        }
      ],
      "name": "performOrder",
      "outputs": [
        {
          "name": "amountSpentOnOrder",
          "type": "uint256"
        },
        {
          "name": "amountReceivedFromOrder",
          "type": "uint256"
        }
      ],
      "payable": true,
      "stateMutability": "payable",
      "type": "function"
    },
    {
      "constant": false,
      "inputs": [
        {
          "name": "wethAddress",
          "type": "address"
        }
      ],
      "name": "setWeth",
      "outputs": [],
      "payable": false,
      "stateMutability": "nonpayable",
      "type": "function"
    },
    {
      "constant": false,
      "inputs": [
        {
          "name": "oasisAddress",
          "type": "address"
        }
      ],
      "name": "setOasis",
      "outputs": [],
      "payable": false,
      "stateMutability": "nonpayable",
      "type": "function"
    }
  ],
  "bytecode": "0x60806040523480156200001157600080fd5b5060405160408062001af6833981018060405262000033919081019062000113565b336000806101000a81548173ffffffffffffffffffffffffffffffffffffffff021916908373ffffffffffffffffffffffffffffffffffffffff16021790555081600160006101000a81548173ffffffffffffffffffffffffffffffffffffffff021916908373ffffffffffffffffffffffffffffffffffffffff16021790555080600260006101000a81548173ffffffffffffffffffffffffffffffffffffffff021916908373ffffffffffffffffffffffffffffffffffffffff160217905550505062000188565b60006200010b825162000154565b905092915050565b600080604083850312156200012757600080fd5b60006200013785828601620000fd565b92505060206200014a85828601620000fd565b9150509250929050565b6000620001618262000168565b9050919050565b600073ffffffffffffffffffffffffffffffffffffffff82169050919050565b61195e80620001986000396000f3fe6080604052600436106100915760003560e01c80639e281a98116100595780639e281a981461015a578063a3afda1a14610197578063b8d1452f146101c2578063f14210a6146101eb578063f2fde38b1461021457610091565b80630345c2a6146100935780633fc8cef3146100c4578063715018a6146100ef57806377257f0e146101065780638da5cb5b1461012f575b005b6100ad60048036036100a891908101906113a6565b61023d565b6040516100bb92919061172b565b60405180910390f35b3480156100d057600080fd5b506100d9610888565b6040516100e691906116b5565b60405180910390f35b3480156100fb57600080fd5b506101046108ae565b005b34801561011257600080fd5b5061012d60048036036101289190810190611318565b6109ae565b005b34801561013b57600080fd5b50610144610a4b565b60405161015191906115cd565b60405180910390f35b34801561016657600080fd5b50610181600480360361017c919081019061136a565b610a70565b60405161018e919061167f565b60405180910390f35b3480156101a357600080fd5b506101ac610aff565b6040516101b9919061169a565b60405180910390f35b3480156101ce57600080fd5b506101e960048036036101e49190810190611318565b610b25565b005b3480156101f757600080fd5b50610212600480360361020d919081019061144a565b610bc2565b005b34801561022057600080fd5b5061023b60048036036102369190810190611341565b610c86565b005b60008061024861119f565b8680602001905161025c9190810190611421565b9050600061027761026d8789610ceb565b8360400151610ceb565b905060008114156103325761028a610d04565b73ffffffffffffffffffffffffffffffffffffffff16826000015173ffffffffffffffffffffffffffffffffffffffff16141561030d573373ffffffffffffffffffffffffffffffffffffffff166108fc889081150290604051600060405180830381858888f19350505050158015610307573d6000803e3d6000fd5b5061031e565b61031c82600001513389610d0c565b505b60008081915080905093509350505061087f565b61033a610d04565b73ffffffffffffffffffffffffffffffffffffffff16826000015173ffffffffffffffffffffffffffffffffffffffff1614156103f557600260009054906101000a900473ffffffffffffffffffffffffffffffffffffffff1673ffffffffffffffffffffffffffffffffffffffff1663d0e30db0886040518263ffffffff1660e01b81526004016000604051808303818588803b1580156103db57600080fd5b505af11580156103ef573d6000803e3d6000fd5b50505050505b61048c600160009054906101000a900473ffffffffffffffffffffffffffffffffffffffff16610423610d04565b73ffffffffffffffffffffffffffffffffffffffff16846000015173ffffffffffffffffffffffffffffffffffffffff1614610463578360000151610487565b600260009054906101000a900473ffffffffffffffffffffffffffffffffffffffff165b610e5b565b809350600160009054906101000a900473ffffffffffffffffffffffffffffffffffffffff1673ffffffffffffffffffffffffffffffffffffffff16630621b4f66104d5610d04565b73ffffffffffffffffffffffffffffffffffffffff16846000015173ffffffffffffffffffffffffffffffffffffffff1614610515578360000151610539565b600260009054906101000a900473ffffffffffffffffffffffffffffffffffffffff165b83610542610d04565b73ffffffffffffffffffffffffffffffffffffffff16866020015173ffffffffffffffffffffffffffffffffffffffff16146105825785602001516105a6565b600260009054906101000a900473ffffffffffffffffffffffffffffffffffffffff165b60016040518563ffffffff1660e01b81526004016105c7949392919061163a565b602060405180830381600087803b1580156105e157600080fd5b505af11580156105f5573d6000803e3d6000fd5b505050506040513d601f19601f820116820180604052506106199190810190611473565b9250868410156107535761062b610d04565b73ffffffffffffffffffffffffffffffffffffffff16826000015173ffffffffffffffffffffffffffffffffffffffff16141561073f57600260009054906101000a900473ffffffffffffffffffffffffffffffffffffffff1673ffffffffffffffffffffffffffffffffffffffff16632e1a7d4d8589036040518263ffffffff1660e01b81526004016106bf9190611710565b600060405180830381600087803b1580156106d957600080fd5b505af11580156106ed573d6000803e3d6000fd5b505050503373ffffffffffffffffffffffffffffffffffffffff166108fc8589039081150290604051600060405180830381858888f19350505050158015610739573d6000803e3d6000fd5b50610752565b610750826000015133868a03610d0c565b505b5b61075b610d04565b73ffffffffffffffffffffffffffffffffffffffff16826020015173ffffffffffffffffffffffffffffffffffffffff16141561086b57600260009054906101000a900473ffffffffffffffffffffffffffffffffffffffff1673ffffffffffffffffffffffffffffffffffffffff16632e1a7d4d846040518263ffffffff1660e01b81526004016107ed9190611710565b600060405180830381600087803b15801561080757600080fd5b505af115801561081b573d6000803e3d6000fd5b505050503373ffffffffffffffffffffffffffffffffffffffff166108fc849081150290604051600060405180830381858888f19350505050158015610865573d6000803e3d6000fd5b5061087c565b61087a82602001513385610d0c565b505b50505b94509492505050565b600260009054906101000a900473ffffffffffffffffffffffffffffffffffffffff1681565b6000809054906101000a900473ffffffffffffffffffffffffffffffffffffffff1673ffffffffffffffffffffffffffffffffffffffff163373ffffffffffffffffffffffffffffffffffffffff161461090757600080fd5b6000809054906101000a900473ffffffffffffffffffffffffffffffffffffffff1673ffffffffffffffffffffffffffffffffffffffff167ff8df31144d9c2f0f6b59d69b8b98abd5459d07f2742c4df920b25aae33c6482060405160405180910390a260008060006101000a81548173ffffffffffffffffffffffffffffffffffffffff021916908373ffffffffffffffffffffffffffffffffffffffff160217905550565b6000809054906101000a900473ffffffffffffffffffffffffffffffffffffffff1673ffffffffffffffffffffffffffffffffffffffff163373ffffffffffffffffffffffffffffffffffffffff1614610a0757600080fd5b80600160006101000a81548173ffffffffffffffffffffffffffffffffffffffff021916908373ffffffffffffffffffffffffffffffffffffffff16021790555050565b6000809054906101000a900473ffffffffffffffffffffffffffffffffffffffff1681565b60008060009054906101000a900473ffffffffffffffffffffffffffffffffffffffff1673ffffffffffffffffffffffffffffffffffffffff163373ffffffffffffffffffffffffffffffffffffffff1614610acb57600080fd5b610af7836000809054906101000a900473ffffffffffffffffffffffffffffffffffffffff1684610d0c565b905092915050565b600160009054906101000a900473ffffffffffffffffffffffffffffffffffffffff1681565b6000809054906101000a900473ffffffffffffffffffffffffffffffffffffffff1673ffffffffffffffffffffffffffffffffffffffff163373ffffffffffffffffffffffffffffffffffffffff1614610b7e57600080fd5b80600260006101000a81548173ffffffffffffffffffffffffffffffffffffffff021916908373ffffffffffffffffffffffffffffffffffffffff16021790555050565b6000809054906101000a900473ffffffffffffffffffffffffffffffffffffffff1673ffffffffffffffffffffffffffffffffffffffff163373ffffffffffffffffffffffffffffffffffffffff1614610c1b57600080fd5b6000809054906101000a900473ffffffffffffffffffffffffffffffffffffffff1673ffffffffffffffffffffffffffffffffffffffff166108fc829081150290604051600060405180830381858888f19350505050158015610c82573d6000803e3d6000fd5b5050565b6000809054906101000a900473ffffffffffffffffffffffffffffffffffffffff1673ffffffffffffffffffffffffffffffffffffffff163373ffffffffffffffffffffffffffffffffffffffff1614610cdf57600080fd5b610ce881610f27565b50565b6000818310610cfa5781610cfc565b825b905092915050565b600080905090565b60008373ffffffffffffffffffffffffffffffffffffffff168383604051602401610d38929190611611565b6040516020818303038152906040527fa9059cbb000000000000000000000000000000000000000000000000000000007bffffffffffffffffffffffffffffffffffffffffffffffffffffffff19166020820180517bffffffffffffffffffffffffffffffffffffffffffffffffffffffff8381831617835250505050604051610dc291906115b6565b6000604051808303816000865af19150503d8060008114610dff576040519150601f19603f3d011682016040523d82523d6000602084013e610e04565b606091505b50508091505080610e4a576040517f08c379a0000000000000000000000000000000000000000000000000000000008152600401610e41906116d0565b60405180910390fd5b610e5261101f565b90509392505050565b60008173ffffffffffffffffffffffffffffffffffffffff1663dd62ed3e30856040518363ffffffff1660e01b8152600401610e989291906115e8565b60206040518083038186803b158015610eb057600080fd5b505afa158015610ec4573d6000803e3d6000fd5b505050506040513d601f19601f82011682018060405250610ee89190810190611473565b1415610f2357610f1981837fffffffffffffffffffffffffffffffffffffffffffffffffffffffffffffffff611050565b610f2257600080fd5b5b5050565b600073ffffffffffffffffffffffffffffffffffffffff168173ffffffffffffffffffffffffffffffffffffffff161415610f6157600080fd5b8073ffffffffffffffffffffffffffffffffffffffff166000809054906101000a900473ffffffffffffffffffffffffffffffffffffffff1673ffffffffffffffffffffffffffffffffffffffff167f8be0079c531659141344cd1fd0a4f28419497f9722a3daafe3b4186f6b6457e060405160405180910390a3806000806101000a81548173ffffffffffffffffffffffffffffffffffffffff021916908373ffffffffffffffffffffffffffffffffffffffff16021790555050565b60003d60008114611037576020811461104057600080fd5b6001915061104c565b60206000803e60005191505b5090565b60008373ffffffffffffffffffffffffffffffffffffffff16838360405160240161107c929190611611565b6040516020818303038152906040527f095ea7b3000000000000000000000000000000000000000000000000000000007bffffffffffffffffffffffffffffffffffffffffffffffffffffffff19166020820180517bffffffffffffffffffffffffffffffffffffffffffffffffffffffff838183161783525050505060405161110691906115b6565b6000604051808303816000865af19150503d8060008114611143576040519150601f19603f3d011682016040523d82523d6000602084013e611148565b606091505b5050809150508061118e576040517f08c379a0000000000000000000000000000000000000000000000000000000008152600401611185906116f0565b60405180910390fd5b61119661101f565b90509392505050565b6040518060600160405280600073ffffffffffffffffffffffffffffffffffffffff168152602001600073ffffffffffffffffffffffffffffffffffffffff168152602001600081525090565b60006111f8823561182e565b905092915050565b600061120c825161182e565b905092915050565b60006112208235611840565b905092915050565b60006112348235611852565b905092915050565b600082601f83011261124d57600080fd5b813561126061125b82611781565b611754565b9150808252602083016020830185838301111561127c57600080fd5b6112878382846118e2565b50505092915050565b6000606082840312156112a257600080fd5b6112ac6060611754565b905060006112bc84828501611200565b60008301525060206112d084828501611200565b60208301525060406112e484828501611304565b60408301525092915050565b60006112fc823561187e565b905092915050565b6000611310825161187e565b905092915050565b60006020828403121561132a57600080fd5b6000611338848285016111ec565b91505092915050565b60006020828403121561135357600080fd5b600061136184828501611214565b91505092915050565b6000806040838503121561137d57600080fd5b600061138b858286016111ec565b925050602061139c858286016112f0565b9150509250929050565b600080600080608085870312156113bc57600080fd5b600085013567ffffffffffffffff8111156113d657600080fd5b6113e28782880161123c565b94505060206113f3878288016112f0565b9350506040611404878288016112f0565b925050606061141587828801611228565b91505092959194509250565b60006060828403121561143357600080fd5b600061144184828501611290565b91505092915050565b60006020828403121561145c57600080fd5b600061146a848285016112f0565b91505092915050565b60006020828403121561148557600080fd5b600061149384828501611304565b91505092915050565b6114a5816117e6565b82525050565b6114b4816117d4565b82525050565b6114c3816117f8565b82525050565b60006114d4826117ad565b6114de81856117b8565b93506114ee8185602086016118f1565b80840191505092915050565b61150381611888565b82525050565b611512816118ac565b82525050565b611521816118d0565b82525050565b6000611534600f836117c3565b91507f5472616e73666572206661696c656400000000000000000000000000000000006000830152602082019050919050565b6000611574600e836117c3565b91507f417070726f7665206661696c65640000000000000000000000000000000000006000830152602082019050919050565b6115b081611824565b82525050565b60006115c282846114c9565b915081905092915050565b60006020820190506115e2600083018461149c565b92915050565b60006040820190506115fd60008301856114ab565b61160a60208301846114ab565b9392505050565b600060408201905061162660008301856114ab565b61163360208301846115a7565b9392505050565b600060808201905061164f60008301876114ab565b61165c60208301866115a7565b61166960408301856114ab565b6116766060830184611518565b95945050505050565b600060208201905061169460008301846114ba565b92915050565b60006020820190506116af60008301846114fa565b92915050565b60006020820190506116ca6000830184611509565b92915050565b600060208201905081810360008301526116e981611527565b9050919050565b6000602082019050818103600083015261170981611567565b9050919050565b600060208201905061172560008301846115a7565b92915050565b600060408201905061174060008301856115a7565b61174d60208301846115a7565b9392505050565b6000604051905081810181811067ffffffffffffffff8211171561177757600080fd5b8060405250919050565b600067ffffffffffffffff82111561179857600080fd5b601f19601f8301169050602081019050919050565b600081519050919050565b600081905092915050565b600082825260208201905092915050565b60006117df82611804565b9050919050565b60006117f182611804565b9050919050565b60008115159050919050565b600073ffffffffffffffffffffffffffffffffffffffff82169050919050565b6000819050919050565b60006118398261185e565b9050919050565b600061184b8261185e565b9050919050565b60008115159050919050565b600073ffffffffffffffffffffffffffffffffffffffff82169050919050565b6000819050919050565b60006118938261189a565b9050919050565b60006118a582611804565b9050919050565b60006118b7826118be565b9050919050565b60006118c982611804565b9050919050565b60006118db82611824565b9050919050565b82818337600083830152505050565b60005b8381101561190f5780820151818401526020810190506118f4565b8381111561191e576000848401525b5050505056fea265627a7a723058205e7013e844e742eac6a1ae0e91cd85f054963f568589b915e8f4e35a393078cf6c6578706572696d656e74616cf50037",
  "source": "pragma solidity 0.5.7;\r\npragma experimental ABIEncoderV2;\r\n\r\nimport \"../lib/AllowanceSetter.sol\";\r\nimport \"../lib/Utils.sol\";\r\nimport \"../lib/Math.sol\";\r\nimport \"../lib/SafeMath.sol\";\r\nimport \"./ExchangeHandler.sol\";\r\n\r\n/// @title OasisInterface\r\n/// @notice Exchange contract interface\r\ninterface OasisInterface {\r\n    function sellAllAmount(\r\n        address pay_gem,\r\n        uint256 pay_amt,\r\n        address buy_gem,\r\n        uint256 min_fill_amount\r\n    ) external returns (uint256 fill_amt);\r\n}\r\n\r\ninterface WethInterface {\r\n    function deposit() external payable;\r\n\r\n    function withdraw(uint256 amount) external payable;\r\n}\r\n\r\n/// @title OasisHandler\r\n/// @notice Handles the all Oasis trades for the primary contract\r\ncontract OasisHandler is ExchangeHandler, AllowanceSetter {\r\n    /*\r\n     *   State Variables\r\n     */\r\n\r\n    OasisInterface public oasis;\r\n    WethInterface public weth;\r\n\r\n    /*\r\n     *   Types\r\n     */\r\n\r\n    struct OrderData {\r\n        address sourceAsset;\r\n        address destinationAsset;\r\n        uint256 maxOrderAmount;\r\n    }\r\n\r\n    /// @notice Constructor\r\n    /// @dev Calls the constructor of the inherited ExchangeHandler\r\n    /// @param oasisAddress the address of the Oasis exchange contract\r\n    /// @param wethAddress the address of the weth contract\r\n    constructor(address oasisAddress, address wethAddress)\r\n        public\r\n    /* , address logger */\r\n    {\r\n        oasis = OasisInterface(oasisAddress);\r\n        weth = WethInterface(wethAddress);\r\n    }\r\n\r\n    function performOrder(\r\n        bytes memory genericPayload,\r\n        uint256 availableToSpend,\r\n        uint256 targetAmount,\r\n        bool targetAmountIsSource\r\n    )\r\n        public\r\n        payable\r\n        returns (uint256 amountSpentOnOrder, uint256 amountReceivedFromOrder)\r\n    {\r\n        //Decode order data\r\n        OrderData memory data = abi.decode(genericPayload, (OrderData));\r\n\r\n        //Calculate amounts to spend\r\n        uint256 amountToSpend = Math.min(\r\n            Math.min(targetAmount, availableToSpend),\r\n            data.maxOrderAmount\r\n        );\r\n\r\n        //Exit if we can't buy any\r\n        if (amountToSpend == 0) {\r\n            if (data.sourceAsset == Utils.eth_address()) {\r\n                msg.sender.transfer(availableToSpend);\r\n            } else {\r\n                ERC20SafeTransfer.safeTransfer(\r\n                    data.sourceAsset,\r\n                    msg.sender,\r\n                    availableToSpend\r\n                );\r\n            }\r\n            return (0, 0);\r\n        }\r\n\r\n        if (data.sourceAsset == address(Utils.eth_address())) {\r\n            weth.deposit.value(availableToSpend)();\r\n        }\r\n\r\n        approveAddress(\r\n            address(oasis),\r\n            data.sourceAsset == Utils.eth_address()\r\n                ? address(weth)\r\n                : data.sourceAsset\r\n        );\r\n        amountSpentOnOrder = amountToSpend;\r\n        amountReceivedFromOrder = oasis.sellAllAmount(\r\n            data.sourceAsset == Utils.eth_address()\r\n                ? address(weth)\r\n                : data.sourceAsset,\r\n            amountToSpend,\r\n            data.destinationAsset == Utils.eth_address()\r\n                ? address(weth)\r\n                : data.destinationAsset,\r\n            1\r\n        );\r\n\r\n        //If we didn't spend all the tokens, send back to totlePrimary\r\n        if (amountSpentOnOrder < availableToSpend) {\r\n            if (data.sourceAsset == address(Utils.eth_address())) {\r\n                weth.withdraw(availableToSpend - amountSpentOnOrder);\r\n                msg.sender.transfer(availableToSpend - amountSpentOnOrder);\r\n            } else {\r\n                ERC20SafeTransfer.safeTransfer(\r\n                    data.sourceAsset,\r\n                    msg.sender,\r\n                    availableToSpend - amountSpentOnOrder\r\n                );\r\n            }\r\n        }\r\n\r\n        //Send the purchased tokens back to totlePrimary\r\n        if (data.destinationAsset == Utils.eth_address()) {\r\n            weth.withdraw(amountReceivedFromOrder);\r\n            msg.sender.transfer(amountReceivedFromOrder);\r\n        } else {\r\n            ERC20SafeTransfer.safeTransfer(\r\n                data.destinationAsset,\r\n                msg.sender,\r\n                amountReceivedFromOrder\r\n            );\r\n        }\r\n    }\r\n\r\n    /// @notice Changes the current contract address set as WETH\r\n    /// @param wethAddress the address of the new WETH contract\r\n    function setWeth(address wethAddress) public onlyOwner {\r\n        weth = WethInterface(wethAddress);\r\n    }\r\n\r\n    /// @notice Changes the current contract address set as WETH\r\n    /// @param oasisAddress the address of the new WETH contract\r\n    function setOasis(address oasisAddress) public onlyOwner {\r\n        oasis = OasisInterface(oasisAddress);\r\n    }\r\n\r\n    /*\r\n     *   Payable fallback function\r\n     */\r\n\r\n    /// @notice payable fallback to allow handler or exchange contracts to return ether\r\n    /// @dev only accounts containing code (ie. contracts) can send ether to this contract\r\n    function() external payable {}\r\n}\r\n",
  "sourcePath": "C:/Users/jay.sanchez/taisho_dex/contracts/exchange_handlers/OasisHandler.sol",
  "compiler": {
    "name": "solc",
    "version": "0.5.7+commit.6da8b019.Emscripten.clang"
  },
  "schemaVersion": "3.3.2",
  "updatedAt": "2021-01-04T05:01:22.639Z",
  "devdoc": {
    "methods": {
      "constructor": {
        "params": {
          "wethAddress": "the address of the weth contract"
        }
      },
      "renounceOwnership()": {
        "details": "Allows the current owner to relinquish control of the contract.\r"
      },
      "setOasis(address)": {
        "params": {
          "oasisAddress": "the address of the new WETH contract"
        }
      },
      "setWeth(address)": {
        "params": {
          "wethAddress": "the address of the new WETH contract"
        }
      },
      "transferOwnership(address)": {
        "details": "Allows the current owner to transfer control of the contract to a newOwner.\r",
        "params": {
          "_newOwner": "The address to transfer ownership to.\r"
        }
      },
      "withdrawETH(uint256)": {
        "params": {
          "_amount": "The amount of ether that the caller wants to withdraw"
        }
      },
      "withdrawToken(address,uint256)": {
        "return": "bool value indicating whether the transfer was successful"
      }
    }
  },
  "userdoc": {
    "methods": {
      "renounceOwnership()": {
        "notice": "Renouncing to ownership will leave the contract without an owner.\r It will not be possible to call the functions with the `onlyOwner`\r modifier anymore.\r"
      }
    },
    "notice": "Handles the all Oasis trades for the primary contract"
  }
}