{
  "contractName": "PartnerPayoutUtility",
  "abi": [
    {
      "constant": false,
      "inputs": [
        {
          "name": "partnerAddress",
          "type": "address"
        },
        {
          "name": "tokens",
          "type": "address[]"
        }
      ],
      "name": "payout",
      "outputs": [],
      "payable": false,
      "stateMutability": "nonpayable",
      "type": "function"
    }
  ],
  "bytecode": "0x608060405234801561001057600080fd5b5061058a806100206000396000f3fe608060405234801561001057600080fd5b506004361061002b5760003560e01c8063ba29276914610030575b600080fd5b6101066004803603604081101561004657600080fd5b81019080803573ffffffffffffffffffffffffffffffffffffffff1690602001909291908035906020019064010000000081111561008357600080fd5b82018360208201111561009557600080fd5b803590602001918460208302840111640100000000831117156100b757600080fd5b919080806020026020016040519081016040528093929190818152602001838360200280828437600081840152601f19601f820116905080830192505050505050509192919290505050610108565b005b6000823f90507f5211593748d25180134da9c22079bc1279aa69bc7fbebbc044502e461c5706d460001b8114156101f05760008390508073ffffffffffffffffffffffffffffffffffffffff16634180c2d5846040518263ffffffff1660e01b81526004018080602001828103825283818151815260200191508051906020019060200280838360005b838110156101ad578082015181840152602081019050610192565b5050505090500192505050600060405180830381600087803b1580156101d257600080fd5b505af11580156101e6573d6000803e3d6000fd5b505050505061052e565b7f70ed410f7794fe6186298c7d9ecaebe39b45c76ec8e972fae082b8708e281f8960001b8114156104d5576000839050606083516040519080825280602002602001820160405280156102525781602001602082028038833980820191505090505b50905060008090505b81518110156103d857600073ffffffffffffffffffffffffffffffffffffffff1685828151811061028857fe5b602002602001015173ffffffffffffffffffffffffffffffffffffffff1614156102e1578573ffffffffffffffffffffffffffffffffffffffff16318282815181106102d057fe5b6020026020010181815250506103cb565b60008582815181106102ef57fe5b602002602001015190508073ffffffffffffffffffffffffffffffffffffffff166370a08231886040518263ffffffff1660e01b8152600401808273ffffffffffffffffffffffffffffffffffffffff1673ffffffffffffffffffffffffffffffffffffffff16815260200191505060206040518083038186803b15801561037657600080fd5b505afa15801561038a573d6000803e3d6000fd5b505050506040513d60208110156103a057600080fd5b81019080805190602001909291905050508383815181106103bd57fe5b602002602001018181525050505b808060010191505061025b565b508173ffffffffffffffffffffffffffffffffffffffff1663c176e63985836040518363ffffffff1660e01b8152600401808060200180602001838103835285818151815260200191508051906020019060200280838360005b8381101561044d578082015181840152602081019050610432565b50505050905001838103825284818151815260200191508051906020019060200280838360005b8381101561048f578082015181840152602081019050610474565b50505050905001945050505050600060405180830381600087803b1580156104b657600080fd5b505af11580156104ca573d6000803e3d6000fd5b50505050505061052d565b600061052c576040517f08c379a000000000000000000000000000000000000000000000000000000000815260040180806020018281038252602b815260200180610534602b913960400191505060405180910390fd5b5b5b50505056fe4572726f723a4e6f7420612076616c6964205631206f7220563220706172746e657220636f6e7472616374a165627a7a72305820baf2cf5b63af40f5b18315b371d844243c3e39ab36102d85da1b8c2ebf38a79b0029",
  "source": "pragma solidity 0.5.7;\r\n\r\nimport './ERC20.sol';\r\ncontract PartnerV1 {\r\n    function payout(address[] calldata tokens, uint256[] calldata amounts) external;\r\n}\r\n\r\ncontract PartnerV2 {\r\n    function payout(address[] calldata tokens) external;\r\n}\r\n\r\ncontract PartnerPayoutUtility {\r\n\r\n    bytes32 constant V1_CODE_HASH = 0x70ed410f7794fe6186298c7d9ecaebe39b45c76ec8e972fae082b8708e281f89;\r\n    bytes32 constant V2_CODE_HASH = 0x5211593748d25180134da9c22079bc1279aa69bc7fbebbc044502e461c5706d4;\r\n    function payout(address partnerAddress, address[] memory tokens) public {\r\n        bytes32 codeHash;\r\n        assembly {\r\n            codeHash := extcodehash(partnerAddress)\r\n        }\r\n        if(codeHash == V2_CODE_HASH){\r\n            PartnerV2 partner = PartnerV2(partnerAddress);\r\n            partner.payout(tokens);\r\n        } else if (codeHash == V1_CODE_HASH){\r\n            PartnerV1 partner = PartnerV1(partnerAddress);\r\n            uint256[] memory amounts = new uint256[](tokens.length);\r\n            for(uint256 index = 0; index<amounts.length; index++){\r\n                if(tokens[index]== address(0x0000000000000000000000000000000000000000)){\r\n                    amounts[index] = partnerAddress.balance;\r\n                } else {\r\n                    ERC20 token = ERC20(tokens[index]);\r\n                    amounts[index] = token.balanceOf(partnerAddress);\r\n                }\r\n            }\r\n            partner.payout(tokens, amounts);\r\n        } else {\r\n            require(false,'Error:Not a valid V1 or V2 partner contract');\r\n        }\r\n    } \r\n}",
  "sourcePath": "C:/Users/jay.sanchez/taisho_dex/contracts/lib/PartnerPayoutUtility.sol",
  "compiler": {
    "name": "solc",
    "version": "0.5.7+commit.6da8b019.Emscripten.clang"
  },
  "schemaVersion": "3.3.2",
  "updatedAt": "2021-01-03T00:04:30.507Z",
  "devdoc": {
    "methods": {}
  },
  "userdoc": {
    "methods": {}
  }
}