{
  "contractName": "Partner",
  "abi": [
    {
      "constant": true,
      "inputs": [],
      "name": "overrideCompanyBeneficiary",
      "outputs": [
        {
          "name": "",
          "type": "address"
        }
      ],
      "payable": false,
      "stateMutability": "view",
      "type": "function"
    },
    {
      "constant": true,
      "inputs": [],
      "name": "partnerPercentage",
      "outputs": [
        {
          "name": "",
          "type": "uint256"
        }
      ],
      "payable": false,
      "stateMutability": "view",
      "type": "function"
    },
    {
      "constant": true,
      "inputs": [],
      "name": "overrideCompanyPercentage",
      "outputs": [
        {
          "name": "",
          "type": "uint256"
        }
      ],
      "payable": false,
      "stateMutability": "view",
      "type": "function"
    },
    {
      "constant": true,
      "inputs": [],
      "name": "registry",
      "outputs": [
        {
          "name": "",
          "type": "address"
        }
      ],
      "payable": false,
      "stateMutability": "view",
      "type": "function"
    },
    {
      "constant": true,
      "inputs": [],
      "name": "partnerBeneficiary",
      "outputs": [
        {
          "name": "",
          "type": "address"
        }
      ],
      "payable": false,
      "stateMutability": "view",
      "type": "function"
    },
    {
      "payable": true,
      "stateMutability": "payable",
      "type": "fallback"
    },
    {
      "anonymous": false,
      "inputs": [
        {
          "indexed": false,
          "name": "tokens",
          "type": "address[]"
        },
        {
          "indexed": false,
          "name": "amount",
          "type": "uint256[]"
        }
      ],
      "name": "LogPayout",
      "type": "event"
    },
    {
      "constant": false,
      "inputs": [
        {
          "name": "_registry",
          "type": "address"
        },
        {
          "name": "_overrideCompanyBeneficiary",
          "type": "address"
        },
        {
          "name": "_overrideCompanyPercentage",
          "type": "uint256"
        },
        {
          "name": "_partnerBeneficiary",
          "type": "address"
        },
        {
          "name": "_partnerPercentage",
          "type": "uint256"
        }
      ],
      "name": "init",
      "outputs": [],
      "payable": false,
      "stateMutability": "nonpayable",
      "type": "function"
    },
    {
      "constant": false,
      "inputs": [
        {
          "name": "tokens",
          "type": "address[]"
        },
        {
          "name": "amounts",
          "type": "uint256[]"
        }
      ],
      "name": "payout",
      "outputs": [],
      "payable": false,
      "stateMutability": "nonpayable",
      "type": "function"
    },
    {
      "constant": true,
      "inputs": [],
      "name": "getTotalFeePercentage",
      "outputs": [
        {
          "name": "",
          "type": "uint256"
        }
      ],
      "payable": false,
      "stateMutability": "view",
      "type": "function"
    },
    {
      "constant": true,
      "inputs": [],
      "name": "companyPercentage",
      "outputs": [
        {
          "name": "",
          "type": "uint256"
        }
      ],
      "payable": false,
      "stateMutability": "view",
      "type": "function"
    },
    {
      "constant": true,
      "inputs": [],
      "name": "companyBeneficiary",
      "outputs": [
        {
          "name": "",
          "type": "address"
        }
      ],
      "payable": false,
      "stateMutability": "view",
      "type": "function"
    }
  ],
  "bytecode": "0x608060405234801561001057600080fd5b50610edf806100206000396000f3fe6080604052600436106100915760003560e01c80637b103999116100595780637b1039991461019657806390f8ac61146101ed578063965ec1d214610244578063c176e639146102e9578063dd4462981461044257610091565b8063064367bb14610093578063106f09f2146100be5780632526d15f146100e9578063256885a21461014057806343c619ac1461016b575b005b34801561009f57600080fd5b506100a8610499565b6040518082815260200191505060405180910390f35b3480156100ca57600080fd5b506100d36104ac565b6040518082815260200191505060405180910390f35b3480156100f557600080fd5b506100fe6105c1565b604051808273ffffffffffffffffffffffffffffffffffffffff1673ffffffffffffffffffffffffffffffffffffffff16815260200191505060405180910390f35b34801561014c57600080fd5b506101556105e7565b6040518082815260200191505060405180910390f35b34801561017757600080fd5b506101806105ed565b6040518082815260200191505060405180910390f35b3480156101a257600080fd5b506101ab6105f3565b604051808273ffffffffffffffffffffffffffffffffffffffff1673ffffffffffffffffffffffffffffffffffffffff16815260200191505060405180910390f35b3480156101f957600080fd5b50610202610619565b604051808273ffffffffffffffffffffffffffffffffffffffff1673ffffffffffffffffffffffffffffffffffffffff16815260200191505060405180910390f35b34801561025057600080fd5b506102e7600480360360a081101561026757600080fd5b81019080803573ffffffffffffffffffffffffffffffffffffffff169060200190929190803573ffffffffffffffffffffffffffffffffffffffff16906020019092919080359060200190929190803573ffffffffffffffffffffffffffffffffffffffff1690602001909291908035906020019092919050505061063e565b005b3480156102f557600080fd5b506104406004803603604081101561030c57600080fd5b810190808035906020019064010000000081111561032957600080fd5b82018360208201111561033b57600080fd5b8035906020019184602083028401116401000000008311171561035d57600080fd5b919080806020026020016040519081016040528093929190818152602001838360200280828437600081840152601f19601f820116905080830192505050505050509192919290803590602001906401000000008111156103bd57600080fd5b8201836020820111156103cf57600080fd5b803590602001918460208302840111640100000000831117156103f157600080fd5b919080806020026020016040519081016040528093929190818152602001838360200280828437600081840152601f19601f82011690508083019250505050505050919291929050505061082a565b005b34801561044e57600080fd5b50610457610ad7565b604051808273ffffffffffffffffffffffffffffffffffffffff1673ffffffffffffffffffffffffffffffffffffffff16815260200191505060405180910390f35b60006104a36104ac565b60015401905090565b60008073ffffffffffffffffffffffffffffffffffffffff16600460009054906101000a900473ffffffffffffffffffffffffffffffffffffffff1673ffffffffffffffffffffffffffffffffffffffff16146105b8576105b1600460009054906101000a900473ffffffffffffffffffffffffffffffffffffffff1673ffffffffffffffffffffffffffffffffffffffff1663b1cbc5a26040518163ffffffff1660e01b815260040160206040518083038186803b15801561056e57600080fd5b505afa158015610582573d6000803e3d6000fd5b505050506040513d602081101561059857600080fd5b8101908080519060200190929190505050600154610c01565b90506105be565b60025490505b90565b600360009054906101000a900473ffffffffffffffffffffffffffffffffffffffff1681565b60015481565b60025481565b600460009054906101000a900473ffffffffffffffffffffffffffffffffffffffff1681565b6000809054906101000a900473ffffffffffffffffffffffffffffffffffffffff1681565b600073ffffffffffffffffffffffffffffffffffffffff16600460009054906101000a900473ffffffffffffffffffffffffffffffffffffffff1673ffffffffffffffffffffffffffffffffffffffff161480156106ea5750600073ffffffffffffffffffffffffffffffffffffffff16600360009054906101000a900473ffffffffffffffffffffffffffffffffffffffff1673ffffffffffffffffffffffffffffffffffffffff16145b80156107435750600073ffffffffffffffffffffffffffffffffffffffff166000809054906101000a900473ffffffffffffffffffffffffffffffffffffffff1673ffffffffffffffffffffffffffffffffffffffff16145b61074c57600080fd5b83600360006101000a81548173ffffffffffffffffffffffffffffffffffffffff021916908373ffffffffffffffffffffffffffffffffffffffff16021790555082600281905550816000806101000a81548173ffffffffffffffffffffffffffffffffffffffff021916908373ffffffffffffffffffffffffffffffffffffffff160217905550806001819055508260028190555084600460006101000a81548173ffffffffffffffffffffffffffffffffffffffff021916908373ffffffffffffffffffffffffffffffffffffffff1602179055505050505050565b6000610834610499565b90506000610840610ad7565b905060008090505b8451811015610a0f57600061088261087586848151811061086557fe5b6020026020010151600154610c1b565b61087d610499565b610c55565b905060008186848151811061089357fe5b60200260200101510390506108a6610c7b565b73ffffffffffffffffffffffffffffffffffffffff168784815181106108c857fe5b602002602001015173ffffffffffffffffffffffffffffffffffffffff1614156109a0576000809054906101000a900473ffffffffffffffffffffffffffffffffffffffff1673ffffffffffffffffffffffffffffffffffffffff166108fc839081150290604051600060405180830381858888f19350505050158015610953573d6000803e3d6000fd5b508373ffffffffffffffffffffffffffffffffffffffff166108fc829081150290604051600060405180830381858888f1935050505015801561099a573d6000803e3d6000fd5b50610a00565b6109df8784815181106109af57fe5b60200260200101516000809054906101000a900473ffffffffffffffffffffffffffffffffffffffff1684610c83565b506109fe8784815181106109ef57fe5b60200260200101518583610c83565b505b50508080600101915050610848565b507fbe8582070d205d4a48cfa980c3e5b16b504feefeef5bd56bf5f126a101e02d5a8484604051808060200180602001838103835285818151815260200191508051906020019060200280838360005b83811015610a7a578082015181840152602081019050610a5f565b50505050905001838103825284818151815260200191508051906020019060200280838360005b83811015610abc578082015181840152602081019050610aa1565b5050505090500194505050505060405180910390a150505050565b60008073ffffffffffffffffffffffffffffffffffffffff16600460009054906101000a900473ffffffffffffffffffffffffffffffffffffffff1673ffffffffffffffffffffffffffffffffffffffff1614610bd857600460009054906101000a900473ffffffffffffffffffffffffffffffffffffffff1673ffffffffffffffffffffffffffffffffffffffff1663dd4462986040518163ffffffff1660e01b815260040160206040518083038186803b158015610b9657600080fd5b505afa158015610baa573d6000803e3d6000fd5b505050506040513d6020811015610bc057600080fd5b81019080805190602001909291905050509050610bfe565b600360009054906101000a900473ffffffffffffffffffffffffffffffffffffffff1690505b90565b600081831015610c115781610c13565b825b905092915050565b600080831415610c2e5760009050610c4f565b6000828402905082848281610c3f57fe5b0414610c4a57600080fd5b809150505b92915050565b6000808211610c6357600080fd5b6000828481610c6e57fe5b0490508091505092915050565b600080905090565b60008373ffffffffffffffffffffffffffffffffffffffff168383604051602401808373ffffffffffffffffffffffffffffffffffffffff1673ffffffffffffffffffffffffffffffffffffffff168152602001828152602001925050506040516020818303038152906040527fa9059cbb000000000000000000000000000000000000000000000000000000007bffffffffffffffffffffffffffffffffffffffffffffffffffffffff19166020820180517bffffffffffffffffffffffffffffffffffffffffffffffffffffffff83818316178352505050506040518082805190602001908083835b60208310610d915780518252602082019150602081019050602083039250610d6e565b6001836020036101000a0380198251168184511680821785525050505050509050019150506000604051808303816000865af19150503d8060008114610df3576040519150601f19603f3d011682016040523d82523d6000602084013e610df8565b606091505b50508091505080610e71576040517f08c379a000000000000000000000000000000000000000000000000000000000815260040180806020018281038252600f8152602001807f5472616e73666572206661696c6564000000000000000000000000000000000081525060200191505060405180910390fd5b610e79610e82565b90509392505050565b60003d60008114610e9a5760208114610ea357600080fd5b60019150610eaf565b60206000803e60005191505b509056fea165627a7a72305820f4e443324d4591e30ae386b67817de62251304e4b5d26d08e45a2d2688bf00c10029",
  "source": "pragma solidity 0.5.7;\r\n\r\nimport './SafeMath.sol';\r\nimport './ERC20.sol';\r\nimport './ERC20SafeTransfer.sol';\r\nimport './Utils.sol';\r\nimport './PartnerRegistry.sol';\r\nimport './Math.sol';\r\ncontract Partner {\r\n\r\n    address payable public partnerBeneficiary;\r\n    uint256 public partnerPercentage; //This is out of 1 ETH, e.g. 0.5 ETH is 50% of the fee\r\n\r\n    uint256 public overrideCompanyPercentage;\r\n    address payable public overrideCompanyBeneficiary;\r\n\r\n    PartnerRegistry public registry;\r\n\r\n    event LogPayout(\r\n        address[] tokens,\r\n        uint256[] amount\r\n    );\r\n\r\n    function init(\r\n        PartnerRegistry _registry,\r\n        address payable _overrideCompanyBeneficiary,\r\n        uint256 _overrideCompanyPercentage,\r\n        address payable _partnerBeneficiary,\r\n        uint256 _partnerPercentage\r\n    ) public {\r\n        require(registry == PartnerRegistry(0x0000000000000000000000000000000000000000) &&\r\n          overrideCompanyBeneficiary == address(0x0) && partnerBeneficiary == address(0x0)\r\n        );\r\n        overrideCompanyBeneficiary = _overrideCompanyBeneficiary;\r\n        overrideCompanyPercentage = _overrideCompanyPercentage;\r\n        partnerBeneficiary = _partnerBeneficiary;\r\n        partnerPercentage = _partnerPercentage;\r\n        overrideCompanyPercentage = _overrideCompanyPercentage;\r\n        registry = _registry;\r\n    }\r\n\r\n    function payout(\r\n        address[] memory tokens,\r\n        uint256[] memory amounts\r\n    ) public {\r\n        uint totalFeePercentage = getTotalFeePercentage();\r\n        address payable companyBeneficiary = companyBeneficiary();\r\n        // Payout both the partner and the company at the same time\r\n        for(uint256 index = 0; index<tokens.length; index++){\r\n            uint256 partnerAmount = SafeMath.div(SafeMath.mul(amounts[index], partnerPercentage), getTotalFeePercentage());\r\n            uint256 companyAmount = amounts[index] - partnerAmount;\r\n            if(tokens[index] == Utils.eth_address()){\r\n                partnerBeneficiary.transfer(partnerAmount);\r\n                companyBeneficiary.transfer(companyAmount);\r\n            } else {\r\n                ERC20SafeTransfer.safeTransfer(tokens[index], partnerBeneficiary, partnerAmount);\r\n                ERC20SafeTransfer.safeTransfer(tokens[index], companyBeneficiary, companyAmount);\r\n            }\r\n        }\r\n\temit LogPayout(tokens,amounts);\r\n    }\r\n\r\n    function getTotalFeePercentage() public view returns (uint256){\r\n        return partnerPercentage + companyPercentage();\r\n    }\r\n\r\n    function companyPercentage() public view returns (uint256){\r\n        if(registry != PartnerRegistry(0x0000000000000000000000000000000000000000)){\r\n            return Math.max(registry.basePercentage(), partnerPercentage);\r\n        } else {\r\n            return overrideCompanyPercentage;\r\n        }\r\n    }\r\n\r\n    function companyBeneficiary() public view returns (address payable) {\r\n        if(registry != PartnerRegistry(0x0000000000000000000000000000000000000000)){\r\n            return registry.companyBeneficiary();\r\n        } else {\r\n            return overrideCompanyBeneficiary;\r\n        }    \r\n    }\r\n\r\n    function() external payable {\r\n\r\n    }\r\n}\r\n",
  "sourcePath": "C:\\Users\\jay.sanchez\\taisho_dex\\contracts\\lib\\Partner.sol",
  "compiler": {
    "name": "solc",
    "version": "0.5.7+commit.6da8b019.Emscripten.clang"
  },
  "schemaVersion": "3.3.2",
  "updatedAt": "2021-01-06T18:43:11.087Z",
  "devdoc": {
    "methods": {}
  },
  "userdoc": {
    "methods": {}
  }
}