{
  "contractName": "TotlePrimary",
  "abi": [
    {
      "constant": true,
      "inputs": [],
      "name": "tokenTransferProxy",
      "outputs": [
        {
          "name": "",
          "type": "address"
        }
      ],
      "payable": false,
      "stateMutability": "view",
      "type": "function"
    },
    {
      "constant": false,
      "inputs": [],
      "name": "unpause",
      "outputs": [],
      "payable": false,
      "stateMutability": "nonpayable",
      "type": "function"
    },
    {
      "constant": true,
      "inputs": [],
      "name": "paused",
      "outputs": [
        {
          "name": "",
          "type": "bool"
        }
      ],
      "payable": false,
      "stateMutability": "view",
      "type": "function"
    },
    {
      "constant": false,
      "inputs": [],
      "name": "renounceOwnership",
      "outputs": [],
      "payable": false,
      "stateMutability": "nonpayable",
      "type": "function"
    },
    {
      "constant": true,
      "inputs": [
        {
          "name": "",
          "type": "address"
        }
      ],
      "name": "signers",
      "outputs": [
        {
          "name": "",
          "type": "bool"
        }
      ],
      "payable": false,
      "stateMutability": "view",
      "type": "function"
    },
    {
      "constant": true,
      "inputs": [],
      "name": "MIN_REFUND_GAS_PRICE",
      "outputs": [
        {
          "name": "",
          "type": "uint256"
        }
      ],
      "payable": false,
      "stateMutability": "view",
      "type": "function"
    },
    {
      "constant": false,
      "inputs": [],
      "name": "pause",
      "outputs": [],
      "payable": false,
      "stateMutability": "nonpayable",
      "type": "function"
    },
    {
      "constant": true,
      "inputs": [],
      "name": "GAS_TOKEN",
      "outputs": [
        {
          "name": "",
          "type": "address"
        }
      ],
      "payable": false,
      "stateMutability": "view",
      "type": "function"
    },
    {
      "constant": true,
      "inputs": [],
      "name": "owner",
      "outputs": [
        {
          "name": "",
          "type": "address"
        }
      ],
      "payable": false,
      "stateMutability": "view",
      "type": "function"
    },
    {
      "constant": false,
      "inputs": [
        {
          "name": "_token",
          "type": "address"
        },
        {
          "name": "_amount",
          "type": "uint256"
        }
      ],
      "name": "withdrawToken",
      "outputs": [
        {
          "name": "",
          "type": "bool"
        }
      ],
      "payable": false,
      "stateMutability": "nonpayable",
      "type": "function"
    },
    {
      "constant": false,
      "inputs": [
        {
          "name": "_amount",
          "type": "uint256"
        }
      ],
      "name": "withdrawETH",
      "outputs": [],
      "payable": false,
      "stateMutability": "nonpayable",
      "type": "function"
    },
    {
      "constant": false,
      "inputs": [
        {
          "name": "_newOwner",
          "type": "address"
        }
      ],
      "name": "transferOwnership",
      "outputs": [],
      "payable": false,
      "stateMutability": "nonpayable",
      "type": "function"
    },
    {
      "inputs": [
        {
          "name": "_tokenTransferProxy",
          "type": "address"
        },
        {
          "name": "_signer",
          "type": "address"
        }
      ],
      "payable": false,
      "stateMutability": "nonpayable",
      "type": "constructor"
    },
    {
      "payable": true,
      "stateMutability": "payable",
      "type": "fallback"
    },
    {
      "anonymous": false,
      "inputs": [
        {
          "indexed": true,
          "name": "id",
          "type": "bytes32"
        },
        {
          "indexed": true,
          "name": "partnerContract",
          "type": "address"
        },
        {
          "indexed": true,
          "name": "user",
          "type": "address"
        }
      ],
      "name": "LogSwapCollection",
      "type": "event"
    },
    {
      "anonymous": false,
      "inputs": [
        {
          "indexed": true,
          "name": "id",
          "type": "bytes32"
        },
        {
          "indexed": false,
          "name": "sourceAsset",
          "type": "address"
        },
        {
          "indexed": false,
          "name": "destinationAsset",
          "type": "address"
        },
        {
          "indexed": false,
          "name": "sourceAmount",
          "type": "uint256"
        },
        {
          "indexed": false,
          "name": "destinationAmount",
          "type": "uint256"
        },
        {
          "indexed": false,
          "name": "feeAsset",
          "type": "address"
        },
        {
          "indexed": false,
          "name": "feeAmount",
          "type": "uint256"
        }
      ],
      "name": "LogSwap",
      "type": "event"
    },
    {
      "anonymous": false,
      "inputs": [],
      "name": "Paused",
      "type": "event"
    },
    {
      "anonymous": false,
      "inputs": [],
      "name": "Unpaused",
      "type": "event"
    },
    {
      "anonymous": false,
      "inputs": [
        {
          "indexed": true,
          "name": "previousOwner",
          "type": "address"
        }
      ],
      "name": "OwnershipRenounced",
      "type": "event"
    },
    {
      "anonymous": false,
      "inputs": [
        {
          "indexed": true,
          "name": "previousOwner",
          "type": "address"
        },
        {
          "indexed": true,
          "name": "newOwner",
          "type": "address"
        }
      ],
      "name": "OwnershipTransferred",
      "type": "event"
    },
    {
      "constant": false,
      "inputs": [
        {
          "components": [
            {
              "components": [
                {
                  "components": [
                    {
                      "name": "sourceToken",
                      "type": "address"
                    },
                    {
                      "name": "destinationToken",
                      "type": "address"
                    },
                    {
                      "name": "amount",
                      "type": "uint256"
                    },
                    {
                      "name": "isSourceAmount",
                      "type": "bool"
                    },
                    {
                      "components": [
                        {
                          "name": "exchangeHandler",
                          "type": "address"
                        },
                        {
                          "name": "encodedPayload",
                          "type": "bytes"
                        },
                        {
                          "name": "minSourceAmount",
                          "type": "uint256"
                        },
                        {
                          "name": "maxSourceAmount",
                          "type": "uint256"
                        }
                      ],
                      "name": "orders",
                      "type": "tuple[]"
                    }
                  ],
                  "name": "trades",
                  "type": "tuple[]"
                },
                {
                  "name": "minimumExchangeRate",
                  "type": "uint256"
                },
                {
                  "name": "minimumDestinationAmount",
                  "type": "uint256"
                },
                {
                  "name": "sourceAmount",
                  "type": "uint256"
                },
                {
                  "name": "tradeToTakeFeeFrom",
                  "type": "uint256"
                },
                {
                  "name": "takeFeeFromSource",
                  "type": "bool"
                },
                {
                  "name": "redirectAddress",
                  "type": "address"
                },
                {
                  "name": "required",
                  "type": "bool"
                }
              ],
              "name": "swaps",
              "type": "tuple[]"
            },
            {
              "name": "partnerContract",
              "type": "address"
            },
            {
              "name": "expirationBlock",
              "type": "uint256"
            },
            {
              "name": "id",
              "type": "bytes32"
            },
            {
              "name": "maxGasPrice",
              "type": "uint256"
            },
            {
              "name": "v",
              "type": "uint8"
            },
            {
              "name": "r",
              "type": "bytes32"
            },
            {
              "name": "s",
              "type": "bytes32"
            }
          ],
          "name": "swaps",
          "type": "tuple"
        }
      ],
      "name": "performSwapCollection",
      "outputs": [],
      "payable": true,
      "stateMutability": "payable",
      "type": "function"
    },
    {
      "constant": false,
      "inputs": [
        {
          "name": "newSigner",
          "type": "address"
        }
      ],
      "name": "addSigner",
      "outputs": [],
      "payable": false,
      "stateMutability": "nonpayable",
      "type": "function"
    },
    {
      "constant": false,
      "inputs": [
        {
          "name": "signer",
          "type": "address"
        }
      ],
      "name": "removeSigner",
      "outputs": [],
      "payable": false,
      "stateMutability": "nonpayable",
      "type": "function"
    },
    {
      "constant": false,
      "inputs": [
        {
          "name": "newMinRefundGasPrice",
          "type": "uint256"
        }
      ],
      "name": "updateMinRefundGasPrice",
      "outputs": [],
      "payable": false,
      "stateMutability": "nonpayable",
      "type": "function"
    }
  ],
  "bytecode": "0x608060405260008060146101000a81548160ff0219169083151502179055506404a817c8006003553480156200003457600080fd5b5060405160408062003bdc83398101806040526200005691908101906200014d565b336000806101000a81548173ffffffffffffffffffffffffffffffffffffffff021916908373ffffffffffffffffffffffffffffffffffffffff16021790555081600160006101000a81548173ffffffffffffffffffffffffffffffffffffffff021916908373ffffffffffffffffffffffffffffffffffffffff1602179055506001600260008373ffffffffffffffffffffffffffffffffffffffff1673ffffffffffffffffffffffffffffffffffffffff16815260200190815260200160002060006101000a81548160ff0219169083151502179055505050620001c2565b60006200014582516200018e565b905092915050565b600080604083850312156200016157600080fd5b6000620001718582860162000137565b9250506020620001848582860162000137565b9150509250929050565b60006200019b82620001a2565b9050919050565b600073ffffffffffffffffffffffffffffffffffffffff82169050919050565b613a0a80620001d26000396000f3fe6080604052600436106100f35760003560e01c80638456cb591161008a578063c571c67e11610059578063c571c67e14610370578063eb12d61e14610399578063f14210a6146103c2578063f2fde38b146103eb576100f3565b80638456cb59146102c65780638af8d4c3146102dd5780638da5cb5b146103085780639e281a9814610333576100f3565b80635c975abb116100c65780635c975abb1461021c578063715018a614610247578063736c0d5b1461025e5780637822b9ae1461029b576100f3565b80630e316ab7146101955780630eefdbad146101be57806311a861a7146101e95780633f4ba83a14610205575b600060149054906101000a900460ff1615610143576040517f08c379a000000000000000000000000000000000000000000000000000000000815260040161013a906135fc565b60405180910390fd5b600080339050803b91506000821415610191576040517f08c379a00000000000000000000000000000000000000000000000000000000081526004016101889061353c565b60405180910390fd5b5050005b3480156101a157600080fd5b506101bc60048036036101b79190810190612907565b610414565b005b3480156101ca57600080fd5b506101d36104c8565b6040516101e091906134e1565b60405180910390f35b61020360048036036101fe9190810190612995565b6104ee565b005b34801561021157600080fd5b5061021a610858565b005b34801561022857600080fd5b50610231610948565b60405161023e919061341a565b60405180910390f35b34801561025357600080fd5b5061025c61095e565b005b34801561026a57600080fd5b5061028560048036036102809190810190612907565b610a5e565b604051610292919061341a565b60405180910390f35b3480156102a757600080fd5b506102b0610a7e565b6040516102bd919061365c565b60405180910390f35b3480156102d257600080fd5b506102db610a84565b005b3480156102e957600080fd5b506102f2610b76565b6040516102ff91906134c6565b60405180910390f35b34801561031457600080fd5b5061031d610b89565b60405161032a91906132c8565b60405180910390f35b34801561033f57600080fd5b5061035a60048036036103559190810190612959565b610bae565b604051610367919061341a565b60405180910390f35b34801561037c57600080fd5b50610397600480360361039291908101906129d6565b610c3d565b005b3480156103a557600080fd5b506103c060048036036103bb9190810190612907565b610ca0565b005b3480156103ce57600080fd5b506103e960048036036103e491908101906129d6565b610d54565b005b3480156103f757600080fd5b50610412600480360361040d9190810190612930565b610e18565b005b6000809054906101000a900473ffffffffffffffffffffffffffffffffffffffff1673ffffffffffffffffffffffffffffffffffffffff163373ffffffffffffffffffffffffffffffffffffffff161461046d57600080fd5b6000600260008373ffffffffffffffffffffffffffffffffffffffff1673ffffffffffffffffffffffffffffffffffffffff16815260200190815260200160002060006101000a81548160ff02191690831515021790555050565b600160009054906101000a900473ffffffffffffffffffffffffffffffffffffffff1681565b600060149054906101000a900460ff161561053e576040517f08c379a0000000000000000000000000000000000000000000000000000000008152600401610535906135fc565b60405180910390fd5b8043816040015111610585576040517f08c379a000000000000000000000000000000000000000000000000000000000815260040161057c9061363c565b60405180910390fd5b81600081600001518260200151836040015184606001518560800151336040516020016105b7969594939291906133b2565b604051602081830303815290604052805190602001209050600260006001836040516020016105e6919061328d565b604051602081830303815290604052805190602001208560a001518660c001518760e00151604051600081526020016040526040516106289493929190613435565b6020604051602081039080840390855afa15801561064a573d6000803e3d6000fd5b5050506020604051035173ffffffffffffffffffffffffffffffffffffffff1673ffffffffffffffffffffffffffffffffffffffff16815260200190815260200160002060009054906101000a900460ff166106db576040517f08c379a00000000000000000000000000000000000000000000000000000000081526004016106d29061355c565b60405180910390fd5b8380608001513a1115610723576040517f08c379a000000000000000000000000000000000000000000000000000000000815260040161071a9061357c565b60405180910390fd5b60008090506003543a10610735575a90505b61073d612385565b6040518060400160405280610750610e7d565b73ffffffffffffffffffffffffffffffffffffffff168152602001348152508160006014811061077c57fe5b602002018190525060008090505b8760000151518110156107cf576107c28860600151896000015183815181106107af57fe5b6020026020010151848b60200151610e85565b808060010191505061078a565b503373ffffffffffffffffffffffffffffffffffffffff16876020015173ffffffffffffffffffffffffffffffffffffffff1688606001517fc3dcfccc2c1c6fe2a908d1825ba2e62b5b2d61a6b9c500791f75cdc538bdeb9d60405160405180910390a461083c816113be565b600082111561084f5761084e8261145b565b5b50505050505050565b6000809054906101000a900473ffffffffffffffffffffffffffffffffffffffff1673ffffffffffffffffffffffffffffffffffffffff163373ffffffffffffffffffffffffffffffffffffffff16146108b157600080fd5b600060149054906101000a900460ff16610900576040517f08c379a00000000000000000000000000000000000000000000000000000000081526004016108f7906134fc565b60405180910390fd5b60008060146101000a81548160ff0219169083151502179055507fa45f47fdea8a1efdd9029a5691c7f759c32b7c698632b563573e155625d1693360405160405180910390a1565b60008060149054906101000a900460ff16905090565b6000809054906101000a900473ffffffffffffffffffffffffffffffffffffffff1673ffffffffffffffffffffffffffffffffffffffff163373ffffffffffffffffffffffffffffffffffffffff16146109b757600080fd5b6000809054906101000a900473ffffffffffffffffffffffffffffffffffffffff1673ffffffffffffffffffffffffffffffffffffffff167ff8df31144d9c2f0f6b59d69b8b98abd5459d07f2742c4df920b25aae33c6482060405160405180910390a260008060006101000a81548173ffffffffffffffffffffffffffffffffffffffff021916908373ffffffffffffffffffffffffffffffffffffffff160217905550565b60026020528060005260406000206000915054906101000a900460ff1681565b60035481565b6000809054906101000a900473ffffffffffffffffffffffffffffffffffffffff1673ffffffffffffffffffffffffffffffffffffffff163373ffffffffffffffffffffffffffffffffffffffff1614610add57600080fd5b600060149054906101000a900460ff1615610b2d576040517f08c379a0000000000000000000000000000000000000000000000000000000008152600401610b24906135fc565b60405180910390fd5b6001600060146101000a81548160ff0219169083151502179055507f9e87fac88ff661f02d44f95383c817fece4bce600a3dab7a54406878b965e75260405160405180910390a1565b6eb3f879cb30fe243b4dfee438691c0481565b6000809054906101000a900473ffffffffffffffffffffffffffffffffffffffff1681565b60008060009054906101000a900473ffffffffffffffffffffffffffffffffffffffff1673ffffffffffffffffffffffffffffffffffffffff163373ffffffffffffffffffffffffffffffffffffffff1614610c0957600080fd5b610c35836000809054906101000a900473ffffffffffffffffffffffffffffffffffffffff1684611534565b905092915050565b6000809054906101000a900473ffffffffffffffffffffffffffffffffffffffff1673ffffffffffffffffffffffffffffffffffffffff163373ffffffffffffffffffffffffffffffffffffffff1614610c9657600080fd5b8060038190555050565b6000809054906101000a900473ffffffffffffffffffffffffffffffffffffffff1673ffffffffffffffffffffffffffffffffffffffff163373ffffffffffffffffffffffffffffffffffffffff1614610cf957600080fd5b6001600260008373ffffffffffffffffffffffffffffffffffffffff1673ffffffffffffffffffffffffffffffffffffffff16815260200190815260200160002060006101000a81548160ff02191690831515021790555050565b6000809054906101000a900473ffffffffffffffffffffffffffffffffffffffff1673ffffffffffffffffffffffffffffffffffffffff163373ffffffffffffffffffffffffffffffffffffffff1614610dad57600080fd5b6000809054906101000a900473ffffffffffffffffffffffffffffffffffffffff1673ffffffffffffffffffffffffffffffffffffffff166108fc829081150290604051600060405180830381858888f19350505050158015610e14573d6000803e3d6000fd5b5050565b6000809054906101000a900473ffffffffffffffffffffffffffffffffffffffff1673ffffffffffffffffffffffffffffffffffffffff163373ffffffffffffffffffffffffffffffffffffffff1614610e7157600080fd5b610e7a81611683565b50565b600080905090565b610eb0828460000151600081518110610e9a57fe5b602002602001015160000151856060015161177b565b610efe578260e0015115610ef9576040517f08c379a0000000000000000000000000000000000000000000000000000000008152600401610ef0906135bc565b60405180910390fd5b6113b8565b60008090506000809050600080905060008090505b8660000151518110156110ff57866080015181148015610f3457508660a001515b15610f7657610f738688600001518381518110610f4d57fe5b6020026020010151600001518760008514610f685786610f6e565b8a606001515b61198e565b91505b6000610fee88600001518381518110610f8b57fe5b602002602001015188610fe960008614610fa55787610fab565b8b606001515b8b610fd18d8f600001518a81518110610fc057fe5b602002602001015160000151611a58565b60148110610fdb57fe5b602002015160200151611b6e565b611b87565b80955081925050508760000151828151811061100657fe5b60200260200101516060015115801561103957508760000151828151811061102a57fe5b60200260200101516040015184105b1561108d578760e0015115611083576040517f08c379a000000000000000000000000000000000000000000000000000000000815260040161107a9061361c565b60405180910390fd5b50505050506113b8565b60008214156110a857809450600083146110a75782850194505b5b8760800151821480156110bd57508760a00151155b156110f1576110e987896000015184815181106110d657fe5b602002602001015160200151888761198e565b925082840393505b508080600101915050610f13565b50867f7c396f87ca37e7dab636d7ffad74fe2ef4729fda118a0a2c105bf74f4890437f876000015160008151811061113357fe5b602002602001015160000151886000015160018a6000015151038151811061115757fe5b60200260200101516020015186868b60a00151611193578b600001518c608001518151811061118257fe5b6020026020010151602001516111b4565b8b600001518c60800151815181106111a757fe5b6020026020010151600001515b876040516111c796959493929190613328565b60405180910390a28560400151821015611216576040517f08c379a000000000000000000000000000000000000000000000000000000000815260040161120d906135dc565b60405180910390fd5b61126a866000015160008151811061122a57fe5b60200260200101516000015187600001516001896000015151038151811061124e57fe5b6020026020010151602001518860600151858a60200151611d11565b156112aa576040517f08c379a00000000000000000000000000000000000000000000000000000000081526004016112a19061359c565b60405180910390fd5b3373ffffffffffffffffffffffffffffffffffffffff168660c0015173ffffffffffffffffffffffffffffffffffffffff161415801561131b5750600073ffffffffffffffffffffffffffffffffffffffff168660c0015173ffffffffffffffffffffffffffffffffffffffff1614155b156113b457600061134f86886000015160018a6000015151038151811061133e57fe5b602002602001015160200151611a58565b905060006113718488846014811061136357fe5b602002015160200151611dd1565b905061138387838a60c0015184611dea565b6113b187896000015160018b6000015151038151811061139f57fe5b60200260200101516020015183611ef4565b50505b5050505b50505050565b60008090505b6014811015611456576000811415801561141e5750600073ffffffffffffffffffffffffffffffffffffffff168282601481106113fd57fe5b60200201516000015173ffffffffffffffffffffffffffffffffffffffff16145b156114295750611458565b61144982823385856014811061143b57fe5b602002015160200151611dea565b80806001019150506113c4565b505b50565b60005a905060008183039050600061149161a0aa61374a84018161147b57fe5b04611b6c616c3e86038161148b57fe5b04611dd1565b90506eb3f879cb30fe243b4dfee438691c0473ffffffffffffffffffffffffffffffffffffffff16636366b936826040518263ffffffff1660e01b81526004016114db919061365c565b602060405180830381600087803b1580156114f557600080fd5b505af1158015611509573d6000803e3d6000fd5b505050506040513d601f19601f8201168201806040525061152d91908101906129ff565b5050505050565b60008373ffffffffffffffffffffffffffffffffffffffff168383604051602401611560929190613389565b6040516020818303038152906040527fa9059cbb000000000000000000000000000000000000000000000000000000007bffffffffffffffffffffffffffffffffffffffffffffffffffffffff19166020820180517bffffffffffffffffffffffffffffffffffffffffffffffffffffffff83818316178352505050506040516115ea9190613276565b6000604051808303816000865af19150503d8060008114611627576040519150601f19603f3d011682016040523d82523d6000602084013e61162c565b606091505b50508091505080611672576040517f08c379a00000000000000000000000000000000000000000000000000000000081526004016116699061351c565b60405180910390fd5b61167a611f13565b90509392505050565b600073ffffffffffffffffffffffffffffffffffffffff168173ffffffffffffffffffffffffffffffffffffffff1614156116bd57600080fd5b8073ffffffffffffffffffffffffffffffffffffffff166000809054906101000a900473ffffffffffffffffffffffffffffffffffffffff1673ffffffffffffffffffffffffffffffffffffffff167f8be0079c531659141344cd1fd0a4f28419497f9722a3daafe3b4186f6b6457e060405160405180910390a3806000806101000a81548173ffffffffffffffffffffffffffffffffffffffff021916908373ffffffffffffffffffffffffffffffffffffffff16021790555050565b6000611785610e7d565b73ffffffffffffffffffffffffffffffffffffffff168373ffffffffffffffffffffffffffffffffffffffff1614156117e757836000601481106117c557fe5b6020020151602001518211156117de5760009050611987565b60019050611987565b60006117f38585611a58565b905084816014811061180157fe5b602002015160200151831115611981576000600160009054906101000a900473ffffffffffffffffffffffffffffffffffffffff1673ffffffffffffffffffffffffffffffffffffffff1685333089866014811061185b57fe5b602002015160200151880360405160240161187994939291906132e3565b6040516020818303038152906040527f15dacbea000000000000000000000000000000000000000000000000000000007bffffffffffffffffffffffffffffffffffffffffffffffffffffffff19166020820180517bffffffffffffffffffffffffffffffffffffffffffffffffffffffff83818316178352505050506040516119039190613276565b6000604051808303816000865af19150503d8060008114611940576040519150601f19603f3d011682016040523d82523d6000602084013e611945565b606091505b5050809150508015611976578386836014811061195e57fe5b60200201516020018181525050600192505050611987565b600092505050611987565b60019150505b9392505050565b60008083905060008173ffffffffffffffffffffffffffffffffffffffff1663064367bb6040518163ffffffff1660e01b815260040160206040518083038186803b1580156119dc57600080fd5b505afa1580156119f0573d6000803e3d6000fd5b505050506040513d601f19601f82011682018060405250611a1491908101906129ff565b9050611a208482611f44565b9250611a3787611a308989611a58565b8786611dea565b611a4b87611a458989611a58565b85611f69565b8292505050949350505050565b600080600090505b6014811015611b66578273ffffffffffffffffffffffffffffffffffffffff16848260148110611a8c57fe5b60200201516000015173ffffffffffffffffffffffffffffffffffffffff161415611aba5780915050611b68565b60008114158015611b0b5750600073ffffffffffffffffffffffffffffffffffffffff16848260148110611aea57fe5b60200201516000015173ffffffffffffffffffffffffffffffffffffffff16145b15611b595760405180604001604052808473ffffffffffffffffffffffffffffffffffffffff1681526020016000815250848260148110611b4857fe5b602002018190525080915050611b68565b8080600101915050611a60565b505b92915050565b6000818310611b7d5781611b7f565b825b905092915050565b6000806000809050600080905060008090506000611ba489611f8e565b905060008090505b896080015151811015611ce65787612710888a03021015611bcc57611ce6565b89606001518015611be05750896040015185145b15611bea57611ce6565b6000611c2e8b608001518381518110611bff57fe5b6020026020010151604001518c608001518481518110611c1b57fe5b6020026020010151606001518587611fff565b9050611c5e8b608001518381518110611c4357fe5b6020026020010151898b038d606001518e600001518e612034565b80965081975050508a608001518281518110611c7657fe5b6020026020010151604001518b608001518381518110611c9257fe5b60200260200101516060015103830392508a608001518281518110611cb357fe5b602002602001015160400151861015611cce57858103840193505b85880197508487019650508080600101915050611bac565b50611cf6888a60200151876121dc565b611d05888a6000015188611ef4565b50505050935093915050565b600080611d1c610e7d565b73ffffffffffffffffffffffffffffffffffffffff168773ffffffffffffffffffffffffffffffffffffffff1614611d5c57611d57876121fb565b611d5f565b60125b90506000611d6b610e7d565b73ffffffffffffffffffffffffffffffffffffffff168773ffffffffffffffffffffffffffffffffffffffff1614611dab57611da6876121fb565b611dae565b60125b90506000611dbe8787858561225d565b9050848110935050505095945050505050565b6000818310611de05781611de2565b825b905092915050565b6000811115611eee57611dfb610e7d565b73ffffffffffffffffffffffffffffffffffffffff16848460148110611e1d57fe5b60200201516000015173ffffffffffffffffffffffffffffffffffffffff161415611e8e578173ffffffffffffffffffffffffffffffffffffffff166108fc829081150290604051600060405180830381858888f19350505050158015611e88573d6000803e3d6000fd5b50611eed565b611ead848460148110611e9d57fe5b6020020151600001518383611534565b611eec576040517f08c379a0000000000000000000000000000000000000000000000000000000008152600401611ee39061351c565b60405180910390fd5b5b5b50505050565b6000611f008484611a58565b9050611f0d848284611f69565b50505050565b60003d60008114611f2b5760208114611f3457600080fd5b60019150611f40565b60206000803e60005191505b5090565b6000611f61611f538484612300565b670de0b6b3a764000061233a565b905092915050565b80838360148110611f7657fe5b60200201516020018181510391508181525050505050565b600080600090505b8260800151518160ff161015611ff65782608001518160ff1681518110611fb957fe5b60200260200101516040015183608001518260ff1681518110611fd857fe5b60200260200101516060015103820191508080600101915050611f96565b50809050919050565b60008082148061200e57508385145b1561201b5784905061202c565b8282868603028161202857fe5b0490505b949350505050565b60008061203f610e7d565b73ffffffffffffffffffffffffffffffffffffffff168473ffffffffffffffffffffffffffffffffffffffff16141561211857866000015173ffffffffffffffffffffffffffffffffffffffff16630345c2a6878960200151898a8a6040518663ffffffff1660e01b81526004016120ba949392919061347a565b60408051808303818588803b1580156120d257600080fd5b505af11580156120e6573d6000803e3d6000fd5b50505050506040513d601f19601f8201168201806040525061210b9190810190612a28565b80925081935050506121d2565b612131836121268587611a58565b896000015189611dea565b866000015173ffffffffffffffffffffffffffffffffffffffff16630345c2a688602001518889896040518563ffffffff1660e01b8152600401612178949392919061347a565b6040805180830381600087803b15801561219157600080fd5b505af11580156121a5573d6000803e3d6000fd5b505050506040513d601f19601f820116820180604052506121c99190810190612a28565b80925081935050505b9550959350505050565b60006121e88484611a58565b90506121f5848284612360565b50505050565b60008060405161220a906132b3565b60405180910390209050604051818152600460208083838560008a5af1806000811461223d57600181146122465761224b565b6000965061224b565b845196505b50600484016040525050505050919050565b60006b204fce5e3e2502611000000085111561227857600080fd5b6b204fce5e3e2502611000000084111561229157600080fd5b8282106122ca57601283830311156122a857600080fd5b84838303600a0a02670de0b6b3a76400008502816122c257fe5b0490506122f8565b601282840311156122da57600080fd5b84828403600a0a670de0b6b3a7640000860202816122f457fe5b0490505b949350505050565b6000808314156123135760009050612334565b600082840290508284828161232457fe5b041461232f57600080fd5b809150505b92915050565b600080821161234857600080fd5b600082848161235357fe5b0490508091505092915050565b8083836014811061236d57fe5b60200201516020018181510191508181525050505050565b6040518061050001604052806014905b61239d6123b3565b8152602001906001900390816123955790505090565b6040518060400160405280600073ffffffffffffffffffffffffffffffffffffffff168152602001600081525090565b60006123ef82356138ba565b905092915050565b600061240382356138cc565b905092915050565b600082601f83011261241c57600080fd5b813561242f61242a826136a4565b613677565b9150818183526020840193506020810190508360005b83811015612475578135860161245b88826125e3565b845260208401935060208301925050600181019050612445565b5050505092915050565b600082601f83011261249057600080fd5b81356124a361249e826136cc565b613677565b9150818183526020840193506020810190508360005b838110156124e957813586016124cf888261274d565b8452602084019350602083019250506001810190506124b9565b5050505092915050565b600082601f83011261250457600080fd5b8135612517612512826136f4565b613677565b9150818183526020840193506020810190508360005b8381101561255d5781358601612543888261282b565b84526020840193506020830192505060018101905061252d565b5050505092915050565b600061257382356138de565b905092915050565b600061258782356138ea565b905092915050565b600082601f8301126125a057600080fd5b81356125b36125ae8261371c565b613677565b915080825260208301602083018583830111156125cf57600080fd5b6125da838284613973565b50505092915050565b6000608082840312156125f557600080fd5b6125ff6080613677565b9050600061260f848285016123f7565b600083015250602082013567ffffffffffffffff81111561262f57600080fd5b61263b8482850161258f565b602083015250604061264f848285016128cb565b6040830152506060612663848285016128cb565b60608301525092915050565b6000610100828403121561268257600080fd5b61268d610100613677565b9050600082013567ffffffffffffffff8111156126a957600080fd5b6126b58482850161247f565b60008301525060206126c9848285016123f7565b60208301525060406126dd848285016128cb565b60408301525060606126f18482850161257b565b6060830152506080612705848285016128cb565b60808301525060a0612719848285016128f3565b60a08301525060c061272d8482850161257b565b60c08301525060e06127418482850161257b565b60e08301525092915050565b6000610100828403121561276057600080fd5b61276b610100613677565b9050600082013567ffffffffffffffff81111561278757600080fd5b612793848285016124f3565b60008301525060206127a7848285016128cb565b60208301525060406127bb848285016128cb565b60408301525060606127cf848285016128cb565b60608301525060806127e3848285016128cb565b60808301525060a06127f784828501612567565b60a08301525060c061280b848285016123f7565b60c08301525060e061281f84828501612567565b60e08301525092915050565b600060a0828403121561283d57600080fd5b61284760a0613677565b90506000612857848285016123e3565b600083015250602061286b848285016123e3565b602083015250604061287f848285016128cb565b604083015250606061289384828501612567565b606083015250608082013567ffffffffffffffff8111156128b357600080fd5b6128bf8482850161240b565b60808301525092915050565b60006128d78235613914565b905092915050565b60006128eb8251613914565b905092915050565b60006128ff823561391e565b905092915050565b60006020828403121561291957600080fd5b6000612927848285016123e3565b91505092915050565b60006020828403121561294257600080fd5b6000612950848285016123f7565b91505092915050565b6000806040838503121561296c57600080fd5b600061297a858286016123e3565b925050602061298b858286016128cb565b9150509250929050565b6000602082840312156129a757600080fd5b600082013567ffffffffffffffff8111156129c157600080fd5b6129cd8482850161266f565b91505092915050565b6000602082840312156129e857600080fd5b60006129f6848285016128cb565b91505092915050565b600060208284031215612a1157600080fd5b6000612a1f848285016128df565b91505092915050565b60008060408385031215612a3b57600080fd5b6000612a49858286016128df565b9250506020612a5a858286016128df565b9150509250929050565b6000612a7083836130c0565b905092915050565b6000612a848383613123565b905092915050565b6000612a9883836131d3565b905092915050565b612aa98161385b565b82525050565b612ab88161385b565b82525050565b612ac781613849565b82525050565b612ad681613849565b82525050565b6000612ae78261376f565b612af181856137cd565b935083602082028501612b0385613748565b60005b84811015612b3c578383038852612b1e838351612a64565b9250612b29826137a6565b9150602088019750600181019050612b06565b508196508694505050505092915050565b6000612b588261377a565b612b6281856137de565b935083602082028501612b7485613755565b60005b84811015612bad578383038852612b8f838351612a78565b9250612b9a826137b3565b9150602088019750600181019050612b77565b508196508694505050505092915050565b6000612bc982613785565b612bd381856137ef565b935083602082028501612be585613762565b60005b84811015612c1e578383038852612c00838351612a8c565b9250612c0b826137c0565b9150602088019750600181019050612be8565b508196508694505050505092915050565b612c388161386d565b82525050565b612c478161386d565b82525050565b612c5681613879565b82525050565b612c6d612c6882613879565b6139b5565b82525050565b6000612c7e8261379b565b612c888185613822565b9350612c98818560208601613982565b80840191505092915050565b6000612caf82613790565b612cb98185613800565b9350612cc9818560208601613982565b612cd2816139bf565b840191505092915050565b6000612ce882613790565b612cf28185613811565b9350612d02818560208601613982565b612d0b816139bf565b840191505092915050565b612d1f8161392b565b82525050565b612d2e8161394f565b82525050565b6000612d4160148361382d565b91507f436f6e7472616374206e6f74207061757365642e0000000000000000000000006000830152602082019050919050565b6000612d81601c8361383e565b91507f19457468657265756d205369676e6564204d6573736167653a0a3332000000006000830152601c82019050919050565b6000612dc1600f8361382d565b91507f5472616e73666572206661696c656400000000000000000000000000000000006000830152602082019050919050565b6000612e01600a8361383e565b91507f646563696d616c732829000000000000000000000000000000000000000000006000830152600a82019050919050565b6000612e4160298361382d565b91507f454f412063616e6e6f742073656e6420657468657220746f207072696d61727960008301527f2066616c6c6261636b00000000000000000000000000000000000000000000006020830152604082019050919050565b6000612ea760118361382d565b91507f496e76616c6964207369676e61747572650000000000000000000000000000006000830152602082019050919050565b6000612ee760128361382d565b91507f47617320707269636520746f6f206869676800000000000000000000000000006000830152602082019050919050565b6000612f27601d8361382d565b91507f4d696e696d756d2065786368616e67652072617465206e6f74206d65740000006000830152602082019050919050565b6000612f67601d8361382d565b91507f4661696c656420746f2067657420746f6b656e7320666f7220737761700000006000830152602082019050919050565b6000612fa760268361382d565b91507f476f74206c657373207468616e206d696e696d756d44657374696e6174696f6e60008301527f416d6f756e7400000000000000000000000000000000000000000000000000006020830152604082019050919050565b600061300d60138361382d565b91507f436f6e7472616374206973207061757365642e000000000000000000000000006000830152602082019050919050565b600061304d601d8361382d565b91507f4e6f7420656e6f7567682064657374696e6174696f6e20616d6f756e740000006000830152602082019050919050565b600061308d60078361382d565b91507f45787069726564000000000000000000000000000000000000000000000000006000830152602082019050919050565b60006080830160008301516130d86000860182612aa0565b50602083015184820360208601526130f08282612ca4565b91505060408301516131056040860182613249565b5060608301516131186060860182613249565b508091505092915050565b60006101008301600083015184820360008601526131418282612bbe565b91505060208301516131566020860182613249565b5060408301516131696040860182613249565b50606083015161317c6060860182613249565b50608083015161318f6080860182613249565b5060a08301516131a260a0860182612c2f565b5060c08301516131b560c0860182612aa0565b5060e08301516131c860e0860182612c2f565b508091505092915050565b600060a0830160008301516131eb6000860182612abe565b5060208301516131fe6020860182612abe565b5060408301516132116040860182613249565b5060608301516132246060860182612c2f565b506080830151848203608086015261323c8282612adc565b9150508091505092915050565b613252816138a3565b82525050565b613261816138a3565b82525050565b613270816138ad565b82525050565b60006132828284612c73565b915081905092915050565b600061329882612d74565b91506132a48284612c5c565b60208201915081905092915050565b60006132be82612df4565b9150819050919050565b60006020820190506132dd6000830184612aaf565b92915050565b60006080820190506132f86000830187612acd565b6133056020830186612aaf565b6133126040830185612aaf565b61331f6060830184613258565b95945050505050565b600060c08201905061333d6000830189612acd565b61334a6020830188612acd565b6133576040830187613258565b6133646060830186613258565b6133716080830185612acd565b61337e60a0830184613258565b979650505050505050565b600060408201905061339e6000830185612acd565b6133ab6020830184613258565b9392505050565b600060c08201905081810360008301526133cc8189612b4d565b90506133db6020830188612aaf565b6133e86040830187613258565b6133f56060830186612c4d565b6134026080830185613258565b61340f60a0830184612aaf565b979650505050505050565b600060208201905061342f6000830184612c3e565b92915050565b600060808201905061344a6000830187612c4d565b6134576020830186613267565b6134646040830185612c4d565b6134716060830184612c4d565b95945050505050565b600060808201905081810360008301526134948187612cdd565b90506134a36020830186613258565b6134b06040830185613258565b6134bd6060830184612c3e565b95945050505050565b60006020820190506134db6000830184612d16565b92915050565b60006020820190506134f66000830184612d25565b92915050565b6000602082019050818103600083015261351581612d34565b9050919050565b6000602082019050818103600083015261353581612db4565b9050919050565b6000602082019050818103600083015261355581612e34565b9050919050565b6000602082019050818103600083015261357581612e9a565b9050919050565b6000602082019050818103600083015261359581612eda565b9050919050565b600060208201905081810360008301526135b581612f1a565b9050919050565b600060208201905081810360008301526135d581612f5a565b9050919050565b600060208201905081810360008301526135f581612f9a565b9050919050565b6000602082019050818103600083015261361581613000565b9050919050565b6000602082019050818103600083015261363581613040565b9050919050565b6000602082019050818103600083015261365581613080565b9050919050565b60006020820190506136716000830184613258565b92915050565b6000604051905081810181811067ffffffffffffffff8211171561369a57600080fd5b8060405250919050565b600067ffffffffffffffff8211156136bb57600080fd5b602082029050602081019050919050565b600067ffffffffffffffff8211156136e357600080fd5b602082029050602081019050919050565b600067ffffffffffffffff82111561370b57600080fd5b602082029050602081019050919050565b600067ffffffffffffffff82111561373357600080fd5b601f19601f8301169050602081019050919050565b6000602082019050919050565b6000602082019050919050565b6000602082019050919050565b600081519050919050565b600081519050919050565b600081519050919050565b600081519050919050565b600081519050919050565b6000602082019050919050565b6000602082019050919050565b6000602082019050919050565b600082825260208201905092915050565b600082825260208201905092915050565b600082825260208201905092915050565b600082825260208201905092915050565b600082825260208201905092915050565b600081905092915050565b600082825260208201905092915050565b600081905092915050565b600061385482613883565b9050919050565b600061386682613883565b9050919050565b60008115159050919050565b6000819050919050565b600073ffffffffffffffffffffffffffffffffffffffff82169050919050565b6000819050919050565b600060ff82169050919050565b60006138c5826138f4565b9050919050565b60006138d7826138f4565b9050919050565b60008115159050919050565b6000819050919050565b600073ffffffffffffffffffffffffffffffffffffffff82169050919050565b6000819050919050565b600060ff82169050919050565b60006139368261393d565b9050919050565b600061394882613883565b9050919050565b600061395a82613961565b9050919050565b600061396c82613883565b9050919050565b82818337600083830152505050565b60005b838110156139a0578082015181840152602081019050613985565b838111156139af576000848401525b50505050565b6000819050919050565b6000601f19601f830116905091905056fea265627a7a723058203d114411eac5b89bfb8e08e5ed7d82fd797d930bfc66fd5b7ce6192a8cf4e0806c6578706572696d656e74616cf50037",
  "source": "pragma solidity 0.5.7;\r\npragma experimental ABIEncoderV2;\r\n\r\nimport \"./lib/Withdrawable.sol\";\r\nimport \"./lib/Pausable.sol\";\r\nimport \"./lib/TokenTransferProxy.sol\";\r\nimport \"./lib/Utils.sol\";\r\nimport \"./lib/ERC20SafeTransfer.sol\";\r\nimport \"./lib/Partner.sol\";\r\nimport \"./lib/Math.sol\";\r\nimport \"./lib/TokenBalanceLibrary.sol\";\r\nimport \"./exchange_handlers/ExchangeHandler.sol\";\r\n\r\n\r\ninterface IGST2 {\r\n    function freeUpTo(uint256) external returns (uint256);\r\n}\r\n\r\n\r\n/// @title The primary contract for Totle\r\ncontract TotlePrimary is Withdrawable, Pausable {\r\n    /*\r\n     *   State Variables\r\n     */\r\n\r\n    IGST2 public constant GAS_TOKEN = IGST2(\r\n        0x0000000000b3F879cb30FE243b4Dfee438691c04\r\n    );\r\n    TokenTransferProxy public tokenTransferProxy;\r\n    mapping(address => bool) public signers;\r\n    uint256 public MIN_REFUND_GAS_PRICE = 20000000000;\r\n    /*\r\n     *   Types\r\n     */\r\n\r\n    // Structs\r\n    struct Order {\r\n        address payable exchangeHandler;\r\n        bytes encodedPayload;\r\n        uint256 minSourceAmount;\r\n        uint256 maxSourceAmount;\r\n    }\r\n\r\n    struct Trade {\r\n        address sourceToken;\r\n        address destinationToken;\r\n        uint256 amount;\r\n        bool isSourceAmount; //true if amount is sourceToken, false if it's destinationToken\r\n        Order[] orders;\r\n    }\r\n\r\n    struct Swap {\r\n        Trade[] trades;\r\n        uint256 minimumExchangeRate;\r\n        uint256 minimumDestinationAmount;\r\n        uint256 sourceAmount;\r\n        uint256 tradeToTakeFeeFrom;\r\n        bool takeFeeFromSource; //Takes the fee before the trade if true, takes it after if false\r\n        address payable redirectAddress;\r\n        bool required;\r\n    }\r\n\r\n    struct SwapCollection {\r\n        Swap[] swaps;\r\n        address payable partnerContract;\r\n        uint256 expirationBlock;\r\n        bytes32 id;\r\n        uint256 maxGasPrice;\r\n        uint8 v;\r\n        bytes32 r;\r\n        bytes32 s;\r\n    }\r\n\r\n    /*\r\n     *   Events\r\n     */\r\n\r\n    event LogSwapCollection(\r\n        bytes32 indexed id,\r\n        address indexed partnerContract,\r\n        address indexed user\r\n    );\r\n\r\n    event LogSwap(\r\n        bytes32 indexed id,\r\n        address sourceAsset,\r\n        address destinationAsset,\r\n        uint256 sourceAmount,\r\n        uint256 destinationAmount,\r\n        address feeAsset,\r\n        uint256 feeAmount\r\n    );\r\n\r\n    /// @notice Constructor\r\n    /// @param _tokenTransferProxy address of the TokenTransferProxy\r\n    /// @param _signer the suggester's address that signs the payloads. More can be added with add/removeSigner functions\r\n    constructor(address _tokenTransferProxy, address _signer) public {\r\n        tokenTransferProxy = TokenTransferProxy(_tokenTransferProxy);\r\n        signers[_signer] = true;\r\n    }\r\n\r\n    /*\r\n     *   Public functions\r\n     */\r\n\r\n    modifier notExpired(SwapCollection memory swaps) {\r\n        require(swaps.expirationBlock > block.number, \"Expired\");\r\n        _;\r\n    }\r\n\r\n    modifier validSignature(SwapCollection memory swaps) {\r\n        bytes32 hash = keccak256(\r\n            abi.encode(\r\n                swaps.swaps,\r\n                swaps.partnerContract,\r\n                swaps.expirationBlock,\r\n                swaps.id,\r\n                swaps.maxGasPrice,\r\n                msg.sender\r\n            )\r\n        );\r\n        require(\r\n            signers[ecrecover(\r\n                keccak256(\r\n                    abi.encodePacked(\"\\x19Ethereum Signed Message:\\n32\", hash)\r\n                ),\r\n                swaps.v,\r\n                swaps.r,\r\n                swaps.s\r\n            )],\r\n            \"Invalid signature\"\r\n        );\r\n        _;\r\n    }\r\n\r\n    modifier notAboveMaxGas(SwapCollection memory swaps) {\r\n        require(tx.gasprice <= swaps.maxGasPrice, \"Gas price too high\");\r\n        _;\r\n    }\r\n\r\n    /// @notice Performs the requested set of swaps\r\n    /// @param swaps The struct that defines the collection of swaps to perform\r\n    function performSwapCollection(SwapCollection memory swaps)\r\n        public\r\n        payable\r\n        whenNotPaused\r\n        notExpired(swaps)\r\n        validSignature(swaps)\r\n        notAboveMaxGas(swaps)\r\n    {\r\n        uint256 startingGas = 0;\r\n        if (tx.gasprice >= MIN_REFUND_GAS_PRICE) {\r\n            startingGas = gasleft();\r\n        }\r\n\r\n\r\n        TokenBalanceLibrary.TokenBalance[20] memory balances;\r\n        balances[0] = TokenBalanceLibrary.TokenBalance(\r\n            address(Utils.eth_address()),\r\n            msg.value\r\n        );\r\n        for (\r\n            uint256 swapIndex = 0;\r\n            swapIndex < swaps.swaps.length;\r\n            swapIndex++\r\n        ) {\r\n            performSwap(\r\n                swaps.id,\r\n                swaps.swaps[swapIndex],\r\n                balances,\r\n                swaps.partnerContract\r\n            );\r\n        }\r\n        emit LogSwapCollection(swaps.id, swaps.partnerContract, msg.sender);\r\n        transferAllTokensToUser(balances);\r\n        if (startingGas > 0) {\r\n            refundGas(startingGas);\r\n        }\r\n    }\r\n\r\n    function refundGas(uint256 startingGas) internal {\r\n        uint256 gasRemaining = gasleft();\r\n        uint256 gasSpent = startingGas - gasRemaining;\r\n        uint256 tokensToFree = Math.min(\r\n            (gasSpent + 14154) / 41130,\r\n            (gasRemaining - 27710) / (1148 + 5722 + 150)\r\n        );\r\n        GAS_TOKEN.freeUpTo(tokensToFree);\r\n    }\r\n\r\n    function addSigner(address newSigner) public onlyOwner {\r\n        signers[newSigner] = true;\r\n    }\r\n\r\n    function removeSigner(address signer) public onlyOwner {\r\n        signers[signer] = false;\r\n    }\r\n\r\n    function updateMinRefundGasPrice(uint256 newMinRefundGasPrice)\r\n        external\r\n        onlyOwner\r\n    {\r\n        MIN_REFUND_GAS_PRICE = newMinRefundGasPrice;\r\n    }\r\n\r\n    /*\r\n     *   Internal functions\r\n     */\r\n\r\n    function performSwap(\r\n        bytes32 swapCollectionId,\r\n        Swap memory swap,\r\n        TokenBalanceLibrary.TokenBalance[20] memory balances,\r\n        address payable partnerContract\r\n    ) internal {\r\n        if (\r\n            !transferFromSenderDifference(\r\n                balances,\r\n                swap.trades[0].sourceToken,\r\n                swap.sourceAmount\r\n            )\r\n        ) {\r\n            if (swap.required) {\r\n                revert(\"Failed to get tokens for swap\");\r\n            } else {\r\n                return;\r\n            }\r\n        }\r\n        uint256 amountSpentFirstTrade = 0;\r\n        uint256 amountReceived = 0;\r\n        uint256 feeAmount = 0;\r\n        for (\r\n            uint256 tradeIndex = 0;\r\n            tradeIndex < swap.trades.length;\r\n            tradeIndex++\r\n        ) {\r\n            if (\r\n                tradeIndex == swap.tradeToTakeFeeFrom && swap.takeFeeFromSource\r\n            ) {\r\n                feeAmount = takeFee(\r\n                    balances,\r\n                    swap.trades[tradeIndex].sourceToken,\r\n                    partnerContract,\r\n                    tradeIndex == 0 ? swap.sourceAmount : amountReceived\r\n                );\r\n            }\r\n            uint256 tempSpent;\r\n            (tempSpent, amountReceived) = performTrade(\r\n                swap.trades[tradeIndex],\r\n                balances,\r\n                Utils.min(\r\n                    tradeIndex == 0 ? swap.sourceAmount : amountReceived,\r\n                    balances[TokenBalanceLibrary.findToken(\r\n                        balances,\r\n                        swap.trades[tradeIndex].sourceToken\r\n                    )]\r\n                        .balance\r\n                )\r\n            );\r\n            if (\r\n                !swap.trades[tradeIndex].isSourceAmount &&\r\n                amountReceived < swap.trades[tradeIndex].amount\r\n            ) {\r\n                if (swap.required) {\r\n                    revert(\"Not enough destination amount\");\r\n                }\r\n                return;\r\n            }\r\n            if (tradeIndex == 0) {\r\n                amountSpentFirstTrade = tempSpent;\r\n                if (feeAmount != 0) {\r\n                    amountSpentFirstTrade += feeAmount;\r\n                }\r\n            }\r\n            if (\r\n                tradeIndex == swap.tradeToTakeFeeFrom && !swap.takeFeeFromSource\r\n            ) {\r\n                feeAmount = takeFee(\r\n                    balances,\r\n                    swap.trades[tradeIndex].destinationToken,\r\n                    partnerContract,\r\n                    amountReceived\r\n                );\r\n                amountReceived -= feeAmount;\r\n            }\r\n        }\r\n        emit LogSwap(\r\n            swapCollectionId,\r\n            swap.trades[0].sourceToken,\r\n            swap.trades[swap.trades.length - 1].destinationToken,\r\n            amountSpentFirstTrade,\r\n            amountReceived,\r\n            swap.takeFeeFromSource\r\n                ? swap.trades[swap.tradeToTakeFeeFrom].sourceToken\r\n                : swap.trades[swap.tradeToTakeFeeFrom].destinationToken,\r\n            feeAmount\r\n        );\r\n\r\n        if (amountReceived < swap.minimumDestinationAmount) {\r\n            revert(\"Got less than minimumDestinationAmount\");\r\n        } else if (\r\n            minimumRateFailed(\r\n                swap.trades[0].sourceToken,\r\n                swap.trades[swap.trades.length - 1].destinationToken,\r\n                swap.sourceAmount,\r\n                amountReceived,\r\n                swap.minimumExchangeRate\r\n            )\r\n        ) {\r\n            revert(\"Minimum exchange rate not met\");\r\n        }\r\n        if (\r\n            swap.redirectAddress != msg.sender &&\r\n            swap.redirectAddress != address(0x0)\r\n        ) {\r\n            uint256 destinationTokenIndex = TokenBalanceLibrary.findToken(\r\n                balances,\r\n                swap.trades[swap.trades.length - 1].destinationToken\r\n            );\r\n            uint256 amountToSend = Math.min(\r\n                amountReceived,\r\n                balances[destinationTokenIndex].balance\r\n            );\r\n            transferTokens(\r\n                balances,\r\n                destinationTokenIndex,\r\n                swap.redirectAddress,\r\n                amountToSend\r\n            );\r\n            TokenBalanceLibrary.removeBalance(\r\n                balances,\r\n                swap.trades[swap.trades.length - 1].destinationToken,\r\n                amountToSend\r\n            );\r\n        }\r\n    }\r\n\r\n    function performTrade(\r\n        Trade memory trade,\r\n        TokenBalanceLibrary.TokenBalance[20] memory balances,\r\n        uint256 availableToSpend\r\n    ) internal returns (uint256 totalSpent, uint256 totalReceived) {\r\n        uint256 tempSpent = 0;\r\n        uint256 tempReceived = 0;\r\n        uint256 missingSpend = 0; // This is the amount that we expected to have spent, but didn't. Not to be confused with the total amount left to spend\r\n        uint256 totalRemainingExcess = getTotalExcess(trade);\r\n        for (\r\n            uint256 orderIndex = 0;\r\n            orderIndex < trade.orders.length;\r\n            orderIndex++\r\n        ) {\r\n            if ((availableToSpend - totalSpent) * 10000 < availableToSpend) {\r\n                break;\r\n            } else if (trade.isSourceAmount && tempSpent == trade.amount) {\r\n                break;\r\n            }\r\n            uint256 targetSpend = getTargetSpend(\r\n                trade.orders[orderIndex].minSourceAmount,\r\n                trade.orders[orderIndex].maxSourceAmount,\r\n                totalRemainingExcess,\r\n                missingSpend);\r\n            (tempSpent, tempReceived) = performOrder(\r\n                trade.orders[orderIndex],\r\n                availableToSpend - totalSpent,\r\n                trade.isSourceAmount,\r\n                trade.sourceToken,\r\n                balances\r\n            );\r\n            totalRemainingExcess -= (trade.orders[orderIndex].maxSourceAmount -\r\n                trade.orders[orderIndex].minSourceAmount);\r\n            if (tempSpent < trade.orders[orderIndex].minSourceAmount) {\r\n                missingSpend += (targetSpend - tempSpent);\r\n            }\r\n            totalSpent += tempSpent;\r\n            totalReceived += tempReceived;\r\n        }\r\n        TokenBalanceLibrary.addBalance(\r\n            balances,\r\n            trade.destinationToken,\r\n            totalReceived\r\n        );\r\n        TokenBalanceLibrary.removeBalance(\r\n            balances,\r\n            trade.sourceToken,\r\n            totalSpent\r\n        );\r\n    }\r\n\r\n    function performOrder(\r\n        Order memory order,\r\n        uint256 targetAmount,\r\n        bool isSourceAmount,\r\n        address tokenToSpend,\r\n        TokenBalanceLibrary.TokenBalance[20] memory balances\r\n    ) internal returns (uint256 spent, uint256 received) {\r\n        if (tokenToSpend == Utils.eth_address()) {\r\n            (spent, received) = ExchangeHandler(order.exchangeHandler)\r\n                .performOrder\r\n                .value(targetAmount)(\r\n                order.encodedPayload,\r\n                targetAmount,\r\n                targetAmount,\r\n                isSourceAmount\r\n            );\r\n        } else {\r\n            transferTokens(\r\n                balances,\r\n                TokenBalanceLibrary.findToken(balances, tokenToSpend),\r\n                order.exchangeHandler,\r\n                targetAmount\r\n            );\r\n            (spent, received) = ExchangeHandler(order.exchangeHandler)\r\n                .performOrder(\r\n                order.encodedPayload,\r\n                targetAmount,\r\n                targetAmount,\r\n                isSourceAmount\r\n            );\r\n        }\r\n    }\r\n\r\n    function getTargetSpend(\r\n        uint256 minOrderAmount,\r\n        uint256 maxOrderAmount,\r\n        uint256 totalRemainingExcess,\r\n        uint256 missingSpend\r\n    ) internal returns (uint256 targetSpend) {\r\n        if (missingSpend == 0 || minOrderAmount == maxOrderAmount) {\r\n            return minOrderAmount;\r\n        } else {\r\n            return\r\n                ((maxOrderAmount - minOrderAmount) * missingSpend) /\r\n                totalRemainingExcess;\r\n        }\r\n    }\r\n\r\n    function getTotalExcess(Trade memory trade)\r\n        internal\r\n        returns (uint256 totalExcess)\r\n    {\r\n        for (uint8 index = 0; index < trade.orders.length; index++) {\r\n            totalExcess +=\r\n                trade.orders[index].maxSourceAmount -\r\n                trade.orders[index].minSourceAmount;\r\n        }\r\n        return totalExcess;\r\n    }\r\n\r\n    function minimumRateFailed(\r\n        address sourceToken,\r\n        address destinationToken,\r\n        uint256 sourceAmount,\r\n        uint256 destinationAmount,\r\n        uint256 minimumExchangeRate\r\n    ) internal returns (bool failed) {\r\n        uint256 sourceDecimals = sourceToken == Utils.eth_address()\r\n            ? 18\r\n            : Utils.getDecimals(sourceToken);\r\n        uint256 destinationDecimals = destinationToken == Utils.eth_address()\r\n            ? 18\r\n            : Utils.getDecimals(destinationToken);\r\n        uint256 rateGot = Utils.calcRateFromQty(\r\n            sourceAmount,\r\n            destinationAmount,\r\n            sourceDecimals,\r\n            destinationDecimals\r\n        );\r\n        return rateGot < minimumExchangeRate;\r\n    }\r\n\r\n    function takeFee(\r\n        TokenBalanceLibrary.TokenBalance[20] memory balances,\r\n        address token,\r\n        address payable partnerContract,\r\n        uint256 amountTraded\r\n    ) internal returns (uint256 feeAmount) {\r\n        Partner partner = Partner(partnerContract);\r\n        uint256 feePercentage = partner.getTotalFeePercentage();\r\n        feeAmount = calculateFee(amountTraded, feePercentage);\r\n        transferTokens(\r\n            balances,\r\n            TokenBalanceLibrary.findToken(balances, token),\r\n            partnerContract,\r\n            feeAmount\r\n        );\r\n        TokenBalanceLibrary.removeBalance(\r\n            balances,\r\n            TokenBalanceLibrary.findToken(balances, token),\r\n            feeAmount\r\n        );\r\n        return feeAmount;\r\n    }\r\n\r\n    function transferFromSenderDifference(\r\n        TokenBalanceLibrary.TokenBalance[20] memory balances,\r\n        address token,\r\n        uint256 sourceAmount\r\n    ) internal returns (bool) {\r\n        if (token == Utils.eth_address()) {\r\n            if (sourceAmount > balances[0].balance) {\r\n                return false;\r\n            }\r\n            return true;\r\n        }\r\n\r\n        uint256 tokenIndex = TokenBalanceLibrary.findToken(balances, token);\r\n        if (sourceAmount > balances[tokenIndex].balance) {\r\n            bool success;\r\n            (success, ) = address(tokenTransferProxy).call(\r\n                abi.encodeWithSignature(\r\n                    \"transferFrom(address,address,address,uint256)\",\r\n                    token,\r\n                    msg.sender,\r\n                    address(this),\r\n                    sourceAmount - balances[tokenIndex].balance\r\n                )\r\n            );\r\n            if (success) {\r\n                balances[tokenIndex].balance = sourceAmount;\r\n                return true;\r\n            }\r\n            return false;\r\n        }\r\n        return true;\r\n    }\r\n\r\n    function transferAllTokensToUser(\r\n        TokenBalanceLibrary.TokenBalance[20] memory balances\r\n    ) internal {\r\n        for (\r\n            uint256 balanceIndex = 0;\r\n            balanceIndex < balances.length;\r\n            balanceIndex++\r\n        ) {\r\n            if (\r\n                balanceIndex != 0 &&\r\n                balances[balanceIndex].tokenAddress == address(0x0)\r\n            ) {\r\n                return;\r\n            }\r\n            transferTokens(\r\n                balances,\r\n                balanceIndex,\r\n                msg.sender,\r\n                balances[balanceIndex].balance\r\n            );\r\n        }\r\n    }\r\n\r\n    function transferTokens(\r\n        TokenBalanceLibrary.TokenBalance[20] memory balances,\r\n        uint256 tokenIndex,\r\n        address payable destination,\r\n        uint256 tokenAmount\r\n    ) internal {\r\n        if (tokenAmount > 0) {\r\n            if (balances[tokenIndex].tokenAddress == Utils.eth_address()) {\r\n                destination.transfer(tokenAmount);\r\n            } else {\r\n                require(\r\n                    ERC20SafeTransfer.safeTransfer(\r\n                        balances[tokenIndex].tokenAddress,\r\n                        destination,\r\n                        tokenAmount\r\n                    ),\r\n                    \"Transfer failed\"\r\n                );\r\n            }\r\n        }\r\n    }\r\n\r\n    // @notice Calculates the fee amount given a fee percentage and amount\r\n    // @param amount the amount to calculate the fee based on\r\n    // @param fee the percentage, out of 1 eth (e.g. 0.01 ETH would be 1%)\r\n    function calculateFee(uint256 amount, uint256 fee)\r\n        internal\r\n        pure\r\n        returns (uint256)\r\n    {\r\n        return SafeMath.div(SafeMath.mul(amount, fee), 1 ether);\r\n    }\r\n\r\n    /*\r\n     *   Payable fallback function\r\n     */\r\n\r\n    /// @notice payable fallback to allow handler or exchange contracts to return ether\r\n    /// @dev only accounts containing code (ie. contracts) can send ether to contract\r\n    function() external payable whenNotPaused {\r\n        // Check in here that the sender is a contract! (to stop accidents)\r\n        uint256 size;\r\n        address sender = msg.sender;\r\n        assembly {\r\n            size := extcodesize(sender)\r\n        }\r\n        if (size == 0) {\r\n            revert(\"EOA cannot send ether to primary fallback\");\r\n        }\r\n    }\r\n}\r\n",
  "sourcePath": "C:/Users/jay.sanchez/taisho_dex/contracts/TotlePrimary.sol",
  "compiler": {
    "name": "solc",
    "version": "0.5.7+commit.6da8b019.Emscripten.clang"
  },
  "schemaVersion": "3.3.2",
  "updatedAt": "2021-01-03T00:04:34.388Z",
  "networkType": "ethereum",
  "devdoc": {
    "methods": {
      "constructor": {
        "params": {
          "_signer": "the suggester's address that signs the payloads. More can be added with add/removeSigner functions"
        }
      },
      "pause()": {
        "details": "called by the owner to pause, triggers stopped state\r"
      },
      "paused()": {
        "return": "true if the contract is paused, false otherwise.\r"
      },
      "performSwapCollection((((address,address,uint256,bool,(address,bytes,uint256,uint256)[])[],uint256,uint256,uint256,uint256,bool,address,bool)[],address,uint256,bytes32,uint256,uint8,bytes32,bytes32))": {
        "params": {
          "swaps": "The struct that defines the collection of swaps to perform"
        }
      },
      "renounceOwnership()": {
        "details": "Allows the current owner to relinquish control of the contract.\r"
      },
      "transferOwnership(address)": {
        "details": "Allows the current owner to transfer control of the contract to a newOwner.\r",
        "params": {
          "_newOwner": "The address to transfer ownership to.\r"
        }
      },
      "unpause()": {
        "details": "called by the owner to unpause, returns to normal state\r"
      },
      "withdrawETH(uint256)": {
        "params": {
          "_amount": "The amount of ether that the caller wants to withdraw"
        }
      },
      "withdrawToken(address,uint256)": {
        "return": "bool value indicating whether the transfer was successful"
      }
    },
    "title": "The primary contract for Totle"
  },
  "userdoc": {
    "methods": {
      "renounceOwnership()": {
        "notice": "Renouncing to ownership will leave the contract without an owner.\r It will not be possible to call the functions with the `onlyOwner`\r modifier anymore.\r"
      }
    }
  }
}