{
  "contractName": "UniswapHandler",
  "abi": [
    {
      "constant": false,
      "inputs": [],
      "name": "renounceOwnership",
      "outputs": [],
      "payable": false,
      "stateMutability": "nonpayable",
      "type": "function"
    },
    {
      "constant": true,
      "inputs": [],
      "name": "owner",
      "outputs": [
        {
          "name": "",
          "type": "address"
        }
      ],
      "payable": false,
      "stateMutability": "view",
      "type": "function"
    },
    {
      "constant": false,
      "inputs": [
        {
          "name": "_token",
          "type": "address"
        },
        {
          "name": "_amount",
          "type": "uint256"
        }
      ],
      "name": "withdrawToken",
      "outputs": [
        {
          "name": "",
          "type": "bool"
        }
      ],
      "payable": false,
      "stateMutability": "nonpayable",
      "type": "function"
    },
    {
      "constant": false,
      "inputs": [
        {
          "name": "_amount",
          "type": "uint256"
        }
      ],
      "name": "withdrawETH",
      "outputs": [],
      "payable": false,
      "stateMutability": "nonpayable",
      "type": "function"
    },
    {
      "constant": false,
      "inputs": [
        {
          "name": "_newOwner",
          "type": "address"
        }
      ],
      "name": "transferOwnership",
      "outputs": [],
      "payable": false,
      "stateMutability": "nonpayable",
      "type": "function"
    },
    {
      "inputs": [
        {
          "name": "_uniswapFactory",
          "type": "address"
        }
      ],
      "payable": false,
      "stateMutability": "nonpayable",
      "type": "constructor"
    },
    {
      "payable": true,
      "stateMutability": "payable",
      "type": "fallback"
    },
    {
      "anonymous": false,
      "inputs": [
        {
          "indexed": true,
          "name": "previousOwner",
          "type": "address"
        }
      ],
      "name": "OwnershipRenounced",
      "type": "event"
    },
    {
      "anonymous": false,
      "inputs": [
        {
          "indexed": true,
          "name": "previousOwner",
          "type": "address"
        },
        {
          "indexed": true,
          "name": "newOwner",
          "type": "address"
        }
      ],
      "name": "OwnershipTransferred",
      "type": "event"
    },
    {
      "constant": false,
      "inputs": [
        {
          "name": "genericPayload",
          "type": "bytes"
        },
        {
          "name": "availableToSpend",
          "type": "uint256"
        },
        {
          "name": "targetAmount",
          "type": "uint256"
        },
        {
          "name": "targetAmountIsSource",
          "type": "bool"
        }
      ],
      "name": "performOrder",
      "outputs": [
        {
          "name": "amountSpentOnOrder",
          "type": "uint256"
        },
        {
          "name": "amountReceivedFromOrder",
          "type": "uint256"
        }
      ],
      "payable": true,
      "stateMutability": "payable",
      "type": "function"
    }
  ],
  "bytecode": "0x60806040523480156200001157600080fd5b5060405160208062001acb8339810180604052620000339190810190620000d1565b336000806101000a81548173ffffffffffffffffffffffffffffffffffffffff021916908373ffffffffffffffffffffffffffffffffffffffff16021790555080600160006101000a81548173ffffffffffffffffffffffffffffffffffffffff021916908373ffffffffffffffffffffffffffffffffffffffff1602179055505062000131565b6000620000c98251620000fd565b905092915050565b600060208284031215620000e457600080fd5b6000620000f484828501620000bb565b91505092915050565b60006200010a8262000111565b9050919050565b600073ffffffffffffffffffffffffffffffffffffffff82169050919050565b61198a80620001416000396000f3fe6080604052600436106100555760003560e01c80630345c2a614610070578063715018a6146100a15780638da5cb5b146100b85780639e281a98146100e3578063f14210a614610120578063f2fde38b14610149575b600080339050803b91506000821161006c57600080fd5b5050005b61008a600480360361008591908101906112b4565b610172565b60405161009892919061168c565b60405180910390f35b3480156100ad57600080fd5b506100b6610382565b005b3480156100c457600080fd5b506100cd610482565b6040516100da91906114e7565b60405180910390f35b3480156100ef57600080fd5b5061010a60048036036101059190810190611278565b6104a7565b6040516101179190611554565b60405180910390f35b34801561012c57600080fd5b5061014760048036036101429190810190611358565b610536565b005b34801561015557600080fd5b50610170600480360361016b919081019061124f565b6105fa565b005b60008061017d6110ad565b86806020019051610191919081019061132f565b90506000600160009054906101000a900473ffffffffffffffffffffffffffffffffffffffff1673ffffffffffffffffffffffffffffffffffffffff166306f2bf626101db61065f565b73ffffffffffffffffffffffffffffffffffffffff16846000015173ffffffffffffffffffffffffffffffffffffffff161461021b578360000151610221565b83602001515b6040518263ffffffff1660e01b815260040161023d91906114cc565b60206040518083038186803b15801561025557600080fd5b505afa158015610269573d6000803e3d6000fd5b505050506040513d601f19601f8201168201806040525061028d9190810190611226565b905061029d826000015182610667565b60006102af86888a86604001516106b0565b90506102b961065f565b73ffffffffffffffffffffffffffffffffffffffff16836000015173ffffffffffffffffffffffffffffffffffffffff16141561030a576102fe8383888a858d6106dc565b94509450505050610379565b61031261065f565b73ffffffffffffffffffffffffffffffffffffffff16836020015173ffffffffffffffffffffffffffffffffffffffff161415610363576103578383888a858d6108c8565b94509450505050610379565b6103718383888a858d610a45565b945094505050505b94509492505050565b6000809054906101000a900473ffffffffffffffffffffffffffffffffffffffff1673ffffffffffffffffffffffffffffffffffffffff163373ffffffffffffffffffffffffffffffffffffffff16146103db57600080fd5b6000809054906101000a900473ffffffffffffffffffffffffffffffffffffffff1673ffffffffffffffffffffffffffffffffffffffff167ff8df31144d9c2f0f6b59d69b8b98abd5459d07f2742c4df920b25aae33c6482060405160405180910390a260008060006101000a81548173ffffffffffffffffffffffffffffffffffffffff021916908373ffffffffffffffffffffffffffffffffffffffff160217905550565b6000809054906101000a900473ffffffffffffffffffffffffffffffffffffffff1681565b60008060009054906101000a900473ffffffffffffffffffffffffffffffffffffffff1673ffffffffffffffffffffffffffffffffffffffff163373ffffffffffffffffffffffffffffffffffffffff161461050257600080fd5b61052e836000809054906101000a900473ffffffffffffffffffffffffffffffffffffffff1684610bd9565b905092915050565b6000809054906101000a900473ffffffffffffffffffffffffffffffffffffffff1673ffffffffffffffffffffffffffffffffffffffff163373ffffffffffffffffffffffffffffffffffffffff161461058f57600080fd5b6000809054906101000a900473ffffffffffffffffffffffffffffffffffffffff1673ffffffffffffffffffffffffffffffffffffffff166108fc829081150290604051600060405180830381858888f193505050501580156105f6573d6000803e3d6000fd5b5050565b6000809054906101000a900473ffffffffffffffffffffffffffffffffffffffff1673ffffffffffffffffffffffffffffffffffffffff163373ffffffffffffffffffffffffffffffffffffffff161461065357600080fd5b61065c81610d28565b50565b600080905090565b61066f61065f565b73ffffffffffffffffffffffffffffffffffffffff168273ffffffffffffffffffffffffffffffffffffffff16146106ac576106ab8183610e20565b5b5050565b600082905084156106d1576106ce6106c88286610eec565b83610eec565b90505b809050949350505050565b60008085156107d2578673ffffffffffffffffffffffffffffffffffffffff1663ad65d76d85600142336040518563ffffffff1660e01b81526004016107249392919061156f565b6020604051808303818588803b15801561073d57600080fd5b505af1158015610751573d6000803e3d6000fd5b50505050506040513d601f19601f820116820180604052506107769190810190611381565b9050839150828410156107cd573373ffffffffffffffffffffffffffffffffffffffff166108fc8385039081150290604051600060405180830381858888f193505050501580156107cb573d6000803e3d6000fd5b505b6108bd565b8673ffffffffffffffffffffffffffffffffffffffff16630b573638858742336040518563ffffffff1660e01b8152600401610810939291906116b5565b6020604051808303818588803b15801561082957600080fd5b505af115801561083d573d6000803e3d6000fd5b50505050506040513d601f19601f820116820180604052506108629190810190611381565b9150849050600082840311156108bc573373ffffffffffffffffffffffffffffffffffffffff166108fc8385039081150290604051600060405180830381858888f193505050501580156108ba573d6000803e3d6000fd5b505b5b965096945050505050565b6000808515610988578673ffffffffffffffffffffffffffffffffffffffff16637237e03185600142336040518563ffffffff1660e01b81526004016109119493929190611647565b602060405180830381600087803b15801561092b57600080fd5b505af115801561093f573d6000803e3d6000fd5b505050506040513d601f19601f820116820180604052506109639190810190611381565b90508391508284101561098357610981886000015133848603610bd9565b505b610a3a565b8673ffffffffffffffffffffffffffffffffffffffff1663d4e4841d868642336040518563ffffffff1660e01b81526004016109c794939291906116ec565b602060405180830381600087803b1580156109e157600080fd5b505af11580156109f5573d6000803e3d6000fd5b505050506040513d601f19601f82011682018060405250610a199190810190611381565b915084905082821015610a3957610a37886000015133848603610bd9565b505b5b965096945050505050565b6000808515610b0d578673ffffffffffffffffffffffffffffffffffffffff1663f552d91b8560018042338e602001516040518763ffffffff1660e01b8152600401610a96969594939291906115e6565b602060405180830381600087803b158015610ab057600080fd5b505af1158015610ac4573d6000803e3d6000fd5b505050506040513d601f19601f82011682018060405250610ae89190810190611381565b905083915081831115610b0857610b06886000015133848603610bd9565b505b610bce565b8673ffffffffffffffffffffffffffffffffffffffff1663f3c0efe98686610b33610f05565b42338e602001516040518763ffffffff1660e01b8152600401610b5b96959493929190611731565b602060405180830381600087803b158015610b7557600080fd5b505af1158015610b89573d6000803e3d6000fd5b505050506040513d601f19601f82011682018060405250610bad9190810190611381565b915084905082821015610bcd57610bcb886000015133848603610bd9565b505b5b965096945050505050565b60008373ffffffffffffffffffffffffffffffffffffffff168383604051602401610c0592919061152b565b6040516020818303038152906040527fa9059cbb000000000000000000000000000000000000000000000000000000007bffffffffffffffffffffffffffffffffffffffffffffffffffffffff19166020820180517bffffffffffffffffffffffffffffffffffffffffffffffffffffffff8381831617835250505050604051610c8f91906114b5565b6000604051808303816000865af19150503d8060008114610ccc576040519150601f19603f3d011682016040523d82523d6000602084013e610cd1565b606091505b50508091505080610d17576040517f08c379a0000000000000000000000000000000000000000000000000000000008152600401610d0e906115a6565b60405180910390fd5b610d1f610f2d565b90509392505050565b600073ffffffffffffffffffffffffffffffffffffffff168173ffffffffffffffffffffffffffffffffffffffff161415610d6257600080fd5b8073ffffffffffffffffffffffffffffffffffffffff166000809054906101000a900473ffffffffffffffffffffffffffffffffffffffff1673ffffffffffffffffffffffffffffffffffffffff167f8be0079c531659141344cd1fd0a4f28419497f9722a3daafe3b4186f6b6457e060405160405180910390a3806000806101000a81548173ffffffffffffffffffffffffffffffffffffffff021916908373ffffffffffffffffffffffffffffffffffffffff16021790555050565b60008173ffffffffffffffffffffffffffffffffffffffff1663dd62ed3e30856040518363ffffffff1660e01b8152600401610e5d929190611502565b60206040518083038186803b158015610e7557600080fd5b505afa158015610e89573d6000803e3d6000fd5b505050506040513d601f19601f82011682018060405250610ead9190810190611381565b1415610ee857610ede81837fffffffffffffffffffffffffffffffffffffffffffffffffffffffffffffffff610f5e565b610ee757600080fd5b5b5050565b6000818310610efb5781610efd565b825b905092915050565b60007fffffffffffffffffffffffffffffffffffffffffffffffffffffffffffffffff905090565b60003d60008114610f455760208114610f4e57600080fd5b60019150610f5a565b60206000803e60005191505b5090565b60008373ffffffffffffffffffffffffffffffffffffffff168383604051602401610f8a92919061152b565b6040516020818303038152906040527f095ea7b3000000000000000000000000000000000000000000000000000000007bffffffffffffffffffffffffffffffffffffffffffffffffffffffff19166020820180517bffffffffffffffffffffffffffffffffffffffffffffffffffffffff838183161783525050505060405161101491906114b5565b6000604051808303816000865af19150503d8060008114611051576040519150601f19603f3d011682016040523d82523d6000602084013e611056565b606091505b5050809150508061109c576040517f08c379a0000000000000000000000000000000000000000000000000000000008152600401611093906115c6565b60405180910390fd5b6110a4610f2d565b90509392505050565b6040518060600160405280600073ffffffffffffffffffffffffffffffffffffffff168152602001600073ffffffffffffffffffffffffffffffffffffffff168152602001600081525090565b6000611106823561186c565b905092915050565b600061111a825161186c565b905092915050565b600061112e823561187e565b905092915050565b60006111428235611890565b905092915050565b600082601f83011261115b57600080fd5b813561116e611169826117bf565b611792565b9150808252602083016020830185838301111561118a57600080fd5b61119583828461190e565b50505092915050565b6000606082840312156111b057600080fd5b6111ba6060611792565b905060006111ca8482850161110e565b60008301525060206111de8482850161110e565b60208301525060406111f284828501611212565b60408301525092915050565b600061120a82356118bc565b905092915050565b600061121e82516118bc565b905092915050565b60006020828403121561123857600080fd5b60006112468482850161110e565b91505092915050565b60006020828403121561126157600080fd5b600061126f84828501611122565b91505092915050565b6000806040838503121561128b57600080fd5b6000611299858286016110fa565b92505060206112aa858286016111fe565b9150509250929050565b600080600080608085870312156112ca57600080fd5b600085013567ffffffffffffffff8111156112e457600080fd5b6112f08782880161114a565b9450506020611301878288016111fe565b9350506040611312878288016111fe565b925050606061132387828801611136565b91505092959194509250565b60006060828403121561134157600080fd5b600061134f8482850161119e565b91505092915050565b60006020828403121561136a57600080fd5b6000611378848285016111fe565b91505092915050565b60006020828403121561139357600080fd5b60006113a184828501611212565b91505092915050565b6113b3816118c6565b82525050565b6113c281611824565b82525050565b6113d181611812565b82525050565b6113e081611836565b82525050565b60006113f1826117eb565b6113fb81856117f6565b935061140b81856020860161191d565b80840191505092915050565b611420816118d8565b82525050565b6000611433600f83611801565b91507f5472616e73666572206661696c656400000000000000000000000000000000006000830152602082019050919050565b6000611473600e83611801565b91507f417070726f7665206661696c65640000000000000000000000000000000000006000830152602082019050919050565b6114af81611862565b82525050565b60006114c182846113e6565b915081905092915050565b60006020820190506114e160008301846113c8565b92915050565b60006020820190506114fc60008301846113b9565b92915050565b600060408201905061151760008301856113c8565b61152460208301846113c8565b9392505050565b600060408201905061154060008301856113c8565b61154d60208301846114a6565b9392505050565b600060208201905061156960008301846113d7565b92915050565b60006060820190506115846000830186611417565b61159160208301856114a6565b61159e60408301846113aa565b949350505050565b600060208201905081810360008301526115bf81611426565b9050919050565b600060208201905081810360008301526115df81611466565b9050919050565b600060c0820190506115fb60008301896114a6565b6116086020830188611417565b6116156040830187611417565b61162260608301866114a6565b61162f60808301856113aa565b61163c60a08301846113c8565b979650505050505050565b600060808201905061165c60008301876114a6565b6116696020830186611417565b61167660408301856114a6565b61168360608301846113aa565b95945050505050565b60006040820190506116a160008301856114a6565b6116ae60208301846114a6565b9392505050565b60006060820190506116ca60008301866114a6565b6116d760208301856114a6565b6116e460408301846113aa565b949350505050565b600060808201905061170160008301876114a6565b61170e60208301866114a6565b61171b60408301856114a6565b61172860608301846113aa565b95945050505050565b600060c08201905061174660008301896114a6565b61175360208301886114a6565b61176060408301876114a6565b61176d60608301866114a6565b61177a60808301856113aa565b61178760a08301846113c8565b979650505050505050565b6000604051905081810181811067ffffffffffffffff821117156117b557600080fd5b8060405250919050565b600067ffffffffffffffff8211156117d657600080fd5b601f19601f8301169050602081019050919050565b600081519050919050565b600081905092915050565b600082825260208201905092915050565b600061181d82611842565b9050919050565b600061182f82611842565b9050919050565b60008115159050919050565b600073ffffffffffffffffffffffffffffffffffffffff82169050919050565b6000819050919050565b60006118778261189c565b9050919050565b60006118898261189c565b9050919050565b60008115159050919050565b600073ffffffffffffffffffffffffffffffffffffffff82169050919050565b6000819050919050565b60006118d1826118ea565b9050919050565b60006118e382611862565b9050919050565b60006118f5826118fc565b9050919050565b600061190782611842565b9050919050565b82818337600083830152505050565b60005b8381101561193b578082015181840152602081019050611920565b8381111561194a576000848401525b5050505056fea265627a7a72305820c293f536965471733f4c52912ac14120edf24c5e449c59ac7f75533c69ac80e66c6578706572696d656e74616cf50037",
  "source": "pragma solidity 0.5.7;\r\npragma experimental ABIEncoderV2;\r\n\r\nimport \"../lib/ERC20.sol\";\r\nimport \"../lib/SafeMath.sol\";\r\nimport \"../lib/Math.sol\";\r\nimport \"../lib/Utils.sol\";\r\nimport \"../lib/AllowanceSetter.sol\";\r\nimport \"./ExchangeHandler.sol\";\r\n\r\ninterface UniswapExchange {\r\n\r\n    //Trading\r\n    //Eth to token\r\n    function ethToTokenTransferInput(uint256 min_tokens, uint256 deadline, address recipient) external payable returns (uint256  tokens_bought);\r\n    function ethToTokenTransferOutput(uint256 tokens_bought, uint256 deadline, address recipient) external payable returns (uint256  eth_sold);\r\n    \r\n    //Token to eth\r\n    function tokenToEthTransferInput(uint256 tokens_sold, uint256 min_tokens, uint256 deadline, address recipient) external returns (uint256  eth_bought);\r\n    function tokenToEthTransferOutput(uint256 eth_bought, uint256 max_tokens, uint256 deadline, address recipient) external returns (uint256  tokens_sold);\r\n\r\n    //Token to token\r\n    function tokenToTokenTransferInput(uint256 tokens_sold, uint256 min_tokens_bought, uint256 min_eth_bought, uint256 deadline, address recipient, address token_addr) external returns (uint256  tokens_bought);\r\n    function tokenToTokenTransferOutput(uint256 tokens_bought, uint256 max_tokens_sold, uint256 max_eth_sold, uint256 deadline, address recipient, address token_addr) external returns (uint256  tokens_sold);\r\n\r\n    // Get Price\r\n    function getEthToTokenInputPrice(uint256 eth_sold) external view returns (uint256);\r\n    function getTokenToEthInputPrice(uint256 tokens_sold) external view returns (uint256);\r\n\r\n    function tokenAddress() external view returns (address);\r\n}\r\n\r\ninterface UniswapFactory {\r\n    function getExchange(address token) external view returns (address exchange);\r\n}\r\n\r\n/// @title Handler for Uniswap exchange\r\ncontract UniswapHandler is ExchangeHandler, AllowanceSetter {\r\n    /*\r\n    *   Types\r\n    */\r\n\r\n    struct OrderData {\r\n        address sourceToken;\r\n        address destinationToken;\r\n        uint256 maxSpend;\r\n    }\r\n\r\n    UniswapFactory private uniswapFactory;\r\n\r\n    /// @notice Constructor\r\n    constructor(\r\n        address _uniswapFactory\r\n    ) \r\n        public\r\n    {\r\n        uniswapFactory = UniswapFactory(_uniswapFactory);\r\n    }\r\n\r\n    /*\r\n    *   Internal functions\r\n    */\r\n\r\n    function performOrder(\r\n        bytes memory genericPayload,\r\n        uint256 availableToSpend,\r\n        uint256 targetAmount,\r\n        bool targetAmountIsSource\r\n    )\r\n        public\r\n        payable\r\n        returns (uint256 amountSpentOnOrder, uint256 amountReceivedFromOrder)\r\n    {\r\n        OrderData memory data = abi.decode(genericPayload, (OrderData));\r\n        UniswapExchange ex = UniswapExchange(uniswapFactory.getExchange(data.sourceToken == Utils.eth_address() ? data.destinationToken: data.sourceToken));\r\n        approve(data.sourceToken, address(ex));\r\n        uint256 maxToSpend = getMaxToSpend(targetAmountIsSource, targetAmount, availableToSpend, data.maxSpend);\r\n        if(data.sourceToken == Utils.eth_address()){\r\n            return performEthToToken(data, ex, targetAmountIsSource, targetAmount, maxToSpend, availableToSpend);\r\n        } else if(data.destinationToken == Utils.eth_address()){\r\n            return performTokenToEth(data, ex, targetAmountIsSource, targetAmount, maxToSpend, availableToSpend);\r\n        } else {\r\n            return performTokenToToken(data, ex, targetAmountIsSource, targetAmount, maxToSpend, availableToSpend);\r\n        }\r\n    }\r\n\r\n    function performEthToToken(\r\n        OrderData memory data,\r\n        UniswapExchange ex, \r\n        bool targetAmountIsSource, \r\n        uint256 targetAmount,\r\n        uint256 maxToSpend,\r\n        uint256 availableToSpend\r\n    ) \r\n        internal \r\n        returns (uint256 amountSpentOnOrder, uint256 amountReceivedFromOrder) \r\n    {\r\n        if(targetAmountIsSource){\r\n            amountReceivedFromOrder = ex.ethToTokenTransferInput.value(maxToSpend)(1, block.timestamp, msg.sender);\r\n            amountSpentOnOrder = maxToSpend;\r\n            if(maxToSpend < availableToSpend) {\r\n                msg.sender.transfer(availableToSpend - amountSpentOnOrder);\r\n            }\r\n        } else {\r\n            amountSpentOnOrder = ex.ethToTokenTransferOutput.value(maxToSpend)(targetAmount, block.timestamp, msg.sender);\r\n            amountReceivedFromOrder = targetAmount;\r\n            if(availableToSpend - amountSpentOnOrder > 0){\r\n                msg.sender.transfer(availableToSpend - amountSpentOnOrder);\r\n            }\r\n        }\r\n    }\r\n\r\n    function performTokenToEth(\r\n        OrderData memory data,\r\n        UniswapExchange ex,\r\n        bool targetAmountIsSource,\r\n        uint256 targetAmount,\r\n        uint256 maxToSpend,\r\n        uint256 availableToSpend\r\n    )\r\n        internal\r\n        returns (uint256 amountSpentOnOrder, uint256 amountReceivedFromOrder)\r\n    {\r\n        if(targetAmountIsSource){\r\n            amountReceivedFromOrder = ex.tokenToEthTransferInput(maxToSpend, 1, block.timestamp, msg.sender);\r\n            amountSpentOnOrder = maxToSpend;\r\n            if(maxToSpend < availableToSpend) {\r\n                ERC20SafeTransfer.safeTransfer(data.sourceToken, msg.sender, availableToSpend - amountSpentOnOrder);\r\n            }\r\n        } else {\r\n            amountSpentOnOrder = ex.tokenToEthTransferOutput(targetAmount, maxToSpend, block.timestamp, msg.sender);\r\n            amountReceivedFromOrder = targetAmount;\r\n            if(amountSpentOnOrder < availableToSpend){\r\n                ERC20SafeTransfer.safeTransfer(data.sourceToken, msg.sender, availableToSpend - amountSpentOnOrder);\r\n            }\r\n        }\r\n    }\r\n\r\n    function performTokenToToken(\r\n        OrderData memory data,\r\n        UniswapExchange ex,\r\n        bool targetAmountIsSource,\r\n        uint256 targetAmount,\r\n        uint256 maxToSpend, \r\n        uint256 availableToSpend\r\n    )\r\n        internal\r\n        returns (uint256 amountSpentOnOrder, uint256 amountReceivedFromOrder)\r\n    {\r\n        \r\n        if(targetAmountIsSource){\r\n            amountReceivedFromOrder = ex.tokenToTokenTransferInput(maxToSpend, 1, 1, block.timestamp, msg.sender, data.destinationToken);\r\n            amountSpentOnOrder = maxToSpend;\r\n            if(availableToSpend > amountSpentOnOrder){\r\n                ERC20SafeTransfer.safeTransfer(data.sourceToken, msg.sender, availableToSpend - amountSpentOnOrder);\r\n            }\r\n        } else {\r\n            amountSpentOnOrder = ex.tokenToTokenTransferOutput(targetAmount, maxToSpend,  Utils.max_uint(), block.timestamp, msg.sender, data.destinationToken);\r\n            amountReceivedFromOrder = targetAmount;\r\n            if(amountSpentOnOrder < availableToSpend){\r\n                ERC20SafeTransfer.safeTransfer(data.sourceToken, msg.sender, availableToSpend - amountSpentOnOrder);\r\n            }\r\n        }\r\n    }\r\n\r\n    function getMaxToSpend(\r\n        bool targetAmountIsSource,\r\n        uint256 targetAmount,\r\n        uint256 availableToSpend,\r\n        uint256 maxOrderSpend\r\n    )\r\n        internal\r\n        returns (uint256 max)\r\n    {\r\n        max = availableToSpend;\r\n        if(targetAmountIsSource){\r\n            max = Math.min(Math.min(max, targetAmount), maxOrderSpend);\r\n        }\r\n        return max;\r\n    }\r\n\r\n    function approve(\r\n        address token,\r\n        address taker\r\n    )\r\n        internal \r\n    {\r\n        if(token != Utils.eth_address()){\r\n            approveAddress(taker, token);\r\n        }\r\n    }\r\n\r\n    /// @notice payable fallback to block EOA sending eth\r\n    /// @dev this should fail if an EOA (or contract with 0 bytecode size) tries to send ETH to this contract\r\n    function() external payable {\r\n        // Check in here that the sender is a contract! (to stop accidents)\r\n        uint256 size;\r\n        address sender = msg.sender;\r\n        assembly {\r\n            size := extcodesize(sender)\r\n        }\r\n        require(size > 0);\r\n    }\r\n}\r\n",
  "sourcePath": "C:/Users/jay.sanchez/taisho_dex/contracts/exchange_handlers/UniswapHandler.sol",
  "compiler": {
    "name": "solc",
    "version": "0.5.7+commit.6da8b019.Emscripten.clang"
  },
  "schemaVersion": "3.3.2",
  "updatedAt": "2021-01-04T05:01:27.530Z",
  "networkType": "ethereum",
  "devdoc": {
    "methods": {
      "renounceOwnership()": {
        "details": "Allows the current owner to relinquish control of the contract.\r"
      },
      "transferOwnership(address)": {
        "details": "Allows the current owner to transfer control of the contract to a newOwner.\r",
        "params": {
          "_newOwner": "The address to transfer ownership to.\r"
        }
      },
      "withdrawETH(uint256)": {
        "params": {
          "_amount": "The amount of ether that the caller wants to withdraw"
        }
      },
      "withdrawToken(address,uint256)": {
        "return": "bool value indicating whether the transfer was successful"
      }
    },
    "title": "Handler for Uniswap exchange"
  },
  "userdoc": {
    "methods": {
      "constructor": "Constructor",
      "renounceOwnership()": {
        "notice": "Renouncing to ownership will leave the contract without an owner.\r It will not be possible to call the functions with the `onlyOwner`\r modifier anymore.\r"
      }
    }
  }
}