{
  "contractName": "ZeroExV3ExchangeHandler",
  "abi": [
    {
      "constant": false,
      "inputs": [],
      "name": "renounceOwnership",
      "outputs": [],
      "payable": false,
      "stateMutability": "nonpayable",
      "type": "function"
    },
    {
      "constant": true,
      "inputs": [],
      "name": "owner",
      "outputs": [
        {
          "name": "",
          "type": "address"
        }
      ],
      "payable": false,
      "stateMutability": "view",
      "type": "function"
    },
    {
      "constant": false,
      "inputs": [
        {
          "name": "_token",
          "type": "address"
        },
        {
          "name": "_amount",
          "type": "uint256"
        }
      ],
      "name": "withdrawToken",
      "outputs": [
        {
          "name": "",
          "type": "bool"
        }
      ],
      "payable": false,
      "stateMutability": "nonpayable",
      "type": "function"
    },
    {
      "constant": true,
      "inputs": [],
      "name": "exchange",
      "outputs": [
        {
          "name": "",
          "type": "address"
        }
      ],
      "payable": false,
      "stateMutability": "view",
      "type": "function"
    },
    {
      "constant": false,
      "inputs": [
        {
          "name": "_amount",
          "type": "uint256"
        }
      ],
      "name": "withdrawETH",
      "outputs": [],
      "payable": false,
      "stateMutability": "nonpayable",
      "type": "function"
    },
    {
      "constant": false,
      "inputs": [
        {
          "name": "_newOwner",
          "type": "address"
        }
      ],
      "name": "transferOwnership",
      "outputs": [],
      "payable": false,
      "stateMutability": "nonpayable",
      "type": "function"
    },
    {
      "inputs": [
        {
          "name": "_exchange",
          "type": "address"
        },
        {
          "name": "_weth",
          "type": "address"
        }
      ],
      "payable": false,
      "stateMutability": "nonpayable",
      "type": "constructor"
    },
    {
      "payable": true,
      "stateMutability": "payable",
      "type": "fallback"
    },
    {
      "anonymous": false,
      "inputs": [
        {
          "indexed": true,
          "name": "previousOwner",
          "type": "address"
        }
      ],
      "name": "OwnershipRenounced",
      "type": "event"
    },
    {
      "anonymous": false,
      "inputs": [
        {
          "indexed": true,
          "name": "previousOwner",
          "type": "address"
        },
        {
          "indexed": true,
          "name": "newOwner",
          "type": "address"
        }
      ],
      "name": "OwnershipTransferred",
      "type": "event"
    },
    {
      "constant": false,
      "inputs": [
        {
          "name": "genericPayload",
          "type": "bytes"
        },
        {
          "name": "availableToSpend",
          "type": "uint256"
        },
        {
          "name": "targetAmount",
          "type": "uint256"
        },
        {
          "name": "targetAmountIsSource",
          "type": "bool"
        }
      ],
      "name": "performOrder",
      "outputs": [
        {
          "name": "amountSpentOnOrder",
          "type": "uint256"
        },
        {
          "name": "amountReceivedFromOrder",
          "type": "uint256"
        }
      ],
      "payable": true,
      "stateMutability": "payable",
      "type": "function"
    }
  ],
  "bytecode": "0x60806040523480156200001157600080fd5b5060405160408062002684833981018060405262000033919081019062000284565b336000806101000a81548173ffffffffffffffffffffffffffffffffffffffff021916908373ffffffffffffffffffffffffffffffffffffffff16021790555081600160006101000a81548173ffffffffffffffffffffffffffffffffffffffff021916908373ffffffffffffffffffffffffffffffffffffffff160217905550600160009054906101000a900473ffffffffffffffffffffffffffffffffffffffff1673ffffffffffffffffffffffffffffffffffffffff1663607041086200011e604051806060016040528060248152602001620026606024913960006200021960201b60201c565b6040518263ffffffff1660e01b81526004016200013c9190620002d6565b60206040518083038186803b1580156200015557600080fd5b505afa1580156200016a573d6000803e3d6000fd5b505050506040513d601f19601f8201168201806040525062000190919081019062000258565b600260006101000a81548173ffffffffffffffffffffffffffffffffffffffff021916908373ffffffffffffffffffffffffffffffffffffffff16021790555080600360006101000a81548173ffffffffffffffffffffffffffffffffffffffff021916908373ffffffffffffffffffffffffffffffffffffffff160217905550505062000353565b600060048201835110156200022d57600080fd5b60008260208501015190508091505092915050565b60006200025082516200031f565b905092915050565b6000602082840312156200026b57600080fd5b60006200027b8482850162000242565b91505092915050565b600080604083850312156200029857600080fd5b6000620002a88582860162000242565b9250506020620002bb8582860162000242565b9150509250929050565b620002d081620002f3565b82525050565b6000602082019050620002ed6000830184620002c5565b92915050565b60007fffffffff0000000000000000000000000000000000000000000000000000000082169050919050565b60006200032c8262000333565b9050919050565b600073ffffffffffffffffffffffffffffffffffffffff82169050919050565b6122fd80620003636000396000f3fe6080604052600436106100705760003560e01c80639e281a981161004e5780639e281a98146100e5578063d2f7265a14610122578063f14210a61461014d578063f2fde38b1461017657610070565b80630345c2a614610072578063715018a6146100a35780638da5cb5b146100ba575b005b61008c60048036036100879190810190611ab9565b61019f565b60405161009a92919061207f565b60405180910390f35b3480156100af57600080fd5b506100b86107c4565b005b3480156100c657600080fd5b506100cf6108c4565b6040516100dc9190611f1a565b60405180910390f35b3480156100f157600080fd5b5061010c60048036036101079190810190611a7d565b6108e9565b6040516101199190611f87565b60405180910390f35b34801561012e57600080fd5b50610137610978565b6040516101449190611fa2565b60405180910390f35b34801561015957600080fd5b50610174600480360361016f9190810190611bc7565b61099e565b005b34801561018257600080fd5b5061019d60048036036101989190810190611a54565b610a62565b005b6000806101aa61147c565b868060200190516101be9190810190611b5d565b905060006101d28261016001516010610ac7565b9050600360009054906101000a900473ffffffffffffffffffffffffffffffffffffffff1673ffffffffffffffffffffffffffffffffffffffff168173ffffffffffffffffffffffffffffffffffffffff1614156102375786341461023657600080fd5b5b61024082610afe565b61030757600360009054906101000a900473ffffffffffffffffffffffffffffffffffffffff1673ffffffffffffffffffffffffffffffffffffffff168173ffffffffffffffffffffffffffffffffffffffff1614156102e6573373ffffffffffffffffffffffffffffffffffffffff166108fc889081150290604051600060405180830381858888f193505050501580156102e0573d6000803e3d6000fd5b506102f3565b6102f1813389610b38565b505b6000808191508090509350935050506107bb565b600061031283610c87565b9050600360009054906101000a900473ffffffffffffffffffffffffffffffffffffffff1673ffffffffffffffffffffffffffffffffffffffff168273ffffffffffffffffffffffffffffffffffffffff1614156103ee57600360009054906101000a900473ffffffffffffffffffffffffffffffffffffffff1673ffffffffffffffffffffffffffffffffffffffff1663d0e30db0896040518263ffffffff1660e01b81526004016000604051808303818588803b1580156103d457600080fd5b505af11580156103e8573d6000803e3d6000fd5b50505050505b600081111561051b57610423600260009054906101000a900473ffffffffffffffffffffffffffffffffffffffff1683610df9565b61042b61154a565b600160009054906101000a900473ffffffffffffffffffffffffffffffffffffffff1673ffffffffffffffffffffffffffffffffffffffff16639b44d5563a620249f00261047887610ec5565b6104938c61048e8f6104898c610c87565b610fc8565b610fc8565b886101c001516040518563ffffffff1660e01b81526004016104b79392919061201f565b6080604051808303818588803b1580156104d057600080fd5b505af11580156104e4573d6000803e3d6000fd5b50505050506040513d601f19601f820116820180604052506105099190810190611b34565b90508060200151955080600001519450505b8785101561066657600360009054906101000a900473ffffffffffffffffffffffffffffffffffffffff1673ffffffffffffffffffffffffffffffffffffffff168273ffffffffffffffffffffffffffffffffffffffff16141561065657600360009054906101000a900473ffffffffffffffffffffffffffffffffffffffff1673ffffffffffffffffffffffffffffffffffffffff16632e1a7d4d868a036040518263ffffffff1660e01b81526004016105d69190612064565b600060405180830381600087803b1580156105f057600080fd5b505af1158015610604573d6000803e3d6000fd5b505050503373ffffffffffffffffffffffffffffffffffffffff166108fc868a039081150290604051600060405180830381858888f19350505050158015610650573d6000803e3d6000fd5b50610665565b6106638233878b03610b38565b505b5b60006106788461014001516010610ac7565b9050600360009054906101000a900473ffffffffffffffffffffffffffffffffffffffff1673ffffffffffffffffffffffffffffffffffffffff168173ffffffffffffffffffffffffffffffffffffffff1614156107a957600360009054906101000a900473ffffffffffffffffffffffffffffffffffffffff1673ffffffffffffffffffffffffffffffffffffffff16632e1a7d4d866040518263ffffffff1660e01b815260040161072b9190612064565b600060405180830381600087803b15801561074557600080fd5b505af1158015610759573d6000803e3d6000fd5b505050503373ffffffffffffffffffffffffffffffffffffffff166108fc869081150290604051600060405180830381858888f193505050501580156107a3573d6000803e3d6000fd5b506107b6565b6107b4813387610b38565b505b505050505b94509492505050565b6000809054906101000a900473ffffffffffffffffffffffffffffffffffffffff1673ffffffffffffffffffffffffffffffffffffffff163373ffffffffffffffffffffffffffffffffffffffff161461081d57600080fd5b6000809054906101000a900473ffffffffffffffffffffffffffffffffffffffff1673ffffffffffffffffffffffffffffffffffffffff167ff8df31144d9c2f0f6b59d69b8b98abd5459d07f2742c4df920b25aae33c6482060405160405180910390a260008060006101000a81548173ffffffffffffffffffffffffffffffffffffffff021916908373ffffffffffffffffffffffffffffffffffffffff160217905550565b6000809054906101000a900473ffffffffffffffffffffffffffffffffffffffff1681565b60008060009054906101000a900473ffffffffffffffffffffffffffffffffffffffff1673ffffffffffffffffffffffffffffffffffffffff163373ffffffffffffffffffffffffffffffffffffffff161461094457600080fd5b610970836000809054906101000a900473ffffffffffffffffffffffffffffffffffffffff1684610b38565b905092915050565b600160009054906101000a900473ffffffffffffffffffffffffffffffffffffffff1681565b6000809054906101000a900473ffffffffffffffffffffffffffffffffffffffff1673ffffffffffffffffffffffffffffffffffffffff163373ffffffffffffffffffffffffffffffffffffffff16146109f757600080fd5b6000809054906101000a900473ffffffffffffffffffffffffffffffffffffffff1673ffffffffffffffffffffffffffffffffffffffff166108fc829081150290604051600060405180830381858888f19350505050158015610a5e573d6000803e3d6000fd5b5050565b6000809054906101000a900473ffffffffffffffffffffffffffffffffffffffff1673ffffffffffffffffffffffffffffffffffffffff163373ffffffffffffffffffffffffffffffffffffffff1614610abb57600080fd5b610ac481610fe1565b50565b60006014820183511015610ada57600080fd5b60006c01000000000000000000000000836020860101510490508091505092915050565b60008161010001514211158015610b3157503a620249f0023073ffffffffffffffffffffffffffffffffffffffff163110155b9050919050565b60008373ffffffffffffffffffffffffffffffffffffffff168383604051602401610b64929190611f5e565b6040516020818303038152906040527fa9059cbb000000000000000000000000000000000000000000000000000000007bffffffffffffffffffffffffffffffffffffffffffffffffffffffff19166020820180517bffffffffffffffffffffffffffffffffffffffffffffffffffffffff8381831617835250505050604051610bee9190611ee8565b6000604051808303816000865af19150503d8060008114610c2b576040519150601f19603f3d011682016040523d82523d6000602084013e610c30565b606091505b50508091505080610c76576040517f08c379a0000000000000000000000000000000000000000000000000000000008152600401610c6d90611fbd565b60405180910390fd5b610c7e6110d9565b90509392505050565b6000610c91611572565b600160009054906101000a900473ffffffffffffffffffffffffffffffffffffffff1673ffffffffffffffffffffffffffffffffffffffff16639d3fa4b9610cd885610ec5565b6040518263ffffffff1660e01b8152600401610cf49190611ffd565b60606040518083038186803b158015610d0c57600080fd5b505afa158015610d20573d6000803e3d6000fd5b505050506040513d601f19601f82011682018060405250610d449190810190611b9e565b90506003816000015160ff1614610d5f576000915050610df4565b6000610d74846101400151856000015161110a565b90506000808560c0015114610dad57610da8610d99866101800151876000015161110a565b8660c001518760a00151611267565b610db6565b610db5611285565b5b9050610dee610dd7610dd18488608001518960a00151611267565b83610fc8565b610de98760a0015186604001516112ad565b610fc8565b93505050505b919050565b60008173ffffffffffffffffffffffffffffffffffffffff1663dd62ed3e30856040518363ffffffff1660e01b8152600401610e36929190611f35565b60206040518083038186803b158015610e4e57600080fd5b505afa158015610e62573d6000803e3d6000fd5b505050506040513d601f19601f82011682018060405250610e869190810190611bf0565b1415610ec157610eb781837fffffffffffffffffffffffffffffffffffffffffffffffffffffffffffffffff6112cd565b610ec057600080fd5b5b5050565b610ecd611599565b604051806101c00160405280836000015173ffffffffffffffffffffffffffffffffffffffff168152602001836020015173ffffffffffffffffffffffffffffffffffffffff168152602001836040015173ffffffffffffffffffffffffffffffffffffffff168152602001836060015173ffffffffffffffffffffffffffffffffffffffff168152602001836080015181526020018360a0015181526020018360c0015181526020018360e00151815260200183610100015181526020018361012001518152602001836101400151815260200183610160015181526020018361018001518152602001836101a001518152509050919050565b6000818310610fd75781610fd9565b825b905092915050565b600073ffffffffffffffffffffffffffffffffffffffff168173ffffffffffffffffffffffffffffffffffffffff16141561101b57600080fd5b8073ffffffffffffffffffffffffffffffffffffffff166000809054906101000a900473ffffffffffffffffffffffffffffffffffffffff1673ffffffffffffffffffffffffffffffffffffffff167f8be0079c531659141344cd1fd0a4f28419497f9722a3daafe3b4186f6b6457e060405160405180910390a3806000806101000a81548173ffffffffffffffffffffffffffffffffffffffff021916908373ffffffffffffffffffffffffffffffffffffffff16021790555050565b60003d600081146110f157602081146110fa57600080fd5b60019150611106565b60206000803e60005191505b5090565b600080611118846010610ac7565b9050600081905061125d8173ffffffffffffffffffffffffffffffffffffffff166370a08231866040518263ffffffff1660e01b815260040161115b9190611eff565b60206040518083038186803b15801561117357600080fd5b505afa158015611187573d6000803e3d6000fd5b505050506040513d601f19601f820116820180604052506111ab9190810190611bf0565b8273ffffffffffffffffffffffffffffffffffffffff1663dd62ed3e87600260009054906101000a900473ffffffffffffffffffffffffffffffffffffffff166040518363ffffffff1660e01b8152600401611208929190611f35565b60206040518083038186803b15801561122057600080fd5b505afa158015611234573d6000803e3d6000fd5b505050506040513d601f19601f820116820180604052506112589190810190611bf0565b610fc8565b9250505092915050565b600061127c611276858461141c565b84611456565b90509392505050565b60007fffffffffffffffffffffffffffffffffffffffffffffffffffffffffffffffff905090565b6000828211156112bc57600080fd5b600082840390508091505092915050565b60008373ffffffffffffffffffffffffffffffffffffffff1683836040516024016112f9929190611f5e565b6040516020818303038152906040527f095ea7b3000000000000000000000000000000000000000000000000000000007bffffffffffffffffffffffffffffffffffffffffffffffffffffffff19166020820180517bffffffffffffffffffffffffffffffffffffffffffffffffffffffff83818316178352505050506040516113839190611ee8565b6000604051808303816000865af19150503d80600081146113c0576040519150601f19603f3d011682016040523d82523d6000602084013e6113c5565b606091505b5050809150508061140b576040517f08c379a000000000000000000000000000000000000000000000000000000000815260040161140290611fdd565b60405180910390fd5b6114136110d9565b90509392505050565b60008083141561142f5760009050611450565b600082840290508284828161144057fe5b041461144b57600080fd5b809150505b92915050565b600080821161146457600080fd5b600082848161146f57fe5b0490508091505092915050565b604051806101e00160405280600073ffffffffffffffffffffffffffffffffffffffff168152602001600073ffffffffffffffffffffffffffffffffffffffff168152602001600073ffffffffffffffffffffffffffffffffffffffff168152602001600073ffffffffffffffffffffffffffffffffffffffff16815260200160008152602001600081526020016000815260200160008152602001600081526020016000815260200160608152602001606081526020016060815260200160608152602001606081525090565b6040518060800160405280600081526020016000815260200160008152602001600081525090565b6040518060600160405280600060ff16815260200160008019168152602001600081525090565b604051806101c00160405280600073ffffffffffffffffffffffffffffffffffffffff168152602001600073ffffffffffffffffffffffffffffffffffffffff168152602001600073ffffffffffffffffffffffffffffffffffffffff168152602001600073ffffffffffffffffffffffffffffffffffffffff168152602001600081526020016000815260200160008152602001600081526020016000815260200160008152602001606081526020016060815260200160608152602001606081525090565b600061166c82356121db565b905092915050565b600061168082516121db565b905092915050565b600061169482356121ed565b905092915050565b60006116a882356121ff565b905092915050565b60006116bc825161220b565b905092915050565b600082601f8301126116d557600080fd5b81516116e86116e3826120d5565b6120a8565b9150808252602083016020830185838301111561170457600080fd5b61170f83828461227f565b50505092915050565b600082601f83011261172957600080fd5b813561173c61173782612101565b6120a8565b9150808252602083016020830185838301111561175857600080fd5b611763838284612270565b50505092915050565b60006080828403121561177e57600080fd5b61178860806120a8565b9050600061179884828501611a2c565b60008301525060206117ac84828501611a2c565b60208301525060406117c084828501611a2c565b60408301525060606117d484828501611a2c565b60608301525092915050565b60006101e082840312156117f357600080fd5b6117fe6101e06120a8565b9050600061180e84828501611674565b600083015250602061182284828501611674565b602083015250604061183684828501611674565b604083015250606061184a84828501611674565b606083015250608061185e84828501611a2c565b60808301525060a061187284828501611a2c565b60a08301525060c061188684828501611a2c565b60c08301525060e061189a84828501611a2c565b60e0830152506101006118af84828501611a2c565b610100830152506101206118c584828501611a2c565b6101208301525061014082015167ffffffffffffffff8111156118e757600080fd5b6118f3848285016116c4565b6101408301525061016082015167ffffffffffffffff81111561191557600080fd5b611921848285016116c4565b6101608301525061018082015167ffffffffffffffff81111561194357600080fd5b61194f848285016116c4565b610180830152506101a082015167ffffffffffffffff81111561197157600080fd5b61197d848285016116c4565b6101a0830152506101c082015167ffffffffffffffff81111561199f57600080fd5b6119ab848285016116c4565b6101c08301525092915050565b6000606082840312156119ca57600080fd5b6119d460606120a8565b905060006119e484828501611a40565b60008301525060206119f8848285016116b0565b6020830152506040611a0c84828501611a2c565b60408301525092915050565b6000611a248235612235565b905092915050565b6000611a388251612235565b905092915050565b6000611a4c825161223f565b905092915050565b600060208284031215611a6657600080fd5b6000611a7484828501611688565b91505092915050565b60008060408385031215611a9057600080fd5b6000611a9e85828601611660565b9250506020611aaf85828601611a18565b9150509250929050565b60008060008060808587031215611acf57600080fd5b600085013567ffffffffffffffff811115611ae957600080fd5b611af587828801611718565b9450506020611b0687828801611a18565b9350506040611b1787828801611a18565b9250506060611b288782880161169c565b91505092959194509250565b600060808284031215611b4657600080fd5b6000611b548482850161176c565b91505092915050565b600060208284031215611b6f57600080fd5b600082015167ffffffffffffffff811115611b8957600080fd5b611b95848285016117e0565b91505092915050565b600060608284031215611bb057600080fd5b6000611bbe848285016119b8565b91505092915050565b600060208284031215611bd957600080fd5b6000611be784828501611a18565b91505092915050565b600060208284031215611c0257600080fd5b6000611c1084828501611a2c565b91505092915050565b611c2281612193565b82525050565b611c3181612181565b82525050565b611c4081612181565b82525050565b611c4f816121a5565b82525050565b6000611c6082612138565b611c6a8185612165565b9350611c7a81856020860161227f565b80840191505092915050565b6000611c918261212d565b611c9b8185612143565b9350611cab81856020860161227f565b611cb4816122b2565b840191505092915050565b6000611cca8261212d565b611cd48185612154565b9350611ce481856020860161227f565b611ced816122b2565b840191505092915050565b611d018161224c565b82525050565b6000611d14600f83612170565b91507f5472616e73666572206661696c656400000000000000000000000000000000006000830152602082019050919050565b6000611d54600e83612170565b91507f417070726f7665206661696c65640000000000000000000000000000000000006000830152602082019050919050565b60006101c083016000830151611da06000860182611c28565b506020830151611db36020860182611c28565b506040830151611dc66040860182611c28565b506060830151611dd96060860182611c28565b506080830151611dec6080860182611eca565b5060a0830151611dff60a0860182611eca565b5060c0830151611e1260c0860182611eca565b5060e0830151611e2560e0860182611eca565b50610100830151611e3a610100860182611eca565b50610120830151611e4f610120860182611eca565b50610140830151848203610140860152611e698282611c86565b915050610160830151848203610160860152611e858282611c86565b915050610180830151848203610180860152611ea18282611c86565b9150506101a08301518482036101a0860152611ebd8282611c86565b9150508091505092915050565b611ed3816121d1565b82525050565b611ee2816121d1565b82525050565b6000611ef48284611c55565b915081905092915050565b6000602082019050611f146000830184611c37565b92915050565b6000602082019050611f2f6000830184611c19565b92915050565b6000604082019050611f4a6000830185611c37565b611f576020830184611c37565b9392505050565b6000604082019050611f736000830185611c37565b611f806020830184611ed9565b9392505050565b6000602082019050611f9c6000830184611c46565b92915050565b6000602082019050611fb76000830184611cf8565b92915050565b60006020820190508181036000830152611fd681611d07565b9050919050565b60006020820190508181036000830152611ff681611d47565b9050919050565b600060208201905081810360008301526120178184611d87565b905092915050565b600060608201905081810360008301526120398186611d87565b90506120486020830185611ed9565b818103604083015261205a8184611cbf565b9050949350505050565b60006020820190506120796000830184611ed9565b92915050565b60006040820190506120946000830185611ed9565b6120a16020830184611ed9565b9392505050565b6000604051905081810181811067ffffffffffffffff821117156120cb57600080fd5b8060405250919050565b600067ffffffffffffffff8211156120ec57600080fd5b601f19601f8301169050602081019050919050565b600067ffffffffffffffff82111561211857600080fd5b601f19601f8301169050602081019050919050565b600081519050919050565b600081519050919050565b600082825260208201905092915050565b600082825260208201905092915050565b600081905092915050565b600082825260208201905092915050565b600061218c826121b1565b9050919050565b600061219e826121b1565b9050919050565b60008115159050919050565b600073ffffffffffffffffffffffffffffffffffffffff82169050919050565b6000819050919050565b60006121e682612215565b9050919050565b60006121f882612215565b9050919050565b60008115159050919050565b6000819050919050565b600073ffffffffffffffffffffffffffffffffffffffff82169050919050565b6000819050919050565b600060ff82169050919050565b60006122578261225e565b9050919050565b6000612269826121b1565b9050919050565b82818337600083830152505050565b60005b8381101561229d578082015181840152602081019050612282565b838111156122ac576000848401525b50505050565b6000601f19601f830116905091905056fea265627a7a72305820f480ca599d4c7f109e2ab1365335097fc36818a6e9e613b2b02c5fe95fc28d356c6578706572696d656e74616cf50037f47261b0000000000000000000000000e41d2489571d322189246dafa5ebde1f4699f498",
  "source": "pragma solidity 0.5.7;\r\npragma experimental ABIEncoderV2;\r\n\r\nimport \"../lib/SafeMath.sol\";\r\nimport \"../lib/Math.sol\";\r\nimport \"../lib/Utils.sol\";\r\nimport \"../lib/AllowanceSetter.sol\";\r\nimport \"./ExchangeHandler.sol\";\r\nimport \"./interfaces/zeroex/IExchangeCoreV3.sol\";\r\nimport \"../lib/TotleControl.sol\";\r\n\r\ninterface WETH {\r\n    function deposit() external payable;\r\n    function withdraw(uint256 amount) external;\r\n}\r\n\r\n\r\n/// @title ZeroExExchangeHandler\r\n/// @notice Handles the all ZeroExExchange trades for the primary contract\r\ncontract ZeroExV3ExchangeHandler is ExchangeHandler, AllowanceSetter  {\r\n\r\n    /*\r\n    *   State Variables\r\n    */\r\n    uint256 constant PROTOCOL_FEE_CONSTANT = 150000;\r\n    IExchangeCore public exchange;\r\n    /// @dev note that this is dependent on the deployment of 0xV3. This is the ERC20 asset proxy + the mainnet address of the ZRX token\r\n    bytes constant ZRX_ASSET_DATA = \"\\xf4\\x72\\x61\\xb0\\x00\\x00\\x00\\x00\\x00\\x00\\x00\\x00\\x00\\x00\\x00\\x00\\xe4\\x1d\\x24\\x89\\x57\\x1d\\x32\\x21\\x89\\x24\\x6d\\xaf\\xa5\\xeb\\xde\\x1f\\x46\\x99\\xf4\\x98\";\r\n    address ERC20_ASSET_PROXY;\r\n    WETH weth;\r\n\r\n    /*\r\n    *   Types\r\n    */\r\n\r\n    /// @notice Constructor\r\n    /// @param _exchange Address of the IExchangeCore exchange\r\n    constructor(\r\n        address _exchange,\r\n        address _weth\r\n    ) \r\n        public\r\n    {\r\n        exchange = IExchangeCore(_exchange);\r\n        ERC20_ASSET_PROXY = exchange.getAssetProxy(toBytes4(ZRX_ASSET_DATA, 0));\r\n        weth = WETH(_weth);\r\n    }\r\n\r\n\r\n    struct OrderData {\r\n        address makerAddress;           // Address that created the order.\r\n        address takerAddress;           // Address that is allowed to fill the order. If set to 0, any address is allowed to fill the order.\r\n        address feeRecipientAddress;    // Address that will recieve fees when order is filled.\r\n        address senderAddress;          // Address that is allowed to call Exchange contract methods that affect this order. If set to 0, any address is allowed to call these methods.\r\n        uint256 makerAssetAmount;       // Amount of makerAsset being offered by maker. Must be greater than 0.\r\n        uint256 takerAssetAmount;       // Amount of takerAsset being bid on by maker. Must be greater than 0.\r\n        uint256 makerFee;               // Amount of ZRX paid to feeRecipient by maker when order is filled. If set to 0, no transfer of ZRX from maker to feeRecipient will be attempted.\r\n        uint256 takerFee;               // Amount of ZRX paid to feeRecipient by taker when order is filled. If set to 0, no transfer of ZRX from taker to feeRecipient will be attempted.\r\n        uint256 expirationTimeSeconds;  // Timestamp in seconds at which order expires.\r\n        uint256 salt;                   // Arbitrary number to facilitate uniqueness of the order's hash.\r\n        bytes makerAssetData;           // Encoded data that can be decoded by a specified proxy contract when transferring makerAsset. The last byte references the id of this proxy.\r\n        bytes takerAssetData;           // Encoded data that can be decoded by a specified proxy contract when transferring takerAsset. The last byte references the id of this proxy.\r\n        bytes makerFeeAssetData;        // Encoded data that represents data for the maker fee asset\r\n        bytes takerFeeAssetData;        // Encoded data that represents data for the taker fee asset\r\n        bytes signature;\r\n    }\r\n\r\n    /*\r\n    *   Public functions\r\n    */\r\n\r\n\r\n\r\n    /*\r\n    *   Internal functions\r\n    */\r\n\r\n    /// @notice Gets the amount that Totle needs to give for this order\r\n    /// @param data LibOrder.Order struct containing order values\r\n    /// @return amountToGive amount taker needs to give in order to fill the order\r\n    function getAmountToGive(\r\n        OrderData memory data\r\n    )\r\n      internal\r\n      view\r\n      returns (uint256 amountToGive)\r\n    {\r\n        LibOrder.OrderInfo memory orderInfo = exchange.getOrderInfo(\r\n            getZeroExOrder(data)\r\n        );\r\n        if(orderInfo.orderStatus != 3){\r\n            return 0;\r\n        }\r\n        uint makerAssetAvailable = getAssetDataAvailable(data.makerAssetData, data.makerAddress);\r\n\r\n        uint maxFromMakerFee = data.makerFee == 0 ? Utils.max_uint() : getPartialAmount(\r\n            getAssetDataAvailable(data.makerFeeAssetData, data.makerAddress),\r\n            data.makerFee,\r\n            data.takerAssetAmount\r\n        );\r\n        amountToGive = Math.min(\r\n            Math.min(\r\n                getPartialAmount(makerAssetAvailable, data.makerAssetAmount, data.takerAssetAmount),\r\n                maxFromMakerFee\r\n            ),\r\n            SafeMath.sub(data.takerAssetAmount, orderInfo.orderTakerAssetFilledAmount)\r\n        );\r\n    }\r\n\r\n    function getAssetDataAvailable(bytes memory assetData, address account) internal view returns (uint){\r\n        address tokenAddress = toAddress(assetData, 16);\r\n        ERC20 token = ERC20(tokenAddress);\r\n        return Math.min(token.balanceOf(account), token.allowance(account, ERC20_ASSET_PROXY));\r\n    }\r\n\r\n    function getZeroExOrder(OrderData memory data) internal pure returns (LibOrder.Order memory) {\r\n        return LibOrder.Order({\r\n            makerAddress: data.makerAddress,\r\n            takerAddress: data.takerAddress,\r\n            feeRecipientAddress: data.feeRecipientAddress,\r\n            senderAddress: data.senderAddress,\r\n            makerAssetAmount: data.makerAssetAmount,\r\n            takerAssetAmount: data.takerAssetAmount,\r\n            makerFee: data.makerFee,\r\n            takerFee: data.takerFee,\r\n            expirationTimeSeconds: data.expirationTimeSeconds,\r\n            salt: data.salt,\r\n            makerAssetData: data.makerAssetData,\r\n            takerAssetData: data.takerAssetData,\r\n            makerFeeAssetData: data.makerFeeAssetData,\r\n            takerFeeAssetData: data.takerFeeAssetData\r\n        });\r\n    }\r\n\r\n    /// @notice Perform exchange-specific checks on the given order\r\n    /// @dev This should be called to check for payload errors\r\n    /// @param data LibOrder.Order struct containing order values\r\n    /// @return checksPassed value representing pass or fail\r\n    function staticExchangeChecks(\r\n        OrderData memory data\r\n    )\r\n        internal\r\n        view\r\n        returns (bool checksPassed)\r\n    {\r\n\r\n        // Make sure that:\r\n        //  The order is not expired\r\n        //  We have enough eth to pay the protocol fee\r\n        return (block.timestamp <= data.expirationTimeSeconds &&\r\n                address(this).balance >= PROTOCOL_FEE_CONSTANT*tx.gasprice\r\n        );\r\n    }\r\n\r\n    function performOrder(\r\n        bytes memory genericPayload,\r\n        uint256 availableToSpend,\r\n        uint256 targetAmount,\r\n        bool targetAmountIsSource\r\n    )\r\n        public\r\n        payable\r\n        returns (uint256 amountSpentOnOrder, uint256 amountReceivedFromOrder)\r\n    {\r\n        OrderData memory data = abi.decode(genericPayload, (OrderData));\r\n        address sourceAddress = toAddress(data.takerAssetData, 16);\r\n        if(sourceAddress == address(weth)){\r\n            require(msg.value == availableToSpend);\r\n        }\r\n        if(!staticExchangeChecks(data)){\r\n            if(sourceAddress == address(weth)){\r\n                msg.sender.transfer(availableToSpend);\r\n            } else {\r\n                ERC20SafeTransfer.safeTransfer(sourceAddress, msg.sender, availableToSpend);\r\n            }\r\n            return (0,0);\r\n\r\n        }\r\n        uint256 amountToGive = getAmountToGive(data);\r\n        if(sourceAddress == address(weth)){\r\n            weth.deposit.value(availableToSpend)();\r\n        }\r\n        if(amountToGive > 0){\r\n            approveAddress(ERC20_ASSET_PROXY, sourceAddress);\r\n\r\n            LibFillResults.FillResults memory results = exchange.fillOrder.value(PROTOCOL_FEE_CONSTANT*tx.gasprice)(\r\n                getZeroExOrder(data),\r\n                Math.min(targetAmount, Math.min(availableToSpend, getAmountToGive(data))),\r\n                data.signature\r\n            );\r\n\r\n            amountSpentOnOrder = results.takerAssetFilledAmount;\r\n            amountReceivedFromOrder = results.makerAssetFilledAmount;\r\n        }\r\n\r\n        if(amountSpentOnOrder < availableToSpend){\r\n            if(sourceAddress == address(weth)){\r\n                weth.withdraw(availableToSpend - amountSpentOnOrder);\r\n                msg.sender.transfer(availableToSpend - amountSpentOnOrder);\r\n            } else {\r\n                ERC20SafeTransfer.safeTransfer(sourceAddress, msg.sender, availableToSpend - amountSpentOnOrder);\r\n            }\r\n        }\r\n\r\n        address destinationAddress = toAddress(data.makerAssetData, 16);\r\n\r\n        if(destinationAddress == address(weth)){\r\n            weth.withdraw(amountReceivedFromOrder);\r\n            msg.sender.transfer(amountReceivedFromOrder);\r\n        } else {\r\n            ERC20SafeTransfer.safeTransfer(destinationAddress, msg.sender, amountReceivedFromOrder);\r\n        }\r\n\r\n\r\n    }\r\n\r\n    /// @notice Calculate the result of ((numerator * target) / denominator)\r\n    /// @param numerator the numerator in the equation\r\n    /// @param denominator the denominator in the equation\r\n    /// @param target the target for the equations\r\n    /// @return partialAmount the resultant value\r\n    function getPartialAmount(\r\n        uint256 numerator,\r\n        uint256 denominator,\r\n        uint256 target\r\n    )\r\n        internal\r\n        pure\r\n        returns (uint256)\r\n    {\r\n        return SafeMath.div(SafeMath.mul(numerator, target), denominator);\r\n    }\r\n\r\n    // @notice Extract an address from a string of bytes\r\n    // @param _bytes a string of at least 20 bytes\r\n    // @param _start the offset of the address within the byte stream\r\n    // @return tempAddress the address encoded in the bytestring beginning at _start\r\n    function toAddress(bytes memory _bytes, uint _start) internal  pure returns (address) {\r\n        require(_bytes.length >= (_start + 20));\r\n        address tempAddress;\r\n\r\n        assembly {\r\n            tempAddress := div(mload(add(add(_bytes, 0x20), _start)), 0x1000000000000000000000000)\r\n        }\r\n\r\n        return tempAddress;\r\n    }\r\n\r\n    function toBytes4(bytes memory _bytes, uint _start) internal pure returns (bytes4) {\r\n        require(_bytes.length >= (_start + 4));\r\n        bytes4 tempBytes4;\r\n\r\n        assembly {\r\n            tempBytes4 := mload(add(add(_bytes, 0x20), _start))\r\n        }\r\n        return tempBytes4;\r\n    }\r\n\r\n    // @notice Extract a uint256 from a string of bytes\r\n    // @param _bytes a string of at least 32 bytes\r\n    // @param _start the offset of the uint256 within the byte stream\r\n    // @return tempUint the uint encoded in the bytestring beginning at _start\r\n    function toUint(bytes memory _bytes, uint _start) internal  pure returns (uint256) {\r\n        require(_bytes.length >= (_start + 32));\r\n        uint256 tempUint;\r\n\r\n        assembly {\r\n            tempUint := mload(add(add(_bytes, 0x20), _start))\r\n        }\r\n\r\n        return tempUint;\r\n    }\r\n\r\n    /*\r\n    *   Payable fallback function\r\n    */\r\n\r\n    function() external payable {\r\n    }\r\n}\r\n",
  "sourcePath": "C:/Users/jay.sanchez/taisho_dex/contracts/exchange_handlers/ZeroExV3ExchangeHandler.sol",
  "compiler": {
    "name": "solc",
    "version": "0.5.7+commit.6da8b019.Emscripten.clang"
  },
  "schemaVersion": "3.3.2",
  "updatedAt": "2021-01-06T03:22:15.561Z",
  "devdoc": {
    "methods": {
      "constructor": {
        "params": {
          "_exchange": "Address of the IExchangeCore exchange"
        }
      },
      "renounceOwnership()": {
        "details": "Allows the current owner to relinquish control of the contract.\r"
      },
      "transferOwnership(address)": {
        "details": "Allows the current owner to transfer control of the contract to a newOwner.\r",
        "params": {
          "_newOwner": "The address to transfer ownership to.\r"
        }
      },
      "withdrawETH(uint256)": {
        "params": {
          "_amount": "The amount of ether that the caller wants to withdraw"
        }
      },
      "withdrawToken(address,uint256)": {
        "return": "bool value indicating whether the transfer was successful"
      }
    }
  },
  "userdoc": {
    "methods": {
      "renounceOwnership()": {
        "notice": "Renouncing to ownership will leave the contract without an owner.\r It will not be possible to call the functions with the `onlyOwner`\r modifier anymore.\r"
      }
    },
    "notice": "Handles the all ZeroExExchange trades for the primary contract"
  }
}