{
  "contractName": "ZeroExExchangeHandler",
  "abi": [
    {
      "constant": false,
      "inputs": [
        {
          "name": "_totlePrimary",
          "type": "address"
        }
      ],
      "name": "addTotle",
      "outputs": [],
      "payable": false,
      "stateMutability": "nonpayable",
      "type": "function"
    },
    {
      "constant": false,
      "inputs": [],
      "name": "renounceOwnership",
      "outputs": [],
      "payable": false,
      "stateMutability": "nonpayable",
      "type": "function"
    },
    {
      "constant": true,
      "inputs": [],
      "name": "owner",
      "outputs": [
        {
          "name": "",
          "type": "address"
        }
      ],
      "payable": false,
      "stateMutability": "view",
      "type": "function"
    },
    {
      "constant": false,
      "inputs": [
        {
          "name": "_token",
          "type": "address"
        },
        {
          "name": "_amount",
          "type": "uint256"
        }
      ],
      "name": "withdrawToken",
      "outputs": [
        {
          "name": "",
          "type": "bool"
        }
      ],
      "payable": false,
      "stateMutability": "nonpayable",
      "type": "function"
    },
    {
      "constant": false,
      "inputs": [
        {
          "name": "_totlePrimary",
          "type": "address"
        }
      ],
      "name": "removeTotle",
      "outputs": [],
      "payable": false,
      "stateMutability": "nonpayable",
      "type": "function"
    },
    {
      "constant": true,
      "inputs": [
        {
          "name": "",
          "type": "address"
        }
      ],
      "name": "authorizedPrimaries",
      "outputs": [
        {
          "name": "",
          "type": "bool"
        }
      ],
      "payable": false,
      "stateMutability": "view",
      "type": "function"
    },
    {
      "constant": true,
      "inputs": [],
      "name": "exchange",
      "outputs": [
        {
          "name": "",
          "type": "address"
        }
      ],
      "payable": false,
      "stateMutability": "view",
      "type": "function"
    },
    {
      "constant": false,
      "inputs": [
        {
          "name": "_amount",
          "type": "uint256"
        }
      ],
      "name": "withdrawETH",
      "outputs": [],
      "payable": false,
      "stateMutability": "nonpayable",
      "type": "function"
    },
    {
      "constant": false,
      "inputs": [
        {
          "name": "_newOwner",
          "type": "address"
        }
      ],
      "name": "transferOwnership",
      "outputs": [],
      "payable": false,
      "stateMutability": "nonpayable",
      "type": "function"
    },
    {
      "inputs": [
        {
          "name": "_exchange",
          "type": "address"
        },
        {
          "name": "_weth",
          "type": "address"
        },
        {
          "name": "_primary",
          "type": "address"
        }
      ],
      "payable": false,
      "stateMutability": "nonpayable",
      "type": "constructor"
    },
    {
      "payable": true,
      "stateMutability": "payable",
      "type": "fallback"
    },
    {
      "anonymous": false,
      "inputs": [
        {
          "indexed": true,
          "name": "previousOwner",
          "type": "address"
        }
      ],
      "name": "OwnershipRenounced",
      "type": "event"
    },
    {
      "anonymous": false,
      "inputs": [
        {
          "indexed": true,
          "name": "previousOwner",
          "type": "address"
        },
        {
          "indexed": true,
          "name": "newOwner",
          "type": "address"
        }
      ],
      "name": "OwnershipTransferred",
      "type": "event"
    },
    {
      "constant": false,
      "inputs": [
        {
          "name": "genericPayload",
          "type": "bytes"
        },
        {
          "name": "availableToSpend",
          "type": "uint256"
        },
        {
          "name": "targetAmount",
          "type": "uint256"
        },
        {
          "name": "targetAmountIsSource",
          "type": "bool"
        }
      ],
      "name": "performOrder",
      "outputs": [
        {
          "name": "amountSpentOnOrder",
          "type": "uint256"
        },
        {
          "name": "amountReceivedFromOrder",
          "type": "uint256"
        }
      ],
      "payable": true,
      "stateMutability": "payable",
      "type": "function"
    }
  ],
  "bytecode": "0x60806040523480156200001157600080fd5b5060405160608062002a998339810180604052620000339190810190620002de565b80336000806101000a81548173ffffffffffffffffffffffffffffffffffffffff021916908373ffffffffffffffffffffffffffffffffffffffff16021790555060018060008373ffffffffffffffffffffffffffffffffffffffff1673ffffffffffffffffffffffffffffffffffffffff16815260200190815260200160002060006101000a81548160ff0219169083151502179055505082600260006101000a81548173ffffffffffffffffffffffffffffffffffffffff021916908373ffffffffffffffffffffffffffffffffffffffff160217905550600260009054906101000a900473ffffffffffffffffffffffffffffffffffffffff1673ffffffffffffffffffffffffffffffffffffffff1663607041086200017760405180606001604052806024815260200162002a756024913960006200027360201b60201c565b6040518263ffffffff1660e01b815260040162000195919062000345565b60206040518083038186803b158015620001ae57600080fd5b505afa158015620001c3573d6000803e3d6000fd5b505050506040513d601f19601f82011682018060405250620001e99190810190620002b2565b600360006101000a81548173ffffffffffffffffffffffffffffffffffffffff021916908373ffffffffffffffffffffffffffffffffffffffff16021790555081600460006101000a81548173ffffffffffffffffffffffffffffffffffffffff021916908373ffffffffffffffffffffffffffffffffffffffff160217905550505050620003c2565b600060048201835110156200028757600080fd5b60008260208501015190508091505092915050565b6000620002aa82516200038e565b905092915050565b600060208284031215620002c557600080fd5b6000620002d5848285016200029c565b91505092915050565b600080600060608486031215620002f457600080fd5b600062000304868287016200029c565b935050602062000317868287016200029c565b92505060406200032a868287016200029c565b9150509250925092565b6200033f8162000362565b82525050565b60006020820190506200035c600083018462000334565b92915050565b60007fffffffff0000000000000000000000000000000000000000000000000000000082169050919050565b60006200039b82620003a2565b9050919050565b600073ffffffffffffffffffffffffffffffffffffffff82169050919050565b6126a380620003d26000396000f3fe6080604052600436106100915760003560e01c8063a0f65d1511610059578063a0f65d15146101c6578063c3fb1b11146101ef578063d2f7265a1461022c578063f14210a614610257578063f2fde38b1461028057610091565b80630345c2a6146100ed5780633700dd461461011e578063715018a6146101475780638da5cb5b1461015e5780639e281a9814610189575b600460009054906101000a900473ffffffffffffffffffffffffffffffffffffffff1673ffffffffffffffffffffffffffffffffffffffff163373ffffffffffffffffffffffffffffffffffffffff16146100eb57600080fd5b005b61010760048036036101029190810190611e73565b6102a9565b604051610115929190612401565b60405180910390f35b34801561012a57600080fd5b5061014560048036036101409190810190611de5565b6108a3565b005b34801561015357600080fd5b5061015c610956565b005b34801561016a57600080fd5b50610173610a56565b604051610180919061229c565b60405180910390f35b34801561019557600080fd5b506101b060048036036101ab9190810190611e37565b610a7b565b6040516101bd9190612309565b60405180910390f35b3480156101d257600080fd5b506101ed60048036036101e89190810190611de5565b610b0a565b005b3480156101fb57600080fd5b5061021660048036036102119190810190611de5565b610bbe565b6040516102239190612309565b60405180910390f35b34801561023857600080fd5b50610241610bde565b60405161024e9190612324565b60405180910390f35b34801561026357600080fd5b5061027e60048036036102799190810190611f81565b610c04565b005b34801561028c57600080fd5b506102a760048036036102a29190810190611e0e565b610cc8565b005b600080600160003373ffffffffffffffffffffffffffffffffffffffff1673ffffffffffffffffffffffffffffffffffffffff16815260200190815260200160002060009054906101000a900460ff1661030257600080fd5b61030a611885565b8680602001905161031e9190810190611f17565b905060006103328261016001516010610d2d565b905061033d82610d64565b61040457600460009054906101000a900473ffffffffffffffffffffffffffffffffffffffff1673ffffffffffffffffffffffffffffffffffffffff168173ffffffffffffffffffffffffffffffffffffffff1614156103e3573373ffffffffffffffffffffffffffffffffffffffff166108fc889081150290604051600060405180830381858888f193505050501580156103dd573d6000803e3d6000fd5b506103f0565b6103ee813389610f30565b505b60008081915080905093509350505061089a565b600460009054906101000a900473ffffffffffffffffffffffffffffffffffffffff1673ffffffffffffffffffffffffffffffffffffffff168173ffffffffffffffffffffffffffffffffffffffff1614156104de57600460009054906101000a900473ffffffffffffffffffffffffffffffffffffffff1673ffffffffffffffffffffffffffffffffffffffff1663d0e30db0886040518263ffffffff1660e01b81526004016000604051808303818588803b1580156104c457600080fd5b505af11580156104d8573d6000803e3d6000fd5b50505050505b61050a600360009054906101000a900473ffffffffffffffffffffffffffffffffffffffff168261107f565b610512611945565b600260009054906101000a900473ffffffffffffffffffffffffffffffffffffffff1673ffffffffffffffffffffffffffffffffffffffff1663b4be83d56105598561114b565b6105748a61056f8d61056a8a611238565b6113a9565b6113a9565b8661018001516040518463ffffffff1660e01b8152600401610598939291906123a1565b608060405180830381600087803b1580156105b257600080fd5b505af11580156105c6573d6000803e3d6000fd5b505050506040513d601f19601f820116820180604052506105ea9190810190611eee565b905080602001519450806000015193508785101561074557600460009054906101000a900473ffffffffffffffffffffffffffffffffffffffff1673ffffffffffffffffffffffffffffffffffffffff168273ffffffffffffffffffffffffffffffffffffffff16141561073557600460009054906101000a900473ffffffffffffffffffffffffffffffffffffffff1673ffffffffffffffffffffffffffffffffffffffff16632e1a7d4d868a036040518263ffffffff1660e01b81526004016106b591906123e6565b600060405180830381600087803b1580156106cf57600080fd5b505af11580156106e3573d6000803e3d6000fd5b505050503373ffffffffffffffffffffffffffffffffffffffff166108fc868a039081150290604051600060405180830381858888f1935050505015801561072f573d6000803e3d6000fd5b50610744565b6107428233878b03610f30565b505b5b60006107578461014001516010610d2d565b9050600460009054906101000a900473ffffffffffffffffffffffffffffffffffffffff1673ffffffffffffffffffffffffffffffffffffffff168173ffffffffffffffffffffffffffffffffffffffff16141561088857600460009054906101000a900473ffffffffffffffffffffffffffffffffffffffff1673ffffffffffffffffffffffffffffffffffffffff16632e1a7d4d866040518263ffffffff1660e01b815260040161080a91906123e6565b600060405180830381600087803b15801561082457600080fd5b505af1158015610838573d6000803e3d6000fd5b505050503373ffffffffffffffffffffffffffffffffffffffff166108fc869081150290604051600060405180830381858888f19350505050158015610882573d6000803e3d6000fd5b50610895565b610893813387610f30565b505b505050505b94509492505050565b6000809054906101000a900473ffffffffffffffffffffffffffffffffffffffff1673ffffffffffffffffffffffffffffffffffffffff163373ffffffffffffffffffffffffffffffffffffffff16146108fc57600080fd5b60018060008373ffffffffffffffffffffffffffffffffffffffff1673ffffffffffffffffffffffffffffffffffffffff16815260200190815260200160002060006101000a81548160ff02191690831515021790555050565b6000809054906101000a900473ffffffffffffffffffffffffffffffffffffffff1673ffffffffffffffffffffffffffffffffffffffff163373ffffffffffffffffffffffffffffffffffffffff16146109af57600080fd5b6000809054906101000a900473ffffffffffffffffffffffffffffffffffffffff1673ffffffffffffffffffffffffffffffffffffffff167ff8df31144d9c2f0f6b59d69b8b98abd5459d07f2742c4df920b25aae33c6482060405160405180910390a260008060006101000a81548173ffffffffffffffffffffffffffffffffffffffff021916908373ffffffffffffffffffffffffffffffffffffffff160217905550565b6000809054906101000a900473ffffffffffffffffffffffffffffffffffffffff1681565b60008060009054906101000a900473ffffffffffffffffffffffffffffffffffffffff1673ffffffffffffffffffffffffffffffffffffffff163373ffffffffffffffffffffffffffffffffffffffff1614610ad657600080fd5b610b02836000809054906101000a900473ffffffffffffffffffffffffffffffffffffffff1684610f30565b905092915050565b6000809054906101000a900473ffffffffffffffffffffffffffffffffffffffff1673ffffffffffffffffffffffffffffffffffffffff163373ffffffffffffffffffffffffffffffffffffffff1614610b6357600080fd5b6000600160008373ffffffffffffffffffffffffffffffffffffffff1673ffffffffffffffffffffffffffffffffffffffff16815260200190815260200160002060006101000a81548160ff02191690831515021790555050565b60016020528060005260406000206000915054906101000a900460ff1681565b600260009054906101000a900473ffffffffffffffffffffffffffffffffffffffff1681565b6000809054906101000a900473ffffffffffffffffffffffffffffffffffffffff1673ffffffffffffffffffffffffffffffffffffffff163373ffffffffffffffffffffffffffffffffffffffff1614610c5d57600080fd5b6000809054906101000a900473ffffffffffffffffffffffffffffffffffffffff1673ffffffffffffffffffffffffffffffffffffffff166108fc829081150290604051600060405180830381858888f19350505050158015610cc4573d6000803e3d6000fd5b5050565b6000809054906101000a900473ffffffffffffffffffffffffffffffffffffffff1673ffffffffffffffffffffffffffffffffffffffff163373ffffffffffffffffffffffffffffffffffffffff1614610d2157600080fd5b610d2a816113c2565b50565b60006014820183511015610d4057600080fd5b60006c01000000000000000000000000836020860101510490508091505092915050565b60008161010001514211158015610dce575063f47261b060e01b7bffffffffffffffffffffffffffffffffffffffffffffffffffffffff1916610dad83610160015160006114ba565b7bffffffffffffffffffffffffffffffffffffffffffffffffffffffff1916145b8015610e2d575063f47261b060e01b7bffffffffffffffffffffffffffffffffffffffffffffffffffffffff1916610e0c83610140015160006114ba565b7bffffffffffffffffffffffffffffffffffffffffffffffffffffffff1916145b8015610e3d575060008260e00151145b8015610eb35750600073ffffffffffffffffffffffffffffffffffffffff16826020015173ffffffffffffffffffffffffffffffffffffffff161480610eb257503073ffffffffffffffffffffffffffffffffffffffff16826020015173ffffffffffffffffffffffffffffffffffffffff16145b5b8015610f295750600073ffffffffffffffffffffffffffffffffffffffff16826060015173ffffffffffffffffffffffffffffffffffffffff161480610f2857503073ffffffffffffffffffffffffffffffffffffffff16826060015173ffffffffffffffffffffffffffffffffffffffff16145b5b9050919050565b60008373ffffffffffffffffffffffffffffffffffffffff168383604051602401610f5c9291906122e0565b6040516020818303038152906040527fa9059cbb000000000000000000000000000000000000000000000000000000007bffffffffffffffffffffffffffffffffffffffffffffffffffffffff19166020820180517bffffffffffffffffffffffffffffffffffffffffffffffffffffffff8381831617835250505050604051610fe6919061226a565b6000604051808303816000865af19150503d8060008114611023576040519150601f19603f3d011682016040523d82523d6000602084013e611028565b606091505b5050809150508061106e576040517f08c379a00000000000000000000000000000000000000000000000000000000081526004016110659061233f565b60405180910390fd5b6110766114e2565b90509392505050565b60008173ffffffffffffffffffffffffffffffffffffffff1663dd62ed3e30856040518363ffffffff1660e01b81526004016110bc9291906122b7565b60206040518083038186803b1580156110d457600080fd5b505afa1580156110e8573d6000803e3d6000fd5b505050506040513d601f19601f8201168201806040525061110c9190810190611faa565b14156111475761113d81837fffffffffffffffffffffffffffffffffffffffffffffffffffffffffffffffff611513565b61114657600080fd5b5b5050565b61115361196d565b604051806101800160405280836000015173ffffffffffffffffffffffffffffffffffffffff168152602001836020015173ffffffffffffffffffffffffffffffffffffffff168152602001836040015173ffffffffffffffffffffffffffffffffffffffff168152602001836060015173ffffffffffffffffffffffffffffffffffffffff168152602001836080015181526020018360a0015181526020018360c0015181526020018360e0015181526020018361010001518152602001836101200151815260200183610140015181526020018361016001518152509050919050565b6000611242611a26565b600260009054906101000a900473ffffffffffffffffffffffffffffffffffffffff1673ffffffffffffffffffffffffffffffffffffffff1663c75e0a816112898561114b565b6040518263ffffffff1660e01b81526004016112a5919061237f565b60606040518083038186803b1580156112bd57600080fd5b505afa1580156112d1573d6000803e3d6000fd5b505050506040513d601f19601f820116820180604052506112f59190810190611f58565b9050600061130c8461014001518560000151611662565b90506000611336604051806060016040528060248152602001612646602491398660000151611662565b90506000808660c001511461135d57611358828760c001518860a001516117bf565b611366565b6113656117dd565b5b905061139e6113876113818589608001518a60a001516117bf565b836113a9565b6113998860a001518760400151611805565b6113a9565b945050505050919050565b60008183106113b857816113ba565b825b905092915050565b600073ffffffffffffffffffffffffffffffffffffffff168173ffffffffffffffffffffffffffffffffffffffff1614156113fc57600080fd5b8073ffffffffffffffffffffffffffffffffffffffff166000809054906101000a900473ffffffffffffffffffffffffffffffffffffffff1673ffffffffffffffffffffffffffffffffffffffff167f8be0079c531659141344cd1fd0a4f28419497f9722a3daafe3b4186f6b6457e060405160405180910390a3806000806101000a81548173ffffffffffffffffffffffffffffffffffffffff021916908373ffffffffffffffffffffffffffffffffffffffff16021790555050565b600060048201835110156114cd57600080fd5b60008260208501015190508091505092915050565b60003d600081146114fa576020811461150357600080fd5b6001915061150f565b60206000803e60005191505b5090565b60008373ffffffffffffffffffffffffffffffffffffffff16838360405160240161153f9291906122e0565b6040516020818303038152906040527f095ea7b3000000000000000000000000000000000000000000000000000000007bffffffffffffffffffffffffffffffffffffffffffffffffffffffff19166020820180517bffffffffffffffffffffffffffffffffffffffffffffffffffffffff83818316178352505050506040516115c9919061226a565b6000604051808303816000865af19150503d8060008114611606576040519150601f19603f3d011682016040523d82523d6000602084013e61160b565b606091505b50508091505080611651576040517f08c379a00000000000000000000000000000000000000000000000000000000081526004016116489061235f565b60405180910390fd5b6116596114e2565b90509392505050565b600080611670846010610d2d565b905060008190506117b58173ffffffffffffffffffffffffffffffffffffffff166370a08231866040518263ffffffff1660e01b81526004016116b39190612281565b60206040518083038186803b1580156116cb57600080fd5b505afa1580156116df573d6000803e3d6000fd5b505050506040513d601f19601f820116820180604052506117039190810190611faa565b8273ffffffffffffffffffffffffffffffffffffffff1663dd62ed3e87600360009054906101000a900473ffffffffffffffffffffffffffffffffffffffff166040518363ffffffff1660e01b81526004016117609291906122b7565b60206040518083038186803b15801561177857600080fd5b505afa15801561178c573d6000803e3d6000fd5b505050506040513d601f19601f820116820180604052506117b09190810190611faa565b6113a9565b9250505092915050565b60006117d46117ce8584611825565b8461185f565b90509392505050565b60007fffffffffffffffffffffffffffffffffffffffffffffffffffffffffffffffff905090565b60008282111561181457600080fd5b600082840390508091505092915050565b6000808314156118385760009050611859565b600082840290508284828161184957fe5b041461185457600080fd5b809150505b92915050565b600080821161186d57600080fd5b600082848161187857fe5b0490508091505092915050565b604051806101a00160405280600073ffffffffffffffffffffffffffffffffffffffff168152602001600073ffffffffffffffffffffffffffffffffffffffff168152602001600073ffffffffffffffffffffffffffffffffffffffff168152602001600073ffffffffffffffffffffffffffffffffffffffff1681526020016000815260200160008152602001600081526020016000815260200160008152602001600081526020016060815260200160608152602001606081525090565b6040518060800160405280600081526020016000815260200160008152602001600081525090565b604051806101800160405280600073ffffffffffffffffffffffffffffffffffffffff168152602001600073ffffffffffffffffffffffffffffffffffffffff168152602001600073ffffffffffffffffffffffffffffffffffffffff168152602001600073ffffffffffffffffffffffffffffffffffffffff16815260200160008152602001600081526020016000815260200160008152602001600081526020016000815260200160608152602001606081525090565b6040518060600160405280600060ff16815260200160008019168152602001600081525090565b6000611a59823561255d565b905092915050565b6000611a6d825161255d565b905092915050565b6000611a81823561256f565b905092915050565b6000611a958235612581565b905092915050565b6000611aa9825161258d565b905092915050565b600082601f830112611ac257600080fd5b8151611ad5611ad082612457565b61242a565b91508082526020830160208301858383011115611af157600080fd5b611afc838284612601565b50505092915050565b600082601f830112611b1657600080fd5b8135611b29611b2482612483565b61242a565b91508082526020830160208301858383011115611b4557600080fd5b611b508382846125f2565b50505092915050565b600060808284031215611b6b57600080fd5b611b75608061242a565b90506000611b8584828501611dbd565b6000830152506020611b9984828501611dbd565b6020830152506040611bad84828501611dbd565b6040830152506060611bc184828501611dbd565b60608301525092915050565b60006101a08284031215611be057600080fd5b611beb6101a061242a565b90506000611bfb84828501611a61565b6000830152506020611c0f84828501611a61565b6020830152506040611c2384828501611a61565b6040830152506060611c3784828501611a61565b6060830152506080611c4b84828501611dbd565b60808301525060a0611c5f84828501611dbd565b60a08301525060c0611c7384828501611dbd565b60c08301525060e0611c8784828501611dbd565b60e083015250610100611c9c84828501611dbd565b61010083015250610120611cb284828501611dbd565b6101208301525061014082015167ffffffffffffffff811115611cd457600080fd5b611ce084828501611ab1565b6101408301525061016082015167ffffffffffffffff811115611d0257600080fd5b611d0e84828501611ab1565b6101608301525061018082015167ffffffffffffffff811115611d3057600080fd5b611d3c84828501611ab1565b6101808301525092915050565b600060608284031215611d5b57600080fd5b611d65606061242a565b90506000611d7584828501611dd1565b6000830152506020611d8984828501611a9d565b6020830152506040611d9d84828501611dbd565b60408301525092915050565b6000611db582356125b7565b905092915050565b6000611dc982516125b7565b905092915050565b6000611ddd82516125c1565b905092915050565b600060208284031215611df757600080fd5b6000611e0584828501611a4d565b91505092915050565b600060208284031215611e2057600080fd5b6000611e2e84828501611a75565b91505092915050565b60008060408385031215611e4a57600080fd5b6000611e5885828601611a4d565b9250506020611e6985828601611da9565b9150509250929050565b60008060008060808587031215611e8957600080fd5b600085013567ffffffffffffffff811115611ea357600080fd5b611eaf87828801611b05565b9450506020611ec087828801611da9565b9350506040611ed187828801611da9565b9250506060611ee287828801611a89565b91505092959194509250565b600060808284031215611f0057600080fd5b6000611f0e84828501611b59565b91505092915050565b600060208284031215611f2957600080fd5b600082015167ffffffffffffffff811115611f4357600080fd5b611f4f84828501611bcd565b91505092915050565b600060608284031215611f6a57600080fd5b6000611f7884828501611d49565b91505092915050565b600060208284031215611f9357600080fd5b6000611fa184828501611da9565b91505092915050565b600060208284031215611fbc57600080fd5b6000611fca84828501611dbd565b91505092915050565b611fdc81612515565b82525050565b611feb81612503565b82525050565b611ffa81612503565b82525050565b61200981612527565b82525050565b600061201a826124ba565b61202481856124e7565b9350612034818560208601612601565b80840191505092915050565b600061204b826124af565b61205581856124c5565b9350612065818560208601612601565b61206e81612634565b840191505092915050565b6000612084826124af565b61208e81856124d6565b935061209e818560208601612601565b6120a781612634565b840191505092915050565b6120bb816125ce565b82525050565b60006120ce600f836124f2565b91507f5472616e73666572206661696c656400000000000000000000000000000000006000830152602082019050919050565b600061210e600e836124f2565b91507f417070726f7665206661696c65640000000000000000000000000000000000006000830152602082019050919050565b60006101808301600083015161215a6000860182611fe2565b50602083015161216d6020860182611fe2565b5060408301516121806040860182611fe2565b5060608301516121936060860182611fe2565b5060808301516121a6608086018261224c565b5060a08301516121b960a086018261224c565b5060c08301516121cc60c086018261224c565b5060e08301516121df60e086018261224c565b506101008301516121f461010086018261224c565b5061012083015161220961012086018261224c565b506101408301518482036101408601526122238282612040565b91505061016083015184820361016086015261223f8282612040565b9150508091505092915050565b61225581612553565b82525050565b61226481612553565b82525050565b6000612276828461200f565b915081905092915050565b60006020820190506122966000830184611ff1565b92915050565b60006020820190506122b16000830184611fd3565b92915050565b60006040820190506122cc6000830185611ff1565b6122d96020830184611ff1565b9392505050565b60006040820190506122f56000830185611ff1565b612302602083018461225b565b9392505050565b600060208201905061231e6000830184612000565b92915050565b600060208201905061233960008301846120b2565b92915050565b60006020820190508181036000830152612358816120c1565b9050919050565b6000602082019050818103600083015261237881612101565b9050919050565b600060208201905081810360008301526123998184612141565b905092915050565b600060608201905081810360008301526123bb8186612141565b90506123ca602083018561225b565b81810360408301526123dc8184612079565b9050949350505050565b60006020820190506123fb600083018461225b565b92915050565b6000604082019050612416600083018561225b565b612423602083018461225b565b9392505050565b6000604051905081810181811067ffffffffffffffff8211171561244d57600080fd5b8060405250919050565b600067ffffffffffffffff82111561246e57600080fd5b601f19601f8301169050602081019050919050565b600067ffffffffffffffff82111561249a57600080fd5b601f19601f8301169050602081019050919050565b600081519050919050565b600081519050919050565b600082825260208201905092915050565b600082825260208201905092915050565b600081905092915050565b600082825260208201905092915050565b600061250e82612533565b9050919050565b600061252082612533565b9050919050565b60008115159050919050565b600073ffffffffffffffffffffffffffffffffffffffff82169050919050565b6000819050919050565b600061256882612597565b9050919050565b600061257a82612597565b9050919050565b60008115159050919050565b6000819050919050565b600073ffffffffffffffffffffffffffffffffffffffff82169050919050565b6000819050919050565b600060ff82169050919050565b60006125d9826125e0565b9050919050565b60006125eb82612533565b9050919050565b82818337600083830152505050565b60005b8381101561261f578082015181840152602081019050612604565b8381111561262e576000848401525b50505050565b6000601f19601f830116905091905056fef47261b0000000000000000000000000e41d2489571d322189246dafa5ebde1f4699f498a265627a7a72305820561ddb134d8585766cb464267cad232b5217c02ed8144f9897726e96c9eaf2326c6578706572696d656e74616cf50037f47261b0000000000000000000000000e41d2489571d322189246dafa5ebde1f4699f498",
  "source": "pragma solidity 0.5.7;\r\npragma experimental ABIEncoderV2;\r\n\r\nimport \"../lib/SafeMath.sol\";\r\nimport \"../lib/Math.sol\";\r\nimport \"../lib/Utils.sol\";\r\nimport \"../lib/AllowanceSetter.sol\";\r\nimport \"./ExchangeHandler.sol\";\r\nimport \"./interfaces/zeroex/IExchangeCore.sol\";\r\nimport \"../lib/TotleControl.sol\";\r\n\r\ninterface WETH {\r\n    function deposit() external payable;\r\n    function withdraw(uint256 amount) external;\r\n}\r\n\r\n\r\n/// @title ZeroExExchangeHandler\r\n/// @notice Handles the all ZeroExExchange trades for the primary contract\r\ncontract ZeroExExchangeHandler is TotleControl, ExchangeHandler, AllowanceSetter  {\r\n\r\n    /*\r\n    *   State Variables\r\n    */\r\n\r\n    IExchangeCore public exchange;\r\n    /// @dev note that this is dependent on the deployment of 0xV2. This is the ERC20 asset proxy + the mainnet address of the ZRX token\r\n    bytes constant ZRX_ASSET_DATA = \"\\xf4\\x72\\x61\\xb0\\x00\\x00\\x00\\x00\\x00\\x00\\x00\\x00\\x00\\x00\\x00\\x00\\xe4\\x1d\\x24\\x89\\x57\\x1d\\x32\\x21\\x89\\x24\\x6d\\xaf\\xa5\\xeb\\xde\\x1f\\x46\\x99\\xf4\\x98\";\r\n    address ERC20_ASSET_PROXY;\r\n    WETH weth;\r\n\r\n    /*\r\n    *   Types\r\n    */\r\n\r\n    /// @notice Constructor\r\n    /// @param _exchange Address of the IExchangeCore exchange\r\n    constructor(\r\n        address _exchange,\r\n        address _weth,\r\n        address _primary\r\n    ) TotleControl(_primary)\r\n        public\r\n    {\r\n        exchange = IExchangeCore(_exchange);\r\n        ERC20_ASSET_PROXY = exchange.getAssetProxy(toBytes4(ZRX_ASSET_DATA, 0));\r\n        weth = WETH(_weth);\r\n    }\r\n\r\n\r\n    struct OrderData {\r\n        address makerAddress;           // Address that created the order.\r\n        address takerAddress;           // Address that is allowed to fill the order. If set to 0, any address is allowed to fill the order.\r\n        address feeRecipientAddress;    // Address that will recieve fees when order is filled.\r\n        address senderAddress;          // Address that is allowed to call Exchange contract methods that affect this order. If set to 0, any address is allowed to call these methods.\r\n        uint256 makerAssetAmount;       // Amount of makerAsset being offered by maker. Must be greater than 0.\r\n        uint256 takerAssetAmount;       // Amount of takerAsset being bid on by maker. Must be greater than 0.\r\n        uint256 makerFee;               // Amount of ZRX paid to feeRecipient by maker when order is filled. If set to 0, no transfer of ZRX from maker to feeRecipient will be attempted.\r\n        uint256 takerFee;               // Amount of ZRX paid to feeRecipient by taker when order is filled. If set to 0, no transfer of ZRX from taker to feeRecipient will be attempted.\r\n        uint256 expirationTimeSeconds;  // Timestamp in seconds at which order expires.\r\n        uint256 salt;                   // Arbitrary number to facilitate uniqueness of the order's hash.\r\n        bytes makerAssetData;           // Encoded data that can be decoded by a specified proxy contract when transferring makerAsset. The last byte references the id of this proxy.\r\n        bytes takerAssetData;           // Encoded data that can be decoded by a specified proxy contract when transferring takerAsset. The last byte references the id of this proxy.\r\n        bytes signature;\r\n    }\r\n\r\n    /*\r\n    *   Public functions\r\n    */\r\n\r\n\r\n\r\n    /*\r\n    *   Internal functions\r\n    */\r\n\r\n    /// @notice Gets the amount that Totle needs to give for this order\r\n    /// @param data LibOrder.Order struct containing order values\r\n    /// @return amountToGive amount taker needs to give in order to fill the order\r\n    function getAmountToGive_(\r\n        OrderData memory data\r\n    )\r\n      internal\r\n      view\r\n      returns (uint256 amountToGive)\r\n    {\r\n        LibOrder.OrderInfo memory orderInfo = exchange.getOrderInfo(\r\n            getZeroExOrder(data)\r\n        );\r\n        uint makerAssetAvailable = getAssetDataAvailable(data.makerAssetData, data.makerAddress);\r\n        uint feeAssetAvailable = getAssetDataAvailable(ZRX_ASSET_DATA, data.makerAddress);\r\n\r\n        uint maxFromMakerFee = data.makerFee == 0 ? Utils.max_uint() : getPartialAmount(feeAssetAvailable, data.makerFee, data.takerAssetAmount);\r\n        amountToGive = Math.min(Math.min(\r\n            getPartialAmount(makerAssetAvailable, data.makerAssetAmount, data.takerAssetAmount),\r\n            maxFromMakerFee),\r\n            SafeMath.sub(data.takerAssetAmount, orderInfo.orderTakerAssetFilledAmount)\r\n        );\r\n        //TODO add in taker fee shit - both in calculating this and actually buying the ZRX\r\n        /* logger.log(\"Getting amountToGive from ZeroEx arg2: amountToGive\", amountToGive); */\r\n    }\r\n\r\n    function getAssetDataAvailable(bytes memory assetData, address account) internal view returns (uint){\r\n        address tokenAddress = toAddress(assetData, 16);\r\n        ERC20 token = ERC20(tokenAddress);\r\n        return Math.min(token.balanceOf(account), token.allowance(account, ERC20_ASSET_PROXY));\r\n    }\r\n\r\n    function getZeroExOrder(OrderData memory data) internal pure returns (LibOrder.Order memory) {\r\n        return LibOrder.Order({\r\n            makerAddress: data.makerAddress,\r\n            takerAddress: data.takerAddress,\r\n            feeRecipientAddress: data.feeRecipientAddress,\r\n            senderAddress: data.senderAddress,\r\n            makerAssetAmount: data.makerAssetAmount,\r\n            takerAssetAmount: data.takerAssetAmount,\r\n            makerFee: data.makerFee,\r\n            takerFee: data.takerFee,\r\n            expirationTimeSeconds: data.expirationTimeSeconds,\r\n            salt: data.salt,\r\n            makerAssetData: data.makerAssetData,\r\n            takerAssetData: data.takerAssetData\r\n        });\r\n    }\r\n\r\n    /// @notice Perform exchange-specific checks on the given order\r\n    /// @dev This should be called to check for payload errors\r\n    /// @param data LibOrder.Order struct containing order values\r\n    /// @return checksPassed value representing pass or fail\r\n    function staticExchangeChecks(\r\n        OrderData memory data\r\n    )\r\n        internal\r\n        view\r\n        returns (bool checksPassed)\r\n    {\r\n\r\n        // Make sure that:\r\n        //  The order is not expired\r\n        //  Both the maker and taker assets are ERC20 tokens\r\n        //  The taker does not have to pay a fee (we don't support fees yet)\r\n        //  We are permitted to take this order\r\n        //  We are permitted to send this order\r\n        // TODO: Should we check signatures here?\r\n        return (block.timestamp <= data.expirationTimeSeconds &&\r\n                toBytes4(data.takerAssetData, 0) == bytes4(0xf47261b0) &&\r\n                toBytes4(data.makerAssetData, 0) == bytes4(0xf47261b0) &&\r\n                data.takerFee == 0 &&\r\n                (data.takerAddress == address(0x0) || data.takerAddress == address(this)) &&\r\n                (data.senderAddress == address(0x0) || data.senderAddress == address(this))\r\n        );\r\n    }\r\n\r\n    function performOrder(\r\n        bytes memory genericPayload,\r\n        uint256 availableToSpend,\r\n        uint256 targetAmount,\r\n        bool targetAmountIsSource\r\n    )\r\n        public\r\n        payable\r\n        onlyTotle\r\n        returns (uint256 amountSpentOnOrder, uint256 amountReceivedFromOrder)\r\n    {\r\n        OrderData memory data = abi.decode(genericPayload, (OrderData));\r\n        address sourceAddress = toAddress(data.takerAssetData, 16);\r\n        if(!staticExchangeChecks(data)){\r\n            if(sourceAddress == address(weth)){\r\n                msg.sender.transfer(availableToSpend);\r\n            } else {\r\n                ERC20SafeTransfer.safeTransfer(sourceAddress, msg.sender, availableToSpend); \r\n            }\r\n            return (0,0);\r\n\r\n        }\r\n        if(sourceAddress == address(weth)){\r\n            weth.deposit.value(availableToSpend)();\r\n        }\r\n        approveAddress(ERC20_ASSET_PROXY, sourceAddress);\r\n\r\n        LibFillResults.FillResults memory results = exchange.fillOrder(\r\n            getZeroExOrder(data),\r\n            Math.min(targetAmount, Math.min(availableToSpend, getAmountToGive_(data))),\r\n            data.signature\r\n        );\r\n\r\n        amountSpentOnOrder = results.takerAssetFilledAmount;\r\n        amountReceivedFromOrder = results.makerAssetFilledAmount;\r\n\r\n        if(amountSpentOnOrder < availableToSpend){\r\n            if(sourceAddress == address(weth)){\r\n                weth.withdraw(availableToSpend - amountSpentOnOrder);\r\n                msg.sender.transfer(availableToSpend - amountSpentOnOrder);\r\n            } else {\r\n                ERC20SafeTransfer.safeTransfer(sourceAddress, msg.sender, availableToSpend - amountSpentOnOrder);\r\n            }\r\n        }\r\n\r\n        address destinationAddress = toAddress(data.makerAssetData, 16);\r\n\r\n        if(destinationAddress == address(weth)){\r\n            weth.withdraw(amountReceivedFromOrder);\r\n            msg.sender.transfer(amountReceivedFromOrder);\r\n        } else {\r\n            ERC20SafeTransfer.safeTransfer(destinationAddress, msg.sender, amountReceivedFromOrder);\r\n        }\r\n\r\n\r\n    }\r\n\r\n    /// @notice Calculate the result of ((numerator * target) / denominator)\r\n    /// @param numerator the numerator in the equation\r\n    /// @param denominator the denominator in the equation\r\n    /// @param target the target for the equations\r\n    /// @return partialAmount the resultant value\r\n    function getPartialAmount(\r\n        uint256 numerator,\r\n        uint256 denominator,\r\n        uint256 target\r\n    )\r\n        internal\r\n        pure\r\n        returns (uint256)\r\n    {\r\n        return SafeMath.div(SafeMath.mul(numerator, target), denominator);\r\n    }\r\n\r\n    // @notice Extract an address from a string of bytes\r\n    // @param _bytes a string of at least 20 bytes\r\n    // @param _start the offset of the address within the byte stream\r\n    // @return tempAddress the address encoded in the bytestring beginning at _start\r\n    function toAddress(bytes memory _bytes, uint _start) internal  pure returns (address) {\r\n        require(_bytes.length >= (_start + 20));\r\n        address tempAddress;\r\n\r\n        assembly {\r\n            tempAddress := div(mload(add(add(_bytes, 0x20), _start)), 0x1000000000000000000000000)\r\n        }\r\n\r\n        return tempAddress;\r\n    }\r\n\r\n    function toBytes4(bytes memory _bytes, uint _start) internal pure returns (bytes4) {\r\n        require(_bytes.length >= (_start + 4));\r\n        bytes4 tempBytes4;\r\n\r\n        assembly {\r\n            tempBytes4 := mload(add(add(_bytes, 0x20), _start))\r\n        }\r\n        return tempBytes4;\r\n    }\r\n\r\n    // @notice Extract a uint256 from a string of bytes\r\n    // @param _bytes a string of at least 32 bytes\r\n    // @param _start the offset of the uint256 within the byte stream\r\n    // @return tempUint the uint encoded in the bytestring beginning at _start\r\n    function toUint(bytes memory _bytes, uint _start) internal  pure returns (uint256) {\r\n        require(_bytes.length >= (_start + 32));\r\n        uint256 tempUint;\r\n\r\n        assembly {\r\n            tempUint := mload(add(add(_bytes, 0x20), _start))\r\n        }\r\n\r\n        return tempUint;\r\n    }\r\n\r\n    /*\r\n    *   Payable fallback function\r\n    */\r\n\r\n    /// @notice payable fallback to allow the exchange to return ether directly to this contract\r\n    /// @dev note that only the exchange should be able to send ether to this contract\r\n    function() external payable {\r\n        require(msg.sender == address(weth));\r\n    }\r\n}\r\n",
  "sourcePath": "C:/Users/jay.sanchez/taisho_dex/contracts/exchange_handlers/ZeroExExchangeHandler.sol",
  "compiler": {
    "name": "solc",
    "version": "0.5.7+commit.6da8b019.Emscripten.clang"
  },
  "schemaVersion": "3.3.2",
  "updatedAt": "2021-01-06T03:22:15.522Z",
  "devdoc": {
    "methods": {
      "addTotle(address)": {
        "params": {
          "_totlePrimary": "the address of the contract to be set as totlePrimary"
        }
      },
      "constructor": {
        "params": {
          "_exchange": "Address of the IExchangeCore exchange"
        }
      },
      "renounceOwnership()": {
        "details": "Allows the current owner to relinquish control of the contract.\r"
      },
      "transferOwnership(address)": {
        "details": "Allows the current owner to transfer control of the contract to a newOwner.\r",
        "params": {
          "_newOwner": "The address to transfer ownership to.\r"
        }
      },
      "withdrawETH(uint256)": {
        "params": {
          "_amount": "The amount of ether that the caller wants to withdraw"
        }
      },
      "withdrawToken(address,uint256)": {
        "return": "bool value indicating whether the transfer was successful"
      }
    }
  },
  "userdoc": {
    "methods": {
      "renounceOwnership()": {
        "notice": "Renouncing to ownership will leave the contract without an owner.\r It will not be possible to call the functions with the `onlyOwner`\r modifier anymore.\r"
      }
    },
    "notice": "Handles the all ZeroExExchange trades for the primary contract"
  }
}